{
  "contractName": "Campaign",
  "abi": [
    {
      "anonymous": false,
      "inputs": [
        {
          "indexed": false,
          "internalType": "uint256",
          "name": "campaignId",
          "type": "uint256"
        },
        {
          "indexed": false,
          "internalType": "string",
          "name": "actionType",
          "type": "string"
        },
        {
          "indexed": true,
          "internalType": "address",
          "name": "executor",
          "type": "address"
        },
        {
          "indexed": false,
          "internalType": "uint256",
          "name": "timestamp",
          "type": "uint256"
        }
      ],
      "name": "Action",
      "type": "event"
    },
    {
      "inputs": [],
      "name": "contractBalance",
      "outputs": [
        {
          "internalType": "uint256",
          "name": "",
          "type": "uint256"
        }
      ],
      "stateMutability": "view",
      "type": "function",
      "constant": true
    },
    {
      "inputs": [
        {
          "internalType": "string",
          "name": "userId",
          "type": "string"
        },
        {
          "internalType": "string",
          "name": "categoryId",
          "type": "string"
        },
        {
          "internalType": "string",
          "name": "title",
          "type": "string"
        },
        {
          "internalType": "string",
          "name": "description",
          "type": "string"
        },
        {
          "internalType": "uint256",
          "name": "targetFunds",
          "type": "uint256"
        },
        {
          "internalType": "uint256",
          "name": "startTime",
          "type": "uint256"
        },
        {
          "internalType": "uint256",
          "name": "deadline",
          "type": "uint256"
        },
        {
          "internalType": "string",
          "name": "imageURL",
          "type": "string"
        }
      ],
      "name": "createCampaign",
      "outputs": [
        {
          "internalType": "bool",
          "name": "",
          "type": "bool"
        }
      ],
      "stateMutability": "nonpayable",
      "type": "function"
    },
    {
      "inputs": [
        {
          "internalType": "uint256",
          "name": "campaignId",
          "type": "uint256"
        },
        {
          "internalType": "string",
          "name": "userId",
          "type": "string"
        }
      ],
      "name": "donateFunds",
      "outputs": [
        {
          "internalType": "bool",
          "name": "",
          "type": "bool"
        }
      ],
      "stateMutability": "payable",
      "type": "function",
      "payable": true
    },
    {
      "inputs": [
        {
          "internalType": "uint256",
          "name": "id",
          "type": "uint256"
        }
      ],
      "name": "getCampaignFunders",
      "outputs": [
        {
          "components": [
            {
              "internalType": "address",
              "name": "funder",
              "type": "address"
            },
            {
              "internalType": "uint256",
              "name": "contribution",
              "type": "uint256"
            },
            {
              "internalType": "uint256",
              "name": "timestamp",
              "type": "uint256"
            }
          ],
          "internalType": "struct Campaign.funderStruct[]",
          "name": "",
          "type": "tuple[]"
        }
      ],
      "stateMutability": "view",
      "type": "function",
      "constant": true
    },
    {
      "inputs": [],
      "name": "getUserStats",
      "outputs": [
        {
          "components": [
            {
              "internalType": "string",
              "name": "userId",
              "type": "string"
            },
            {
              "internalType": "uint256",
              "name": "contribution",
              "type": "uint256"
            },
            {
              "internalType": "bool",
              "name": "isFundsDonating",
              "type": "bool"
            },
            {
              "internalType": "uint256",
              "name": "timestamp",
              "type": "uint256"
            },
            {
              "internalType": "string",
              "name": "description",
              "type": "string"
            }
          ],
          "internalType": "struct Campaign.userStatsStruct[]",
          "name": "",
          "type": "tuple[]"
        }
      ],
      "stateMutability": "view",
      "type": "function",
      "constant": true
    },
    {
      "inputs": [
        {
          "internalType": "uint256",
          "name": "id",
          "type": "uint256"
        }
      ],
      "name": "getCampaign",
      "outputs": [
        {
          "components": [
            {
              "internalType": "address",
              "name": "creator",
              "type": "address"
            },
            {
              "internalType": "string",
              "name": "userId",
              "type": "string"
            },
            {
              "internalType": "string",
              "name": "categoryId",
              "type": "string"
            },
            {
              "internalType": "uint256",
              "name": "campaignId",
              "type": "uint256"
            },
            {
              "internalType": "string",
              "name": "title",
              "type": "string"
            },
            {
              "internalType": "string",
              "name": "description",
              "type": "string"
            },
            {
              "internalType": "uint256",
              "name": "targetFunds",
              "type": "uint256"
            },
            {
              "internalType": "uint256",
              "name": "startTime",
              "type": "uint256"
            },
            {
              "internalType": "uint256",
              "name": "deadline",
              "type": "uint256"
            },
            {
              "internalType": "uint256",
              "name": "raisedFunds",
              "type": "uint256"
            },
            {
              "internalType": "uint256",
              "name": "remainingFunds",
              "type": "uint256"
            },
            {
              "internalType": "string",
              "name": "imageURL",
              "type": "string"
            },
            {
              "internalType": "enum Campaign.statusEnum",
              "name": "status",
              "type": "uint8"
            },
            {
              "internalType": "bool",
              "name": "isWithdraw",
              "type": "bool"
            }
          ],
          "internalType": "struct Campaign.campaignStructre",
          "name": "",
          "type": "tuple"
        }
      ],
      "stateMutability": "nonpayable",
      "type": "function"
    },
    {
      "inputs": [],
      "name": "getAllCampaigns",
      "outputs": [
        {
          "components": [
            {
              "internalType": "address",
              "name": "creator",
              "type": "address"
            },
            {
              "internalType": "string",
              "name": "userId",
              "type": "string"
            },
            {
              "internalType": "string",
              "name": "categoryId",
              "type": "string"
            },
            {
              "internalType": "uint256",
              "name": "campaignId",
              "type": "uint256"
            },
            {
              "internalType": "string",
              "name": "title",
              "type": "string"
            },
            {
              "internalType": "string",
              "name": "description",
              "type": "string"
            },
            {
              "internalType": "uint256",
              "name": "targetFunds",
              "type": "uint256"
            },
            {
              "internalType": "uint256",
              "name": "startTime",
              "type": "uint256"
            },
            {
              "internalType": "uint256",
              "name": "deadline",
              "type": "uint256"
            },
            {
              "internalType": "uint256",
              "name": "raisedFunds",
              "type": "uint256"
            },
            {
              "internalType": "uint256",
              "name": "remainingFunds",
              "type": "uint256"
            },
            {
              "internalType": "string",
              "name": "imageURL",
              "type": "string"
            },
            {
              "internalType": "enum Campaign.statusEnum",
              "name": "status",
              "type": "uint8"
            },
            {
              "internalType": "bool",
              "name": "isWithdraw",
              "type": "bool"
            }
          ],
          "internalType": "struct Campaign.campaignStructre[]",
          "name": "",
          "type": "tuple[]"
        }
      ],
      "stateMutability": "nonpayable",
      "type": "function"
    },
    {
      "inputs": [
        {
          "internalType": "uint256",
          "name": "id",
          "type": "uint256"
        }
      ],
      "name": "getRaisedFunds",
      "outputs": [
        {
          "internalType": "uint256",
          "name": "",
          "type": "uint256"
        }
      ],
      "stateMutability": "view",
      "type": "function",
      "constant": true
    },
    {
      "inputs": [
        {
          "internalType": "uint256",
          "name": "id",
          "type": "uint256"
        }
      ],
      "name": "getRemainingFunds",
      "outputs": [
        {
          "internalType": "uint256",
          "name": "",
          "type": "uint256"
        }
      ],
      "stateMutability": "view",
      "type": "function",
      "constant": true
    },
    {
      "inputs": [
        {
          "internalType": "address",
          "name": "ownerAddress",
          "type": "address"
        },
        {
          "internalType": "uint256",
          "name": "campaignId",
          "type": "uint256"
        },
        {
          "internalType": "string",
          "name": "userId",
          "type": "string"
        }
      ],
      "name": "withdrawFunds",
      "outputs": [
        {
          "internalType": "bool",
          "name": "",
          "type": "bool"
        }
      ],
      "stateMutability": "nonpayable",
      "type": "function"
    }
  ],
  "bytecode": "0x608060405234801561001057600080fd5b50613d85806100206000396000f3fe6080604052600436106100915760003560e01c80638b7afe2e116100595780638b7afe2e146101a35780639b81e17e146101ce578063c7d7aa0d1461020b578063d556681514610248578063fcadf4391461028557610091565b806305903e061461009657806350fadbe0146100d357806353f6ad37146101105780635598f8cc1461013b57806386cdf60414610178575b600080fd5b3480156100a257600080fd5b506100bd60048036038101906100b8919061277d565b6102b5565b6040516100ca91906128eb565b60405180910390f35b3480156100df57600080fd5b506100fa60048036038101906100f5919061277d565b610391565b604051610107919061291c565b60405180910390f35b34801561011c57600080fd5b50610125610420565b6040516101329190612b2a565b60405180910390f35b34801561014757600080fd5b50610162600480360381019061015d919061277d565b6105d2565b60405161016f9190612d0d565b60405180910390f35b34801561018457600080fd5b5061018d610ba3565b60405161019a9190612f3b565b60405180910390f35b3480156101af57600080fd5b506101b861115b565b6040516101c5919061291c565b60405180910390f35b3480156101da57600080fd5b506101f560048036038101906101f091906130be565b611161565b604051610202919061313c565b60405180910390f35b34801561021757600080fd5b50610232600480360381019061022d919061277d565b61173b565b60405161023f919061291c565b60405180910390f35b34801561025457600080fd5b5061026f600480360381019061026a9190613157565b6117ca565b60405161027c919061313c565b60405180910390f35b61029f600480360381019061029a9190613299565b611d0d565b6040516102ac919061313c565b60405180910390f35b606060096000838152602001908152602001600020805480602002602001604051908101604052809291908181526020016000905b8282101561038657838290600052602060002090600302016040518060600160405290816000820160009054906101000a900473ffffffffffffffffffffffffffffffffffffffff1673ffffffffffffffffffffffffffffffffffffffff1673ffffffffffffffffffffffffffffffffffffffff16815260200160018201548152602001600282015481525050815260200190600101906102ea565b505050509050919050565b60006007600083815260200190815260200160002060009054906101000a900460ff166103f3576040517f08c379a00000000000000000000000000000000000000000000000000000000081526004016103ea90613352565b60405180910390fd5b6001828154811061040757610406613372565b5b90600052602060002090600d0201600a01549050919050565b60606002805480602002602001604051908101604052809291908181526020016000905b828210156105c957838290600052602060002090600502016040518060a0016040529081600082018054610477906133d0565b80601f01602080910402602001604051908101604052809291908181526020018280546104a3906133d0565b80156104f05780601f106104c5576101008083540402835291602001916104f0565b820191906000526020600020905b8154815290600101906020018083116104d357829003601f168201915b50505050508152602001600182015481526020016002820160009054906101000a900460ff1615151515815260200160038201548152602001600482018054610538906133d0565b80601f0160208091040260200160405190810160405280929190818152602001828054610564906133d0565b80156105b15780601f10610586576101008083540402835291602001916105b1565b820191906000526020600020905b81548152906001019060200180831161059457829003601f168201915b50505050508152505081526020019060010190610444565b50505050905090565b6105da6125f7565b6007600083815260200190815260200160002060009054906101000a900460ff1661063a576040517f08c379a000000000000000000000000000000000000000000000000000000000815260040161063190613352565b60405180910390fd5b426001838154811061064f5761064e613372565b5b90600052602060002090600d02016007015411156106b65760006001838154811061067d5761067c613372565b5b90600052602060002090600d0201600c0160006101000a81548160ff021916908360028111156106b0576106af612b4c565b5b02179055505b42600183815481106106cb576106ca613372565b5b90600052602060002090600d020160070154116107305760018083815481106106f7576106f6613372565b5b90600052602060002090600d0201600c0160006101000a81548160ff0219169083600281111561072a57610729612b4c565b5b02179055505b426001838154811061074557610744613372565b5b90600052602060002090600d02016008015410156107ac5760026001838154811061077357610772613372565b5b90600052602060002090600d0201600c0160006101000a81548160ff021916908360028111156107a6576107a5612b4c565b5b02179055505b600182815481106107c0576107bf613372565b5b90600052602060002090600d0201604051806101c00160405290816000820160009054906101000a900473ffffffffffffffffffffffffffffffffffffffff1673ffffffffffffffffffffffffffffffffffffffff1673ffffffffffffffffffffffffffffffffffffffff168152602001600182018054610840906133d0565b80601f016020809104026020016040519081016040528092919081815260200182805461086c906133d0565b80156108b95780601f1061088e576101008083540402835291602001916108b9565b820191906000526020600020905b81548152906001019060200180831161089c57829003601f168201915b505050505081526020016002820180546108d2906133d0565b80601f01602080910402602001604051908101604052809291908181526020018280546108fe906133d0565b801561094b5780601f106109205761010080835404028352916020019161094b565b820191906000526020600020905b81548152906001019060200180831161092e57829003601f168201915b505050505081526020016003820154815260200160048201805461096e906133d0565b80601f016020809104026020016040519081016040528092919081815260200182805461099a906133d0565b80156109e75780601f106109bc576101008083540402835291602001916109e7565b820191906000526020600020905b8154815290600101906020018083116109ca57829003601f168201915b50505050508152602001600582018054610a00906133d0565b80601f0160208091040260200160405190810160405280929190818152602001828054610a2c906133d0565b8015610a795780601f10610a4e57610100808354040283529160200191610a79565b820191906000526020600020905b815481529060010190602001808311610a5c57829003601f168201915b5050505050815260200160068201548152602001600782015481526020016008820154815260200160098201548152602001600a8201548152602001600b82018054610ac4906133d0565b80601f0160208091040260200160405190810160405280929190818152602001828054610af0906133d0565b8015610b3d5780601f10610b1257610100808354040283529160200191610b3d565b820191906000526020600020905b815481529060010190602001808311610b2057829003601f168201915b50505050508152602001600c820160009054906101000a900460ff166002811115610b6b57610b6a612b4c565b5b6002811115610b7d57610b7c612b4c565b5b8152602001600c820160019054906101000a900460ff1615151515815250509050919050565b606060005b600180549050811015610d3a574260018281548110610bca57610bc9613372565b5b90600052602060002090600d0201600701541115610c3157600060018281548110610bf857610bf7613372565b5b90600052602060002090600d0201600c0160006101000a81548160ff02191690836002811115610c2b57610c2a612b4c565b5b02179055505b4260018281548110610c4657610c45613372565b5b90600052602060002090600d02016007015411610cab576001808281548110610c7257610c71613372565b5b90600052602060002090600d0201600c0160006101000a81548160ff02191690836002811115610ca557610ca4612b4c565b5b02179055505b4260018281548110610cc057610cbf613372565b5b90600052602060002090600d0201600801541015610d2757600260018281548110610cee57610ced613372565b5b90600052602060002090600d0201600c0160006101000a81548160ff02191690836002811115610d2157610d20612b4c565b5b02179055505b8080610d3290613430565b915050610ba8565b506001805480602002602001604051908101604052809291908181526020016000905b8282101561115257838290600052602060002090600d0201604051806101c00160405290816000820160009054906101000a900473ffffffffffffffffffffffffffffffffffffffff1673ffffffffffffffffffffffffffffffffffffffff1673ffffffffffffffffffffffffffffffffffffffff168152602001600182018054610de7906133d0565b80601f0160208091040260200160405190810160405280929190818152602001828054610e13906133d0565b8015610e605780601f10610e3557610100808354040283529160200191610e60565b820191906000526020600020905b815481529060010190602001808311610e4357829003601f168201915b50505050508152602001600282018054610e79906133d0565b80601f0160208091040260200160405190810160405280929190818152602001828054610ea5906133d0565b8015610ef25780601f10610ec757610100808354040283529160200191610ef2565b820191906000526020600020905b815481529060010190602001808311610ed557829003601f168201915b5050505050815260200160038201548152602001600482018054610f15906133d0565b80601f0160208091040260200160405190810160405280929190818152602001828054610f41906133d0565b8015610f8e5780601f10610f6357610100808354040283529160200191610f8e565b820191906000526020600020905b815481529060010190602001808311610f7157829003601f168201915b50505050508152602001600582018054610fa7906133d0565b80601f0160208091040260200160405190810160405280929190818152602001828054610fd3906133d0565b80156110205780601f10610ff557610100808354040283529160200191611020565b820191906000526020600020905b81548152906001019060200180831161100357829003601f168201915b5050505050815260200160068201548152602001600782015481526020016008820154815260200160098201548152602001600a8201548152602001600b8201805461106b906133d0565b80601f0160208091040260200160405190810160405280929190818152602001828054611097906133d0565b80156110e45780601f106110b9576101008083540402835291602001916110e4565b820191906000526020600020905b8154815290600101906020018083116110c757829003601f168201915b50505050508152602001600c820160009054906101000a900460ff16600281111561111257611111612b4c565b5b600281111561112457611123612b4c565b5b8152602001600c820160019054906101000a900460ff16151515158152505081526020019060010190610d5d565b50505050905090565b60065481565b60006001838154811061117757611176613372565b5b90600052602060002090600d020160000160009054906101000a900473ffffffffffffffffffffffffffffffffffffffff1673ffffffffffffffffffffffffffffffffffffffff168473ffffffffffffffffffffffffffffffffffffffff1614611216576040517f08c379a000000000000000000000000000000000000000000000000000000000815260040161120d906134ea565b60405180910390fd5b6112cd6001848154811061122d5761122c613372565b5b90600052602060002090600d02016001018054611249906133d0565b80601f0160208091040260200160405190810160405280929190818152602001828054611275906133d0565b80156112c25780601f10611297576101008083540402835291602001916112c2565b820191906000526020600020905b8154815290600101906020018083116112a557829003601f168201915b505050505083612572565b61130c576040517f08c379a00000000000000000000000000000000000000000000000000000000081526004016113039061357c565b60405180910390fd5b60006001848154811061132257611321613372565b5b90600052602060002090600d02016009015411611374576040517f08c379a000000000000000000000000000000000000000000000000000000000815260040161136b906135e8565b60405180910390fd5b600015156001848154811061138c5761138b613372565b5b90600052602060002090600d0201600c0160019054906101000a900460ff161515146113ed576040517f08c379a00000000000000000000000000000000000000000000000000000000081526004016113e49061367a565b60405180910390fd5b600084905060026040518060a001604052808581526020016001878154811061141957611418613372565b5b90600052602060002090600d020160090154815260200160001515815260200142815260200161150e604051806060016040528060278152602001613d06602791396001898154811061146f5761146e613372565b5b90600052602060002090600d0201600401805461148b906133d0565b80601f01602080910402602001604051908101604052809291908181526020018280546114b7906133d0565b80156115045780601f106114d957610100808354040283529160200191611504565b820191906000526020600020905b8154815290600101906020018083116114e757829003601f168201915b50505050506125cb565b81525090806001815401808255809150506001900390600052602060002090600502016000909190919091506000820151816000019080519060200190611556929190612690565b506020820151816001015560408201518160020160006101000a81548160ff0219169083151502179055506060820151816003015560808201518160040190805190602001906115a7929190612690565b5050508073ffffffffffffffffffffffffffffffffffffffff166108fc600186815481106115d8576115d7613372565b5b90600052602060002090600d0201600901549081150290604051600060405180830381858888f19350505050158015611615573d6000803e3d6000fd5b506001848154811061162a57611629613372565b5b90600052602060002090600d0201600901546006600082825461164d919061369a565b9250508190555060026001858154811061166a57611669613372565b5b90600052602060002090600d0201600c0160006101000a81548160ff0219169083600281111561169d5761169c612b4c565b5b021790555060018085815481106116b7576116b6613372565b5b90600052602060002090600d0201600c0160016101000a81548160ff0219169083151502179055503373ffffffffffffffffffffffffffffffffffffffff167faee8e5d3bbb2f71a951b5632cee20f7ac487b9f8ab4f66a236f7694b13af7c6a854260405161172792919061371a565b60405180910390a260019150509392505050565b60006007600083815260200190815260200160002060009054906101000a900460ff1661179d576040517f08c379a000000000000000000000000000000000000000000000000000000000815260040161179490613352565b60405180910390fd5b600182815481106117b1576117b0613372565b5b90600052602060002090600d0201600901549050919050565b60006117d46125f7565b89816020018190525033816000019073ffffffffffffffffffffffffffffffffffffffff16908173ffffffffffffffffffffffffffffffffffffffff1681525050888160400181905250600054816060018181525050878160800181905250868160a00181905250858160c0018181525050848160e001818152505083816101000181815250506000816101200181815250508581610140018181525050828161016001819052506000816101a0019015159081151581525050428511156118cd57600081610180019060028111156118b0576118af612b4c565b5b908160028111156118c4576118c3612b4c565b5b81525050611908565b42851161190757600181610180019060028111156118ee576118ed612b4c565b5b9081600281111561190257611901612b4c565b5b815250505b5b60018190806001815401808255809150506001900390600052602060002090600d020160009091909190915060008201518160000160006101000a81548173ffffffffffffffffffffffffffffffffffffffff021916908373ffffffffffffffffffffffffffffffffffffffff1602179055506020820151816001019080519060200190611997929190612690565b5060408201518160020190805190602001906119b4929190612690565b506060820151816003015560808201518160040190805190602001906119db929190612690565b5060a08201518160050190805190602001906119f8929190612690565b5060c0820151816006015560e082015181600701556101008201518160080155610120820151816009015561014082015181600a015561016082015181600b019080519060200190611a4b929190612690565b5061018082015181600c0160006101000a81548160ff02191690836002811115611a7857611a77612b4c565b5b02179055506101a082015181600c0160016101000a81548160ff02191690831515021790555050506001600760008054815260200190815260200160002060006101000a81548160ff02191690831515021790555080600860003073ffffffffffffffffffffffffffffffffffffffff1673ffffffffffffffffffffffffffffffffffffffff16815260200190815260200160002060008201518160000160006101000a81548173ffffffffffffffffffffffffffffffffffffffff021916908373ffffffffffffffffffffffffffffffffffffffff1602179055506020820151816001019080519060200190611b70929190612690565b506040820151816002019080519060200190611b8d929190612690565b50606082015181600301556080820151816004019080519060200190611bb4929190612690565b5060a0820151816005019080519060200190611bd1929190612690565b5060c0820151816006015560e082015181600701556101008201518160080155610120820151816009015561014082015181600a015561016082015181600b019080519060200190611c24929190612690565b5061018082015181600c0160006101000a81548160ff02191690836002811115611c5157611c50612b4c565b5b02179055506101a082015181600c0160016101000a81548160ff021916908315150217905550905050600160036000016000828254611c909190613756565b925050819055503373ffffffffffffffffffffffffffffffffffffffff167faee8e5d3bbb2f71a951b5632cee20f7ac487b9f8ab4f66a236f7694b13af7c6a600080815480929190611ce190613430565b9190505542604051611cf49291906137f8565b60405180910390a2600191505098975050505050505050565b600080151560018481548110611d2657611d25613372565b5b90600052602060002090600d0201600c0160019054906101000a900460ff16151514611d87576040517f08c379a0000000000000000000000000000000000000000000000000000000008152600401611d7e90613880565b60405180910390fd5b600280811115611d9a57611d99612b4c565b5b60018481548110611dae57611dad613372565b5b90600052602060002090600d0201600c0160009054906101000a900460ff166002811115611ddf57611dde612b4c565b5b03611e1f576040517f08c379a0000000000000000000000000000000000000000000000000000000008152600401611e16906138ec565b60405180910390fd5b60003411611e62576040517f08c379a0000000000000000000000000000000000000000000000000000000008152600401611e5990613958565b60405180910390fd5b6007600084815260200190815260200160002060009054906101000a900460ff16611ec2576040517f08c379a0000000000000000000000000000000000000000000000000000000008152600401611eb990613352565b60405180910390fd5b60018381548110611ed657611ed5613372565b5b90600052602060002090600d020160070154421015611f2a576040517f08c379a0000000000000000000000000000000000000000000000000000000008152600401611f21906139c4565b60405180910390fd5b60018381548110611f3e57611f3d613372565b5b90600052602060002090600d020160080154421115611f92576040517f08c379a0000000000000000000000000000000000000000000000000000000008152600401611f8990613a30565b60405180910390fd5b60018381548110611fa657611fa5613372565b5b90600052602060002090600d02016006015460018481548110611fcc57611fcb613372565b5b90600052602060002090600d020160090154111561201f576040517f08c379a000000000000000000000000000000000000000000000000000000000815260040161201690613ac2565b60405180910390fd5b6001838154811061203357612032613372565b5b90600052602060002090600d020160060154346001858154811061205a57612059613372565b5b90600052602060002090600d0201600901546120769190613756565b11156120b7576040517f08c379a00000000000000000000000000000000000000000000000000000000081526004016120ae90613b54565b60405180910390fd5b61216e600184815481106120ce576120cd613372565b5b90600052602060002090600d020160010180546120ea906133d0565b80601f0160208091040260200160405190810160405280929190818152602001828054612116906133d0565b80156121635780601f1061213857610100808354040283529160200191612163565b820191906000526020600020905b81548152906001019060200180831161214657829003601f168201915b505050505083612572565b156121ae576040517f08c379a00000000000000000000000000000000000000000000000000000000081526004016121a590613be6565b60405180910390fd5b6001600360010160008282546121c49190613756565b9250508190555034600360020160008282546121e09190613756565b9250508190555034600184815481106121fc576121fb613372565b5b90600052602060002090600d0201600901600082825461221c9190613756565b925050819055506001838154811061223757612236613372565b5b90600052602060002090600d0201600901546001848154811061225d5761225c613372565b5b90600052602060002090600d020160060154612279919061369a565b6001848154811061228d5761228c613372565b5b90600052602060002090600d0201600a018190555034600660008282546122b49190613756565b925050819055506009600084815260200190815260200160002060405180606001604052803373ffffffffffffffffffffffffffffffffffffffff16815260200134815260200142815250908060018154018082558091505060019003906000526020600020906003020160009091909190915060008201518160000160006101000a81548173ffffffffffffffffffffffffffffffffffffffff021916908373ffffffffffffffffffffffffffffffffffffffff1602179055506020820151816001015560408201518160020155505060026040518060a0016040528084815260200134815260200160011515815260200142815260200161247c604051806060016040528060238152602001613d2d60239139600188815481106123dd576123dc613372565b5b90600052602060002090600d020160040180546123f9906133d0565b80601f0160208091040260200160405190810160405280929190818152602001828054612425906133d0565b80156124725780601f1061244757610100808354040283529160200191612472565b820191906000526020600020905b81548152906001019060200180831161245557829003601f168201915b50505050506125cb565b815250908060018154018082558091505060019003906000526020600020906005020160009091909190915060008201518160000190805190602001906124c4929190612690565b506020820151816001015560408201518160020160006101000a81548160ff021916908315150217905550606082015181600301556080820151816004019080519060200190612515929190612690565b5050503373ffffffffffffffffffffffffffffffffffffffff167faee8e5d3bbb2f71a951b5632cee20f7ac487b9f8ab4f66a236f7694b13af7c6a8442604051612560929190613c52565b60405180910390a26001905092915050565b6000816040516020016125859190613cca565b60405160208183030381529060405280519060200120836040516020016125ac9190613cca565b6040516020818303038152906040528051906020012014905092915050565b606082826040516020016125e0929190613ce1565b604051602081830303815290604052905092915050565b604051806101c00160405280600073ffffffffffffffffffffffffffffffffffffffff16815260200160608152602001606081526020016000815260200160608152602001606081526020016000815260200160008152602001600081526020016000815260200160008152602001606081526020016000600281111561268157612680612b4c565b5b81526020016000151581525090565b82805461269c906133d0565b90600052602060002090601f0160209004810192826126be5760008555612705565b82601f106126d757805160ff1916838001178555612705565b82800160010185558215612705579182015b828111156127045782518255916020019190600101906126e9565b5b5090506127129190612716565b5090565b5b8082111561272f576000816000905550600101612717565b5090565b6000604051905090565b600080fd5b600080fd5b6000819050919050565b61275a81612747565b811461276557600080fd5b50565b60008135905061277781612751565b92915050565b6000602082840312156127935761279261273d565b5b60006127a184828501612768565b91505092915050565b600081519050919050565b600082825260208201905092915050565b6000819050602082019050919050565b600073ffffffffffffffffffffffffffffffffffffffff82169050919050565b6000612801826127d6565b9050919050565b612811816127f6565b82525050565b61282081612747565b82525050565b60608201600082015161283c6000850182612808565b50602082015161284f6020850182612817565b5060408201516128626040850182612817565b50505050565b60006128748383612826565b60608301905092915050565b6000602082019050919050565b6000612898826127aa565b6128a281856127b5565b93506128ad836127c6565b8060005b838110156128de5781516128c58882612868565b97506128d083612880565b9250506001810190506128b1565b5085935050505092915050565b60006020820190508181036000830152612905818461288d565b905092915050565b61291681612747565b82525050565b6000602082019050612931600083018461290d565b92915050565b600081519050919050565b600082825260208201905092915050565b6000819050602082019050919050565b600081519050919050565b600082825260208201905092915050565b60005b8381101561299d578082015181840152602081019050612982565b838111156129ac576000848401525b50505050565b6000601f19601f8301169050919050565b60006129ce82612963565b6129d8818561296e565b93506129e881856020860161297f565b6129f1816129b2565b840191505092915050565b60008115159050919050565b612a11816129fc565b82525050565b600060a0830160008301518482036000860152612a3482826129c3565b9150506020830151612a496020860182612817565b506040830151612a5c6040860182612a08565b506060830151612a6f6060860182612817565b5060808301518482036080860152612a8782826129c3565b9150508091505092915050565b6000612aa08383612a17565b905092915050565b6000602082019050919050565b6000612ac082612937565b612aca8185612942565b935083602082028501612adc85612953565b8060005b85811015612b185784840389528151612af98582612a94565b9450612b0483612aa8565b925060208a01995050600181019050612ae0565b50829750879550505050505092915050565b60006020820190508181036000830152612b448184612ab5565b905092915050565b7f4e487b7100000000000000000000000000000000000000000000000000000000600052602160045260246000fd5b60038110612b8c57612b8b612b4c565b5b50565b6000819050612b9d82612b7b565b919050565b6000612bad82612b8f565b9050919050565b612bbd81612ba2565b82525050565b60006101c083016000830151612bdc6000860182612808565b5060208301518482036020860152612bf482826129c3565b91505060408301518482036040860152612c0e82826129c3565b9150506060830151612c236060860182612817565b5060808301518482036080860152612c3b82826129c3565b91505060a083015184820360a0860152612c5582826129c3565b91505060c0830151612c6a60c0860182612817565b5060e0830151612c7d60e0860182612817565b50610100830151612c92610100860182612817565b50610120830151612ca7610120860182612817565b50610140830151612cbc610140860182612817565b50610160830151848203610160860152612cd682826129c3565b915050610180830151612ced610180860182612bb4565b506101a0830151612d026101a0860182612a08565b508091505092915050565b60006020820190508181036000830152612d278184612bc3565b905092915050565b600081519050919050565b600082825260208201905092915050565b6000819050602082019050919050565b60006101c083016000830151612d746000860182612808565b5060208301518482036020860152612d8c82826129c3565b91505060408301518482036040860152612da682826129c3565b9150506060830151612dbb6060860182612817565b5060808301518482036080860152612dd382826129c3565b91505060a083015184820360a0860152612ded82826129c3565b91505060c0830151612e0260c0860182612817565b5060e0830151612e1560e0860182612817565b50610100830151612e2a610100860182612817565b50610120830151612e3f610120860182612817565b50610140830151612e54610140860182612817565b50610160830151848203610160860152612e6e82826129c3565b915050610180830151612e85610180860182612bb4565b506101a0830151612e9a6101a0860182612a08565b508091505092915050565b6000612eb18383612d5b565b905092915050565b6000602082019050919050565b6000612ed182612d2f565b612edb8185612d3a565b935083602082028501612eed85612d4b565b8060005b85811015612f295784840389528151612f0a8582612ea5565b9450612f1583612eb9565b925060208a01995050600181019050612ef1565b50829750879550505050505092915050565b60006020820190508181036000830152612f558184612ec6565b905092915050565b612f66816127f6565b8114612f7157600080fd5b50565b600081359050612f8381612f5d565b92915050565b600080fd5b600080fd5b7f4e487b7100000000000000000000000000000000000000000000000000000000600052604160045260246000fd5b612fcb826129b2565b810181811067ffffffffffffffff82111715612fea57612fe9612f93565b5b80604052505050565b6000612ffd612733565b90506130098282612fc2565b919050565b600067ffffffffffffffff82111561302957613028612f93565b5b613032826129b2565b9050602081019050919050565b82818337600083830152505050565b600061306161305c8461300e565b612ff3565b90508281526020810184848401111561307d5761307c612f8e565b5b61308884828561303f565b509392505050565b600082601f8301126130a5576130a4612f89565b5b81356130b584826020860161304e565b91505092915050565b6000806000606084860312156130d7576130d661273d565b5b60006130e586828701612f74565b93505060206130f686828701612768565b925050604084013567ffffffffffffffff81111561311757613116612742565b5b61312386828701613090565b9150509250925092565b613136816129fc565b82525050565b6000602082019050613151600083018461312d565b92915050565b600080600080600080600080610100898b0312156131785761317761273d565b5b600089013567ffffffffffffffff81111561319657613195612742565b5b6131a28b828c01613090565b985050602089013567ffffffffffffffff8111156131c3576131c2612742565b5b6131cf8b828c01613090565b975050604089013567ffffffffffffffff8111156131f0576131ef612742565b5b6131fc8b828c01613090565b965050606089013567ffffffffffffffff81111561321d5761321c612742565b5b6132298b828c01613090565b955050608061323a8b828c01612768565b94505060a061324b8b828c01612768565b93505060c061325c8b828c01612768565b92505060e089013567ffffffffffffffff81111561327d5761327c612742565b5b6132898b828c01613090565b9150509295985092959890939650565b600080604083850312156132b0576132af61273d565b5b60006132be85828601612768565b925050602083013567ffffffffffffffff8111156132df576132de612742565b5b6132eb85828601613090565b9150509250929050565b600082825260208201905092915050565b7f43616d706169676e206e6f7420666f756e642e00000000000000000000000000600082015250565b600061333c6013836132f5565b915061334782613306565b602082019050919050565b6000602082019050818103600083015261336b8161332f565b9050919050565b7f4e487b7100000000000000000000000000000000000000000000000000000000600052603260045260246000fd5b7f4e487b7100000000000000000000000000000000000000000000000000000000600052602260045260246000fd5b600060028204905060018216806133e857607f821691505b6020821081036133fb576133fa6133a1565b5b50919050565b7f4e487b7100000000000000000000000000000000000000000000000000000000600052601160045260246000fd5b600061343b82612747565b91507fffffffffffffffffffffffffffffffffffffffffffffffffffffffffffffffff820361346d5761346c613401565b5b600182019050919050565b7f4f6e6c79206372656174656f722063616e2077697468647261772066756e647360008201527f2c2063726561746f72206164647265737320646f65736e2774206d617463682e602082015250565b60006134d46040836132f5565b91506134df82613478565b604082019050919050565b60006020820190508181036000830152613503816134c7565b9050919050565b7f4f6e6c792063726561746f722063616e2077697468647261772066756e64732c60008201527f2075736572496420646f65736e2774206d617463682e00000000000000000000602082015250565b60006135666036836132f5565b91506135718261350a565b604082019050919050565b6000602082019050818103600083015261359581613559565b9050919050565b7f4e6f7420656e6f7567682062616c616e636520746f2077697468647261772e00600082015250565b60006135d2601f836132f5565b91506135dd8261359c565b602082019050919050565b60006020820190508181036000830152613601816135c5565b9050919050565b7f46756e6473206f6620746869732063616d706169676e20616c7265616479207760008201527f697468647261776e2e0000000000000000000000000000000000000000000000602082015250565b60006136646029836132f5565b915061366f82613608565b604082019050919050565b6000602082019050818103600083015261369381613657565b9050919050565b60006136a582612747565b91506136b083612747565b9250828210156136c3576136c2613401565b5b828203905092915050565b7f43616d706169676e20436f6d706c657465640000000000000000000000000000600082015250565b60006137046012836132f5565b915061370f826136ce565b602082019050919050565b600060608201905061372f600083018561290d565b8181036020830152613740816136f7565b905061374f604083018461290d565b9392505050565b600061376182612747565b915061376c83612747565b9250827fffffffffffffffffffffffffffffffffffffffffffffffffffffffffffffffff038211156137a1576137a0613401565b5b828201905092915050565b7f43616d706169676e204372656174656400000000000000000000000000000000600082015250565b60006137e26010836132f5565b91506137ed826137ac565b602082019050919050565b600060608201905061380d600083018561290d565b818103602083015261381e816137d5565b905061382d604083018461290d565b9392505050565b7f43616d706169676e2068617320636c6f7365642e000000000000000000000000600082015250565b600061386a6014836132f5565b915061387582613834565b602082019050919050565b600060208201905081810360008301526138998161385d565b9050919050565b7f43616d706169676e2068617320636f6d706c657465642e000000000000000000600082015250565b60006138d66017836132f5565b91506138e1826138a0565b602082019050919050565b60006020820190508181036000830152613905816138c9565b9050919050565b7f4574686572206d7573742062652067726561746572207468616e207a65726f2e600082015250565b60006139426020836132f5565b915061394d8261390c565b602082019050919050565b6000602082019050818103600083015261397181613935565b9050919050565b7f4e6f742073746172746564207965742e00000000000000000000000000000000600082015250565b60006139ae6010836132f5565b91506139b982613978565b602082019050919050565b600060208201905081810360008301526139dd816139a1565b9050919050565b7f446561646c696e6520686173207061737365642e000000000000000000000000600082015250565b6000613a1a6014836132f5565b9150613a25826139e4565b602082019050919050565b60006020820190508181036000830152613a4981613a0d565b9050919050565b7f5461726765742066756e647320686173207261697365642c20796f752063616e60008201527f277420646f6e617465206e6f772e000000000000000000000000000000000000602082015250565b6000613aac602e836132f5565b9150613ab782613a50565b604082019050919050565b60006020820190508181036000830152613adb81613a9f565b9050919050565b7f43616e277420646f6e617465207468697320616d6d6f756e742c20706c65617360008201527f652074727920616761696e2e0000000000000000000000000000000000000000602082015250565b6000613b3e602c836132f5565b9150613b4982613ae2565b604082019050919050565b60006020820190508181036000830152613b6d81613b31565b9050919050565b7f43726561746f722063616e27742066756e647320686973206f776e2063616d7060008201527f6169676e2e000000000000000000000000000000000000000000000000000000602082015250565b6000613bd06025836132f5565b9150613bdb82613b74565b604082019050919050565b60006020820190508181036000830152613bff81613bc3565b9050919050565b7f46756e647320446f6e6174656420666f722043616d706169676e000000000000600082015250565b6000613c3c601a836132f5565b9150613c4782613c06565b602082019050919050565b6000606082019050613c67600083018561290d565b8181036020830152613c7881613c2f565b9050613c87604083018461290d565b9392505050565b600081905092915050565b6000613ca482612963565b613cae8185613c8e565b9350613cbe81856020860161297f565b80840191505092915050565b6000613cd68284613c99565b915081905092915050565b6000613ced8285613c99565b9150613cf98284613c99565b9150819050939250505056fe57697468647261772066756e64732066726f6d2063616d706169676e207469746c656420617320446f6e6174652066756e647320746f2063616d706169676e207469746c656420617320a26469706673582212203b6e6f33c8339324edd8a3246851b7685c914b20b85a42f0fd0214eb1f25b54564736f6c634300080d0033",
  "immutableReferences": {},
  "source": "//SPDX-License-Identifier: MIT\npragma solidity ^0.8.7;\n\ncontract Campaign {\n    enum statusEnum {\n        Scheduled,\n        Ongoing,\n        Completed\n    }\n\n    event Action(\n        uint256 campaignId,\n        string actionType,\n        address indexed executor,\n        uint256 timestamp\n    );\n\n    struct funderStruct {\n        address funder;\n        uint contribution;\n        uint timestamp;\n    }\n\n    struct statsStruct {\n        uint totalCampaigns;\n        uint totalFunding;\n        uint totalDonation;\n    }\n\n    struct campaignStructre {\n        address creator;\n        string userId;\n        string categoryId;\n        uint256 campaignId;\n        string title;\n        string description;\n        uint256 targetFunds;\n        uint256 startTime;\n        uint256 deadline;\n        uint256 raisedFunds;\n        uint256 remainingFunds;\n        string imageURL;\n        statusEnum status;\n        bool isWithdraw;\n    }\n\n    // address campaignCreator;\n    uint campaignsCount;\n    campaignStructre[] campaigns;\n    userStatsStruct[] userStats;\n    statsStruct stats;\n    uint public contractBalance;\n\n    mapping(uint => bool) campaignExist;\n    mapping(address => campaignStructre) campaignsOf;\n    mapping(uint => funderStruct[]) fundersOf;\n\n    function createCampaign(\n        string memory userId,\n        string memory categoryId,\n        string memory title,\n        string memory description,\n        uint256 targetFunds,\n        uint256 startTime,\n        uint256 deadline,\n        string memory imageURL\n    ) public returns (bool) {\n        campaignStructre memory campaign;\n\n        campaign.userId = userId;\n        campaign.creator = msg.sender;\n        campaign.categoryId = categoryId;\n        campaign.campaignId = campaignsCount;\n        campaign.title = title;\n        campaign.description = description;\n        campaign.targetFunds = targetFunds;\n        campaign.startTime = startTime;\n        campaign.deadline = deadline;\n        campaign.raisedFunds = 0;\n        campaign.remainingFunds = targetFunds;\n        campaign.imageURL = imageURL;\n        campaign.isWithdraw = false;\n\n        if (startTime > block.timestamp) {\n            campaign.status = statusEnum.Scheduled;\n        } else if (startTime <= block.timestamp) {\n            campaign.status = statusEnum.Ongoing;\n        }\n\n        campaigns.push(campaign);\n        campaignExist[campaignsCount] = true;\n        campaignsOf[address(this)] = campaign;\n        stats.totalCampaigns += 1;\n\n        emit Action(\n            campaignsCount++,\n            \"Campaign Created\",\n            msg.sender,\n            block.timestamp\n        );\n        return true;\n    }\n\n    function donateFunds(\n        uint campaignId,\n        string memory userId\n    ) public payable returns (bool) {\n        require(\n            campaigns[campaignId].isWithdraw == false,\n            \"Campaign has closed.\"\n        );\n        require(\n            campaigns[campaignId].status != statusEnum.Completed,\n            \"Campaign has completed.\"\n        );\n        require(msg.value > 0 ether, \"Ether must be greater than zero.\");\n        require(campaignExist[campaignId], \"Campaign not found.\");\n        require(\n            block.timestamp >= campaigns[campaignId].startTime,\n            \"Not started yet.\"\n        );\n        require(\n            block.timestamp <= campaigns[campaignId].deadline,\n            \"Deadline has passed.\"\n        );\n\n        require(\n            campaigns[campaignId].raisedFunds <=\n                campaigns[campaignId].targetFunds,\n            \"Target funds has raised, you can't donate now.\"\n        );\n        require(\n            campaigns[campaignId].raisedFunds + msg.value <=\n                campaigns[campaignId].targetFunds,\n            \"Can't donate this ammount, please try again.\"\n        );\n\n        require(\n            !compareStrings(campaigns[campaignId].userId, userId),\n            \"Creator can't funds his own campaign.\"\n        );\n\n        stats.totalFunding += 1;\n        stats.totalDonation += msg.value;\n\n        campaigns[campaignId].raisedFunds += msg.value;\n        campaigns[campaignId].remainingFunds =\n            campaigns[campaignId].targetFunds -\n            campaigns[campaignId].raisedFunds;\n\n        contractBalance += msg.value;\n\n        fundersOf[campaignId].push(\n            funderStruct(msg.sender, msg.value, block.timestamp)\n        );\n\n        userStats.push(\n            userStatsStruct(\n                userId,\n                msg.value,\n                true,\n                block.timestamp,\n                concatenateStrings(\n                    \"Donate funds to campaign titled as \",\n                    campaigns[campaignId].title\n                )\n            )\n        );\n\n        emit Action(\n            campaignId,\n            \"Funds Donated for Campaign\",\n            msg.sender,\n            block.timestamp\n        );\n        return true;\n    }\n\n    function concatenateStrings(\n        string memory str1,\n        string memory str2\n    ) private pure returns (string memory) {\n        return string(abi.encodePacked(str1, str2));\n    }\n\n    struct userStatsStruct {\n        string userId;\n        uint contribution;\n        bool isFundsDonating;\n        uint timestamp;\n        string description;\n    }\n\n    function getCampaignFunders(\n        uint id\n    ) public view returns (funderStruct[] memory) {\n        return fundersOf[id];\n    }\n\n    function getUserStats() public view returns (userStatsStruct[] memory) {\n        return userStats;\n    }\n\n    function getCampaign(uint id) public returns (campaignStructre memory) {\n        require(campaignExist[id], \"Campaign not found.\");\n\n        if (campaigns[id].startTime > block.timestamp) {\n            campaigns[id].status = statusEnum.Scheduled;\n        }\n        if (campaigns[id].startTime <= block.timestamp) {\n            campaigns[id].status = statusEnum.Ongoing;\n        }\n        if (campaigns[id].deadline < block.timestamp) {\n            campaigns[id].status = statusEnum.Completed;\n        }\n\n        return campaigns[id];\n    }\n\n    function getAllCampaigns() public returns (campaignStructre[] memory) {\n        for (uint256 i = 0; i < campaigns.length; i++) {\n            if (campaigns[i].startTime > block.timestamp) {\n                campaigns[i].status = statusEnum.Scheduled;\n            }\n            if (campaigns[i].startTime <= block.timestamp) {\n                campaigns[i].status = statusEnum.Ongoing;\n            }\n            if (campaigns[i].deadline < block.timestamp) {\n                campaigns[i].status = statusEnum.Completed;\n            }\n        }\n\n        return campaigns;\n    }\n\n    function getRaisedFunds(uint id) public view returns (uint256) {\n        require(campaignExist[id], \"Campaign not found.\");\n\n        return campaigns[id].raisedFunds;\n    }\n\n    function getRemainingFunds(uint id) public view returns (uint256) {\n        require(campaignExist[id], \"Campaign not found.\");\n\n        return campaigns[id].remainingFunds;\n    }\n\n    function withdrawFunds(\n        address ownerAddress,\n        uint campaignId,\n        string memory userId\n    ) public returns (bool) {\n        require(\n            ownerAddress == campaigns[campaignId].creator,\n            \"Only createor can withdraw funds, creator address doesn't match.\"\n        );\n        require(\n            compareStrings(campaigns[campaignId].userId, userId),\n            \"Only creator can withdraw funds, userId doesn't match.\"\n        );\n        require(\n            campaigns[campaignId].raisedFunds > 0,\n            \"Not enough balance to withdraw.\"\n        );\n        require(\n            campaigns[campaignId].isWithdraw == false,\n            \"Funds of this campaign already withdrawn.\"\n        );\n\n        address payable owner = payable(ownerAddress);\n\n        userStats.push(\n            userStatsStruct(\n                userId,\n                campaigns[campaignId].raisedFunds,\n                false,\n                block.timestamp,\n                concatenateStrings(\n                    \"Withdraw funds from campaign titled as \",\n                    campaigns[campaignId].title\n                )\n            )\n        );\n\n        owner.transfer(campaigns[campaignId].raisedFunds);\n\n        contractBalance -= campaigns[campaignId].raisedFunds;\n\n        campaigns[campaignId].status = statusEnum.Completed;\n        campaigns[campaignId].isWithdraw = true;\n\n        emit Action(\n            campaignId,\n            \"Campaign Completed\",\n            msg.sender,\n            block.timestamp\n        );\n\n        return true;\n    }\n\n    function compareStrings(\n        string memory a,\n        string memory b\n    ) private pure returns (bool) {\n        return keccak256(abi.encodePacked(a)) == keccak256(abi.encodePacked(b));\n    }\n}\n",
  "sourcePath": "/Users/ali/Projects/FYP/helping-hands-apis/contracts/Campaign.sol",
  "compiler": {
    "name": "solc",
    "version": "0.8.13+commit.abaa5c0e.Emscripten.clang"
  },
  "schemaVersion": "3.4.11",
  "updatedAt": "2023-05-18T11:13:16.100Z",
  "networkType": "ethereum",
  "devdoc": {
    "kind": "dev",
    "methods": {},
    "version": 1
  },
  "userdoc": {
    "kind": "user",
    "methods": {},
    "version": 1
  }
}