{
  "contractName": "Campaign",
  "abi": [
    {
      "inputs": [
        {
          "internalType": "uint256",
          "name": "",
          "type": "uint256"
        }
      ],
      "name": "campaignExist",
      "outputs": [
        {
          "internalType": "bool",
          "name": "",
          "type": "bool"
        }
      ],
      "stateMutability": "view",
      "type": "function",
      "constant": true
    },
    {
      "inputs": [],
      "name": "campaignsCount",
      "outputs": [
        {
          "internalType": "uint256",
          "name": "",
          "type": "uint256"
        }
      ],
      "stateMutability": "view",
      "type": "function",
      "constant": true
    },
    {
      "inputs": [
        {
          "internalType": "address",
          "name": "",
          "type": "address"
        }
      ],
      "name": "campaignsOf",
      "outputs": [
        {
          "internalType": "address",
          "name": "creator",
          "type": "address"
        },
        {
          "internalType": "string",
          "name": "userId",
          "type": "string"
        },
        {
          "internalType": "string",
          "name": "categoryId",
          "type": "string"
        },
        {
          "internalType": "uint256",
          "name": "campaignId",
          "type": "uint256"
        },
        {
          "internalType": "string",
          "name": "title",
          "type": "string"
        },
        {
          "internalType": "string",
          "name": "description",
          "type": "string"
        },
        {
          "internalType": "uint256",
          "name": "targetFunds",
          "type": "uint256"
        },
        {
          "internalType": "uint256",
          "name": "deadline",
          "type": "uint256"
        },
        {
          "internalType": "uint256",
          "name": "raisedFunds",
          "type": "uint256"
        },
        {
          "internalType": "uint256",
          "name": "remainingFunds",
          "type": "uint256"
        },
        {
          "internalType": "string",
          "name": "imageURL",
          "type": "string"
        },
        {
          "internalType": "bool",
          "name": "isOpened",
          "type": "bool"
        }
      ],
      "stateMutability": "view",
      "type": "function",
      "constant": true
    },
    {
      "inputs": [],
      "name": "contractBalance",
      "outputs": [
        {
          "internalType": "uint256",
          "name": "",
          "type": "uint256"
        }
      ],
      "stateMutability": "view",
      "type": "function",
      "constant": true
    },
    {
      "inputs": [],
      "name": "stats",
      "outputs": [
        {
          "internalType": "uint256",
          "name": "totalCampaigns",
          "type": "uint256"
        },
        {
          "internalType": "uint256",
          "name": "totalFunding",
          "type": "uint256"
        },
        {
          "internalType": "uint256",
          "name": "totalDonation",
          "type": "uint256"
        }
      ],
      "stateMutability": "view",
      "type": "function",
      "constant": true
    },
    {
      "inputs": [
        {
          "internalType": "string",
          "name": "userId",
          "type": "string"
        },
        {
          "internalType": "string",
          "name": "categoryId",
          "type": "string"
        },
        {
          "internalType": "string",
          "name": "title",
          "type": "string"
        },
        {
          "internalType": "string",
          "name": "description",
          "type": "string"
        },
        {
          "internalType": "uint256",
          "name": "targetFunds",
          "type": "uint256"
        },
        {
          "internalType": "uint256",
          "name": "deadline",
          "type": "uint256"
        },
        {
          "internalType": "string",
          "name": "imageURL",
          "type": "string"
        }
      ],
      "name": "createCampaign",
      "outputs": [],
      "stateMutability": "nonpayable",
      "type": "function"
    },
    {
      "inputs": [
        {
          "internalType": "uint256",
          "name": "campaignId",
          "type": "uint256"
        },
        {
          "internalType": "string",
          "name": "title",
          "type": "string"
        },
        {
          "internalType": "string",
          "name": "description",
          "type": "string"
        },
        {
          "internalType": "string",
          "name": "imageURL",
          "type": "string"
        },
        {
          "internalType": "address",
          "name": "creater",
          "type": "address"
        }
      ],
      "name": "updateCampaign",
      "outputs": [],
      "stateMutability": "nonpayable",
      "type": "function"
    },
    {
      "inputs": [
        {
          "internalType": "uint256",
          "name": "id",
          "type": "uint256"
        }
      ],
      "name": "donateFunds",
      "outputs": [],
      "stateMutability": "payable",
      "type": "function",
      "payable": true
    },
    {
      "inputs": [
        {
          "internalType": "uint256",
          "name": "id",
          "type": "uint256"
        }
      ],
      "name": "getCampaign",
      "outputs": [
        {
          "components": [
            {
              "internalType": "address",
              "name": "creator",
              "type": "address"
            },
            {
              "internalType": "string",
              "name": "userId",
              "type": "string"
            },
            {
              "internalType": "string",
              "name": "categoryId",
              "type": "string"
            },
            {
              "internalType": "uint256",
              "name": "campaignId",
              "type": "uint256"
            },
            {
              "internalType": "string",
              "name": "title",
              "type": "string"
            },
            {
              "internalType": "string",
              "name": "description",
              "type": "string"
            },
            {
              "internalType": "uint256",
              "name": "targetFunds",
              "type": "uint256"
            },
            {
              "internalType": "uint256",
              "name": "deadline",
              "type": "uint256"
            },
            {
              "internalType": "uint256",
              "name": "raisedFunds",
              "type": "uint256"
            },
            {
              "internalType": "uint256",
              "name": "remainingFunds",
              "type": "uint256"
            },
            {
              "internalType": "string",
              "name": "imageURL",
              "type": "string"
            },
            {
              "internalType": "bool",
              "name": "isOpened",
              "type": "bool"
            }
          ],
          "internalType": "struct Campaign.campaignStructre",
          "name": "",
          "type": "tuple"
        }
      ],
      "stateMutability": "view",
      "type": "function",
      "constant": true
    },
    {
      "inputs": [],
      "name": "getAllCampaigns",
      "outputs": [
        {
          "components": [
            {
              "internalType": "address",
              "name": "creator",
              "type": "address"
            },
            {
              "internalType": "string",
              "name": "userId",
              "type": "string"
            },
            {
              "internalType": "string",
              "name": "categoryId",
              "type": "string"
            },
            {
              "internalType": "uint256",
              "name": "campaignId",
              "type": "uint256"
            },
            {
              "internalType": "string",
              "name": "title",
              "type": "string"
            },
            {
              "internalType": "string",
              "name": "description",
              "type": "string"
            },
            {
              "internalType": "uint256",
              "name": "targetFunds",
              "type": "uint256"
            },
            {
              "internalType": "uint256",
              "name": "deadline",
              "type": "uint256"
            },
            {
              "internalType": "uint256",
              "name": "raisedFunds",
              "type": "uint256"
            },
            {
              "internalType": "uint256",
              "name": "remainingFunds",
              "type": "uint256"
            },
            {
              "internalType": "string",
              "name": "imageURL",
              "type": "string"
            },
            {
              "internalType": "bool",
              "name": "isOpened",
              "type": "bool"
            }
          ],
          "internalType": "struct Campaign.campaignStructre[]",
          "name": "",
          "type": "tuple[]"
        }
      ],
      "stateMutability": "view",
      "type": "function",
      "constant": true
    },
    {
      "inputs": [
        {
          "internalType": "uint256",
          "name": "id",
          "type": "uint256"
        }
      ],
      "name": "getRaisedFunds",
      "outputs": [
        {
          "internalType": "uint256",
          "name": "",
          "type": "uint256"
        }
      ],
      "stateMutability": "view",
      "type": "function",
      "constant": true
    },
    {
      "inputs": [
        {
          "internalType": "uint256",
          "name": "id",
          "type": "uint256"
        }
      ],
      "name": "getRemainingFunds",
      "outputs": [
        {
          "internalType": "uint256",
          "name": "",
          "type": "uint256"
        }
      ],
      "stateMutability": "view",
      "type": "function",
      "constant": true
    },
    {
      "inputs": [
        {
          "internalType": "address",
          "name": "ownerAddress",
          "type": "address"
        },
        {
          "internalType": "uint256",
          "name": "id",
          "type": "uint256"
        }
      ],
      "name": "withdrawFunds",
      "outputs": [],
      "stateMutability": "nonpayable",
      "type": "function"
    }
  ],
  "bytecode": "0x608060405234801561001057600080fd5b50612db7806100206000396000f3fe6080604052600436106100c25760003560e01c80638b7afe2e1161007f578063c7d7aa0d11610059578063c7d7aa0d14610285578063d32521a0146102c2578063d80528ae146102de578063dfa8a3811461030b576100c2565b80638b7afe2e14610208578063c062a1c614610233578063c10753291461025c576100c2565b806344c89b65146100c757806350fadbe0146100f2578063549a7a351461012f5780635598f8cc146101585780637a99574a1461019557806386cdf604146101dd575b600080fd5b3480156100d357600080fd5b506100dc610348565b6040516100e99190611ded565b60405180910390f35b3480156100fe57600080fd5b5061011960048036038101906101149190611e48565b61034e565b6040516101269190611ded565b60405180910390f35b34801561013b57600080fd5b5061015660048036038101906101519190611fbb565b6103dd565b005b34801561016457600080fd5b5061017f600480360381019061017a9190611e48565b61080f565b60405161018c91906122fc565b60405180910390f35b3480156101a157600080fd5b506101bc60048036038101906101b7919061234a565b610c29565b6040516101d49c9b9a999897969594939291906123df565b60405180910390f35b3480156101e957600080fd5b506101f2610f5e565b6040516101ff919061269e565b60405180910390f35b34801561021457600080fd5b5061021d61133b565b60405161022a9190611ded565b60405180910390f35b34801561023f57600080fd5b5061025a600480360381019061025591906126c0565b611341565b005b34801561026857600080fd5b50610283600480360381019061027e919061278f565b61151b565b005b34801561029157600080fd5b506102ac60048036038101906102a79190611e48565b611775565b6040516102b99190611ded565b60405180910390f35b6102dc60048036038101906102d79190611e48565b611804565b005b3480156102ea57600080fd5b506102f3611c80565b604051610302939291906127cf565b60405180910390f35b34801561031757600080fd5b50610332600480360381019061032d9190611e48565b611c98565b60405161033f9190612806565b60405180910390f35b60015481565b60006007600083815260200190815260200160002060009054906101000a900460ff166103b0576040517f08c379a00000000000000000000000000000000000000000000000000000000081526004016103a79061286d565b60405180910390fd5b600282815481106103c4576103c361288d565b5b90600052602060002090600c0201600901549050919050565b336000806101000a81548173ffffffffffffffffffffffffffffffffffffffff021916908373ffffffffffffffffffffffffffffffffffffffff160217905550610425611cb8565b87816020018190525033816000019073ffffffffffffffffffffffffffffffffffffffff16908173ffffffffffffffffffffffffffffffffffffffff1681525050868160400181905250600154816060018181525050858160800181905250848160a00181905250838160c0018181525050828160e001818152505060008161010001818152505083816101200181815250508181610140018190525060018161016001901515908115158152505060028190806001815401808255809150506001900390600052602060002090600c020160009091909190915060008201518160000160006101000a81548173ffffffffffffffffffffffffffffffffffffffff021916908373ffffffffffffffffffffffffffffffffffffffff1602179055506020820151816001019080519060200190610563929190611d31565b506040820151816002019080519060200190610580929190611d31565b506060820151816003015560808201518160040190805190602001906105a7929190611d31565b5060a08201518160050190805190602001906105c4929190611d31565b5060c0820151816006015560e082015181600701556101008201518160080155610120820151816009015561014082015181600a01908051906020019061060c929190611d31565b5061016082015181600b0160006101000a81548160ff0219169083151502179055505050600160076000600154815260200190815260200160002060006101000a81548160ff02191690831515021790555080600860003073ffffffffffffffffffffffffffffffffffffffff1673ffffffffffffffffffffffffffffffffffffffff16815260200190815260200160002060008201518160000160006101000a81548173ffffffffffffffffffffffffffffffffffffffff021916908373ffffffffffffffffffffffffffffffffffffffff1602179055506020820151816001019080519060200190610701929190611d31565b50604082015181600201908051906020019061071e929190611d31565b50606082015181600301556080820151816004019080519060200190610745929190611d31565b5060a0820151816005019080519060200190610762929190611d31565b5060c0820151816006015560e082015181600701556101008201518160080155610120820151816009015561014082015181600a0190805190602001906107aa929190611d31565b5061016082015181600b0160006101000a81548160ff0219169083151502179055509050506001600360000160008282546107e591906128eb565b9250508190555060018060008282546107fe91906128eb565b925050819055505050505050505050565b610817611cb8565b6007600083815260200190815260200160002060009054906101000a900460ff16610877576040517f08c379a000000000000000000000000000000000000000000000000000000000815260040161086e9061286d565b60405180910390fd5b6002828154811061088b5761088a61288d565b5b90600052602060002090600c0201604051806101800160405290816000820160009054906101000a900473ffffffffffffffffffffffffffffffffffffffff1673ffffffffffffffffffffffffffffffffffffffff1673ffffffffffffffffffffffffffffffffffffffff16815260200160018201805461090b90612970565b80601f016020809104026020016040519081016040528092919081815260200182805461093790612970565b80156109845780601f1061095957610100808354040283529160200191610984565b820191906000526020600020905b81548152906001019060200180831161096757829003601f168201915b5050505050815260200160028201805461099d90612970565b80601f01602080910402602001604051908101604052809291908181526020018280546109c990612970565b8015610a165780601f106109eb57610100808354040283529160200191610a16565b820191906000526020600020905b8154815290600101906020018083116109f957829003601f168201915b5050505050815260200160038201548152602001600482018054610a3990612970565b80601f0160208091040260200160405190810160405280929190818152602001828054610a6590612970565b8015610ab25780601f10610a8757610100808354040283529160200191610ab2565b820191906000526020600020905b815481529060010190602001808311610a9557829003601f168201915b50505050508152602001600582018054610acb90612970565b80601f0160208091040260200160405190810160405280929190818152602001828054610af790612970565b8015610b445780601f10610b1957610100808354040283529160200191610b44565b820191906000526020600020905b815481529060010190602001808311610b2757829003601f168201915b5050505050815260200160068201548152602001600782015481526020016008820154815260200160098201548152602001600a82018054610b8590612970565b80601f0160208091040260200160405190810160405280929190818152602001828054610bb190612970565b8015610bfe5780601f10610bd357610100808354040283529160200191610bfe565b820191906000526020600020905b815481529060010190602001808311610be157829003601f168201915b50505050508152602001600b820160009054906101000a900460ff1615151515815250509050919050565b60086020528060005260406000206000915090508060000160009054906101000a900473ffffffffffffffffffffffffffffffffffffffff1690806001018054610c7290612970565b80601f0160208091040260200160405190810160405280929190818152602001828054610c9e90612970565b8015610ceb5780601f10610cc057610100808354040283529160200191610ceb565b820191906000526020600020905b815481529060010190602001808311610cce57829003601f168201915b505050505090806002018054610d0090612970565b80601f0160208091040260200160405190810160405280929190818152602001828054610d2c90612970565b8015610d795780601f10610d4e57610100808354040283529160200191610d79565b820191906000526020600020905b815481529060010190602001808311610d5c57829003601f168201915b505050505090806003015490806004018054610d9490612970565b80601f0160208091040260200160405190810160405280929190818152602001828054610dc090612970565b8015610e0d5780601f10610de257610100808354040283529160200191610e0d565b820191906000526020600020905b815481529060010190602001808311610df057829003601f168201915b505050505090806005018054610e2290612970565b80601f0160208091040260200160405190810160405280929190818152602001828054610e4e90612970565b8015610e9b5780601f10610e7057610100808354040283529160200191610e9b565b820191906000526020600020905b815481529060010190602001808311610e7e57829003601f168201915b50505050509080600601549080600701549080600801549080600901549080600a018054610ec890612970565b80601f0160208091040260200160405190810160405280929190818152602001828054610ef490612970565b8015610f415780601f10610f1657610100808354040283529160200191610f41565b820191906000526020600020905b815481529060010190602001808311610f2457829003601f168201915b50505050509080600b0160009054906101000a900460ff1690508c565b60606002805480602002602001604051908101604052809291908181526020016000905b8282101561133257838290600052602060002090600c0201604051806101800160405290816000820160009054906101000a900473ffffffffffffffffffffffffffffffffffffffff1673ffffffffffffffffffffffffffffffffffffffff1673ffffffffffffffffffffffffffffffffffffffff16815260200160018201805461100c90612970565b80601f016020809104026020016040519081016040528092919081815260200182805461103890612970565b80156110855780601f1061105a57610100808354040283529160200191611085565b820191906000526020600020905b81548152906001019060200180831161106857829003601f168201915b5050505050815260200160028201805461109e90612970565b80601f01602080910402602001604051908101604052809291908181526020018280546110ca90612970565b80156111175780601f106110ec57610100808354040283529160200191611117565b820191906000526020600020905b8154815290600101906020018083116110fa57829003601f168201915b505050505081526020016003820154815260200160048201805461113a90612970565b80601f016020809104026020016040519081016040528092919081815260200182805461116690612970565b80156111b35780601f10611188576101008083540402835291602001916111b3565b820191906000526020600020905b81548152906001019060200180831161119657829003601f168201915b505050505081526020016005820180546111cc90612970565b80601f01602080910402602001604051908101604052809291908181526020018280546111f890612970565b80156112455780601f1061121a57610100808354040283529160200191611245565b820191906000526020600020905b81548152906001019060200180831161122857829003601f168201915b5050505050815260200160068201548152602001600782015481526020016008820154815260200160098201548152602001600a8201805461128690612970565b80601f01602080910402602001604051908101604052809291908181526020018280546112b290612970565b80156112ff5780601f106112d4576101008083540402835291602001916112ff565b820191906000526020600020905b8154815290600101906020018083116112e257829003601f168201915b50505050508152602001600b820160009054906101000a900460ff16151515158152505081526020019060010190610f82565b50505050905090565b60065481565b600285815481106113555761135461288d565b5b90600052602060002090600c0201600b0160009054906101000a900460ff166113b3576040517f08c379a00000000000000000000000000000000000000000000000000000000081526004016113aa906129ed565b60405180910390fd5b600285815481106113c7576113c661288d565b5b90600052602060002090600c020160000160009054906101000a900473ffffffffffffffffffffffffffffffffffffffff1673ffffffffffffffffffffffffffffffffffffffff168173ffffffffffffffffffffffffffffffffffffffff1614611466576040517f08c379a000000000000000000000000000000000000000000000000000000000815260040161145d90612a59565b60405180910390fd5b836002868154811061147b5761147a61288d565b5b90600052602060002090600c0201600401908051906020019061149f929190611d31565b5082600286815481106114b5576114b461288d565b5b90600052602060002090600c020160050190805190602001906114d9929190611d31565b5081600286815481106114ef576114ee61288d565b5b90600052602060002090600c0201600a019080519060200190611513929190611d31565b505050505050565b6002818154811061152f5761152e61288d565b5b90600052602060002090600c0201600b0160009054906101000a900460ff1661158d576040517f08c379a0000000000000000000000000000000000000000000000000000000008152600401611584906129ed565b60405180910390fd5b60008054906101000a900473ffffffffffffffffffffffffffffffffffffffff1673ffffffffffffffffffffffffffffffffffffffff168273ffffffffffffffffffffffffffffffffffffffff161461161b576040517f08c379a000000000000000000000000000000000000000000000000000000000815260040161161290612ac5565b60405180910390fd5b6000600282815481106116315761163061288d565b5b90600052602060002090600c02016008015411611683576040517f08c379a000000000000000000000000000000000000000000000000000000000815260040161167a90612b31565b60405180910390fd5b60008290508073ffffffffffffffffffffffffffffffffffffffff166108fc600284815481106116b6576116b561288d565b5b90600052602060002090600c0201600801549081150290604051600060405180830381858888f193505050501580156116f3573d6000803e3d6000fd5b50600282815481106117085761170761288d565b5b90600052602060002090600c0201600801546006600082825461172b9190612b51565b925050819055506000600283815481106117485761174761288d565b5b90600052602060002090600c0201600b0160006101000a81548160ff021916908315150217905550505050565b60006007600083815260200190815260200160002060009054906101000a900460ff166117d7576040517f08c379a00000000000000000000000000000000000000000000000000000000081526004016117ce9061286d565b60405180910390fd5b600282815481106117eb576117ea61288d565b5b90600052602060002090600c0201600801549050919050565b600281815481106118185761181761288d565b5b90600052602060002090600c0201600b0160009054906101000a900460ff16611876576040517f08c379a000000000000000000000000000000000000000000000000000000000815260040161186d906129ed565b60405180910390fd5b600034116118b9576040517f08c379a00000000000000000000000000000000000000000000000000000000081526004016118b090612bd1565b60405180910390fd5b6007600082815260200190815260200160002060009054906101000a900460ff16611919576040517f08c379a00000000000000000000000000000000000000000000000000000000081526004016119109061286d565b60405180910390fd5b6002818154811061192d5761192c61288d565b5b90600052602060002090600c020160070154421015611981576040517f08c379a000000000000000000000000000000000000000000000000000000000815260040161197890612c3d565b60405180910390fd5b600281815481106119955761199461288d565b5b90600052602060002090600c020160060154600282815481106119bb576119ba61288d565b5b90600052602060002090600c0201600801541115611a0e576040517f08c379a0000000000000000000000000000000000000000000000000000000008152600401611a0590612ccf565b60405180910390fd5b60028181548110611a2257611a2161288d565b5b90600052602060002090600c0201600601543460028381548110611a4957611a4861288d565b5b90600052602060002090600c020160080154611a6591906128eb565b1115611aa6576040517f08c379a0000000000000000000000000000000000000000000000000000000008152600401611a9d90612d61565b60405180910390fd5b600160036001016000828254611abc91906128eb565b925050819055503460036002016000828254611ad891906128eb565b925050819055503460028281548110611af457611af361288d565b5b90600052602060002090600c02016008016000828254611b1491906128eb565b9250508190555060028181548110611b2f57611b2e61288d565b5b90600052602060002090600c02016008015460028281548110611b5557611b5461288d565b5b90600052602060002090600c020160060154611b719190612b51565b60028281548110611b8557611b8461288d565b5b90600052602060002090600c0201600901819055503460066000828254611bac91906128eb565b925050819055506009600082815260200190815260200160002060405180606001604052803373ffffffffffffffffffffffffffffffffffffffff16815260200134815260200142815250908060018154018082558091505060019003906000526020600020906003020160009091909190915060008201518160000160006101000a81548173ffffffffffffffffffffffffffffffffffffffff021916908373ffffffffffffffffffffffffffffffffffffffff1602179055506020820151816001015560408201518160020155505050565b60038060000154908060010154908060020154905083565b60076020528060005260406000206000915054906101000a900460ff1681565b604051806101800160405280600073ffffffffffffffffffffffffffffffffffffffff168152602001606081526020016060815260200160008152602001606081526020016060815260200160008152602001600081526020016000815260200160008152602001606081526020016000151581525090565b828054611d3d90612970565b90600052602060002090601f016020900481019282611d5f5760008555611da6565b82601f10611d7857805160ff1916838001178555611da6565b82800160010185558215611da6579182015b82811115611da5578251825591602001919060010190611d8a565b5b509050611db39190611db7565b5090565b5b80821115611dd0576000816000905550600101611db8565b5090565b6000819050919050565b611de781611dd4565b82525050565b6000602082019050611e026000830184611dde565b92915050565b6000604051905090565b600080fd5b600080fd5b611e2581611dd4565b8114611e3057600080fd5b50565b600081359050611e4281611e1c565b92915050565b600060208284031215611e5e57611e5d611e12565b5b6000611e6c84828501611e33565b91505092915050565b600080fd5b600080fd5b6000601f19601f8301169050919050565b7f4e487b7100000000000000000000000000000000000000000000000000000000600052604160045260246000fd5b611ec882611e7f565b810181811067ffffffffffffffff82111715611ee757611ee6611e90565b5b80604052505050565b6000611efa611e08565b9050611f068282611ebf565b919050565b600067ffffffffffffffff821115611f2657611f25611e90565b5b611f2f82611e7f565b9050602081019050919050565b82818337600083830152505050565b6000611f5e611f5984611f0b565b611ef0565b905082815260208101848484011115611f7a57611f79611e7a565b5b611f85848285611f3c565b509392505050565b600082601f830112611fa257611fa1611e75565b5b8135611fb2848260208601611f4b565b91505092915050565b600080600080600080600060e0888a031215611fda57611fd9611e12565b5b600088013567ffffffffffffffff811115611ff857611ff7611e17565b5b6120048a828b01611f8d565b975050602088013567ffffffffffffffff81111561202557612024611e17565b5b6120318a828b01611f8d565b965050604088013567ffffffffffffffff81111561205257612051611e17565b5b61205e8a828b01611f8d565b955050606088013567ffffffffffffffff81111561207f5761207e611e17565b5b61208b8a828b01611f8d565b945050608061209c8a828b01611e33565b93505060a06120ad8a828b01611e33565b92505060c088013567ffffffffffffffff8111156120ce576120cd611e17565b5b6120da8a828b01611f8d565b91505092959891949750929550565b600073ffffffffffffffffffffffffffffffffffffffff82169050919050565b6000612114826120e9565b9050919050565b61212481612109565b82525050565b600081519050919050565b600082825260208201905092915050565b60005b83811015612164578082015181840152602081019050612149565b83811115612173576000848401525b50505050565b60006121848261212a565b61218e8185612135565b935061219e818560208601612146565b6121a781611e7f565b840191505092915050565b6121bb81611dd4565b82525050565b60008115159050919050565b6121d6816121c1565b82525050565b6000610180830160008301516121f5600086018261211b565b506020830151848203602086015261220d8282612179565b915050604083015184820360408601526122278282612179565b915050606083015161223c60608601826121b2565b50608083015184820360808601526122548282612179565b91505060a083015184820360a086015261226e8282612179565b91505060c083015161228360c08601826121b2565b5060e083015161229660e08601826121b2565b506101008301516122ab6101008601826121b2565b506101208301516122c06101208601826121b2565b506101408301518482036101408601526122da8282612179565b9150506101608301516122f16101608601826121cd565b508091505092915050565b6000602082019050818103600083015261231681846121dc565b905092915050565b61232781612109565b811461233257600080fd5b50565b6000813590506123448161231e565b92915050565b6000602082840312156123605761235f611e12565b5b600061236e84828501612335565b91505092915050565b61238081612109565b82525050565b600082825260208201905092915050565b60006123a28261212a565b6123ac8185612386565b93506123bc818560208601612146565b6123c581611e7f565b840191505092915050565b6123d9816121c1565b82525050565b6000610180820190506123f5600083018f612377565b8181036020830152612407818e612397565b9050818103604083015261241b818d612397565b905061242a606083018c611dde565b818103608083015261243c818b612397565b905081810360a0830152612450818a612397565b905061245f60c0830189611dde565b61246c60e0830188611dde565b61247a610100830187611dde565b612488610120830186611dde565b81810361014083015261249b8185612397565b90506124ab6101608301846123d0565b9d9c50505050505050505050505050565b600081519050919050565b600082825260208201905092915050565b6000819050602082019050919050565b600061018083016000830151612501600086018261211b565b50602083015184820360208601526125198282612179565b915050604083015184820360408601526125338282612179565b915050606083015161254860608601826121b2565b50608083015184820360808601526125608282612179565b91505060a083015184820360a086015261257a8282612179565b91505060c083015161258f60c08601826121b2565b5060e08301516125a260e08601826121b2565b506101008301516125b76101008601826121b2565b506101208301516125cc6101208601826121b2565b506101408301518482036101408601526125e68282612179565b9150506101608301516125fd6101608601826121cd565b508091505092915050565b600061261483836124e8565b905092915050565b6000602082019050919050565b6000612634826124bc565b61263e81856124c7565b935083602082028501612650856124d8565b8060005b8581101561268c578484038952815161266d8582612608565b94506126788361261c565b925060208a01995050600181019050612654565b50829750879550505050505092915050565b600060208201905081810360008301526126b88184612629565b905092915050565b600080600080600060a086880312156126dc576126db611e12565b5b60006126ea88828901611e33565b955050602086013567ffffffffffffffff81111561270b5761270a611e17565b5b61271788828901611f8d565b945050604086013567ffffffffffffffff81111561273857612737611e17565b5b61274488828901611f8d565b935050606086013567ffffffffffffffff81111561276557612764611e17565b5b61277188828901611f8d565b925050608061278288828901612335565b9150509295509295909350565b600080604083850312156127a6576127a5611e12565b5b60006127b485828601612335565b92505060206127c585828601611e33565b9150509250929050565b60006060820190506127e46000830186611dde565b6127f16020830185611dde565b6127fe6040830184611dde565b949350505050565b600060208201905061281b60008301846123d0565b92915050565b7f43616d706169676e206e6f7420666f756e642e00000000000000000000000000600082015250565b6000612857601383612386565b915061286282612821565b602082019050919050565b600060208201905081810360008301526128868161284a565b9050919050565b7f4e487b7100000000000000000000000000000000000000000000000000000000600052603260045260246000fd5b7f4e487b7100000000000000000000000000000000000000000000000000000000600052601160045260246000fd5b60006128f682611dd4565b915061290183611dd4565b9250827fffffffffffffffffffffffffffffffffffffffffffffffffffffffffffffffff03821115612936576129356128bc565b5b828201905092915050565b7f4e487b7100000000000000000000000000000000000000000000000000000000600052602260045260246000fd5b6000600282049050600182168061298857607f821691505b60208210810361299b5761299a612941565b5b50919050565b7f43616d706169676e2068617320636c6f7365642e000000000000000000000000600082015250565b60006129d7601483612386565b91506129e2826129a1565b602082019050919050565b60006020820190508181036000830152612a06816129ca565b9050919050565b7f556e617574686f72697a656420456e746974792e000000000000000000000000600082015250565b6000612a43601483612386565b9150612a4e82612a0d565b602082019050919050565b60006020820190508181036000830152612a7281612a36565b9050919050565b7f4f6e6c7920637265617465722063616e2077697468647261772066756e64732e600082015250565b6000612aaf602083612386565b9150612aba82612a79565b602082019050919050565b60006020820190508181036000830152612ade81612aa2565b9050919050565b7f4e6f7420656e6f7567682062616c616e636520746f2077697468647261772e00600082015250565b6000612b1b601f83612386565b9150612b2682612ae5565b602082019050919050565b60006020820190508181036000830152612b4a81612b0e565b9050919050565b6000612b5c82611dd4565b9150612b6783611dd4565b925082821015612b7a57612b796128bc565b5b828203905092915050565b7f4574686572206d7573742062652067726561746572207468616e207a65726f2e600082015250565b6000612bbb602083612386565b9150612bc682612b85565b602082019050919050565b60006020820190508181036000830152612bea81612bae565b9050919050565b7f446561646c696e6520686173207061737365642e000000000000000000000000600082015250565b6000612c27601483612386565b9150612c3282612bf1565b602082019050919050565b60006020820190508181036000830152612c5681612c1a565b9050919050565b7f5461726765742066756e647320686173207261697365642c20796f752063616e60008201527f277420646f6e617465206e6f772e000000000000000000000000000000000000602082015250565b6000612cb9602e83612386565b9150612cc482612c5d565b604082019050919050565b60006020820190508181036000830152612ce881612cac565b9050919050565b7f43616e277420646f6e617465207468697320616d6d6f756e742c20706c65617360008201527f652074727920616761696e2e0000000000000000000000000000000000000000602082015250565b6000612d4b602c83612386565b9150612d5682612cef565b604082019050919050565b60006020820190508181036000830152612d7a81612d3e565b905091905056fea2646970667358221220f00552c1fe9ac6e492fb62038dcc66793b9cea00da1be4f26f0cc3ead8fdc07264736f6c634300080d0033",
  "immutableReferences": {},
  "source": "//SPDX-License-Identifier: MIT\npragma solidity ^0.8.13;\n\ncontract Campaign {\n    struct funderStruct {\n        address funder;\n        uint contribution;\n        uint timestamp;\n    }\n\n    struct statsStruct {\n        uint totalCampaigns;\n        uint totalFunding;\n        uint totalDonation;\n    }\n\n    struct campaignStructre {\n        address creator;\n        string userId;\n        string categoryId;\n        uint256 campaignId;\n        string title;\n        string description;\n        uint256 targetFunds;\n        uint256 deadline;\n        uint256 raisedFunds;\n        uint256 remainingFunds;\n        string imageURL;\n        bool isOpened;\n    }\n\n    address campaignCreator;\n    uint public campaignsCount;\n    campaignStructre[] campaigns;\n    statsStruct public stats;\n    uint public contractBalance;\n\n    mapping(uint => bool) public campaignExist;\n    mapping(address => campaignStructre) public campaignsOf;\n    mapping(uint => funderStruct[]) fundersOf;\n\n    function createCampaign(\n        string memory userId,\n        string memory categoryId,\n        string memory title,\n        string memory description,\n        uint256 targetFunds,\n        uint256 deadline,\n        string memory imageURL\n    ) public {\n        campaignCreator = msg.sender;\n\n        campaignStructre memory campaign;\n\n        campaign.userId = userId;\n        campaign.creator = msg.sender;\n        campaign.categoryId = categoryId;\n        campaign.campaignId = campaignsCount;\n        campaign.title = title;\n        campaign.description = description;\n        campaign.targetFunds = targetFunds;\n        campaign.deadline = deadline;\n        campaign.raisedFunds = 0;\n        campaign.remainingFunds = targetFunds;\n        campaign.imageURL = imageURL;\n        campaign.isOpened = true;\n\n        campaigns.push(campaign);\n        campaignExist[campaignsCount] = true;\n        campaignsOf[address(this)] = campaign;\n        stats.totalCampaigns += 1;\n\n        campaignsCount += 1;\n    }\n\n    function updateCampaign(\n        uint256 campaignId,\n        string memory title,\n        string memory description,\n        string memory imageURL,\n        address creater\n    ) public {\n        require(campaigns[campaignId].isOpened, \"Campaign has closed.\");\n        require(\n            creater == campaigns[campaignId].creator,\n            \"Unauthorized Entity.\"\n        );\n\n        campaigns[campaignId].title = title;\n        campaigns[campaignId].description = description;\n        campaigns[campaignId].imageURL = imageURL;\n    }\n\n    function donateFunds(uint id) public payable {\n        require(campaigns[id].isOpened, \"Campaign has closed.\");\n        require(msg.value > 0 ether, \"Ether must be greater than zero.\");\n        require(campaignExist[id], \"Campaign not found.\");\n        require(\n            block.timestamp >= campaigns[id].deadline,\n            \"Deadline has passed.\"\n        );\n        require(\n            campaigns[id].raisedFunds <= campaigns[id].targetFunds,\n            \"Target funds has raised, you can't donate now.\"\n        );\n        require(\n            campaigns[id].raisedFunds + msg.value <= campaigns[id].targetFunds,\n            \"Can't donate this ammount, please try again.\"\n        );\n\n        stats.totalFunding += 1;\n        stats.totalDonation += msg.value;\n\n        campaigns[id].raisedFunds += msg.value;\n        campaigns[id].remainingFunds =\n            campaigns[id].targetFunds -\n            campaigns[id].raisedFunds;\n\n        contractBalance += msg.value;\n\n        fundersOf[id].push(\n            funderStruct(msg.sender, msg.value, block.timestamp)\n        );\n    }\n\n    function getCampaign(\n        uint id\n    ) public view returns (campaignStructre memory) {\n        require(campaignExist[id], \"Campaign not found.\");\n\n        return campaigns[id];\n    }\n\n    function getAllCampaigns() public view returns (campaignStructre[] memory) {\n        return campaigns;\n    }\n\n    function getRaisedFunds(uint id) public view returns (uint256) {\n        require(campaignExist[id], \"Campaign not found.\");\n\n        return campaigns[id].raisedFunds;\n    }\n\n    function getRemainingFunds(uint id) public view returns (uint256) {\n        require(campaignExist[id], \"Campaign not found.\");\n\n        return campaigns[id].remainingFunds;\n    }\n\n    function withdrawFunds(address ownerAddress, uint id) public {\n        require(campaigns[id].isOpened, \"Campaign has closed.\");\n        require(\n            ownerAddress == campaignCreator,\n            \"Only creater can withdraw funds.\"\n        );\n        require(\n            campaigns[id].raisedFunds > 0,\n            \"Not enough balance to withdraw.\"\n        );\n\n        address payable owner = payable(ownerAddress);\n\n        owner.transfer(campaigns[id].raisedFunds);\n\n        contractBalance -= campaigns[id].raisedFunds;\n\n        campaigns[id].isOpened = false;\n    }\n}\n",
  "sourcePath": "/Users/ali/Projects/FYP/helping-hands-apis/contracts/Campaign.sol",
  "compiler": {
    "name": "solc",
    "version": "0.8.13+commit.abaa5c0e.Emscripten.clang"
  },
  "schemaVersion": "3.4.11",
  "updatedAt": "2023-05-11T12:10:47.794Z",
  "networkType": "ethereum",
  "devdoc": {
    "kind": "dev",
    "methods": {},
    "version": 1
  },
  "userdoc": {
    "kind": "user",
    "methods": {},
    "version": 1
  }
}