{
  "contractName": "Campaign",
  "abi": [
    {
      "inputs": [
        {
          "internalType": "address",
          "name": "",
          "type": "address"
        }
      ],
      "name": "contractsMapList",
      "outputs": [
        {
          "internalType": "address",
          "name": "creator",
          "type": "address"
        },
        {
          "internalType": "string",
          "name": "userId",
          "type": "string"
        },
        {
          "internalType": "string",
          "name": "title",
          "type": "string"
        },
        {
          "internalType": "string",
          "name": "description",
          "type": "string"
        },
        {
          "internalType": "string",
          "name": "categoryId",
          "type": "string"
        },
        {
          "internalType": "uint256",
          "name": "targetFunds",
          "type": "uint256"
        },
        {
          "internalType": "uint256",
          "name": "startTime",
          "type": "uint256"
        },
        {
          "internalType": "uint256",
          "name": "deadline",
          "type": "uint256"
        },
        {
          "internalType": "uint256",
          "name": "raisedFunds",
          "type": "uint256"
        },
        {
          "internalType": "uint256",
          "name": "remainingFunds",
          "type": "uint256"
        },
        {
          "internalType": "uint256",
          "name": "noOfContributors",
          "type": "uint256"
        }
      ],
      "stateMutability": "view",
      "type": "function",
      "constant": true
    },
    {
      "inputs": [
        {
          "internalType": "string",
          "name": "_userId",
          "type": "string"
        },
        {
          "internalType": "string",
          "name": "_title",
          "type": "string"
        },
        {
          "internalType": "string",
          "name": "_description",
          "type": "string"
        },
        {
          "internalType": "string",
          "name": "_categoryId",
          "type": "string"
        },
        {
          "internalType": "uint256",
          "name": "_targetFunds",
          "type": "uint256"
        },
        {
          "internalType": "uint256",
          "name": "_deadline",
          "type": "uint256"
        },
        {
          "internalType": "uint256",
          "name": "_startTime",
          "type": "uint256"
        }
      ],
      "name": "createCampaign",
      "outputs": [],
      "stateMutability": "nonpayable",
      "type": "function"
    },
    {
      "inputs": [],
      "name": "getContractAddress",
      "outputs": [
        {
          "internalType": "address",
          "name": "",
          "type": "address"
        }
      ],
      "stateMutability": "view",
      "type": "function",
      "constant": true
    },
    {
      "inputs": [],
      "name": "getCampaignDetails",
      "outputs": [
        {
          "components": [
            {
              "internalType": "address",
              "name": "creator",
              "type": "address"
            },
            {
              "internalType": "string",
              "name": "userId",
              "type": "string"
            },
            {
              "internalType": "string",
              "name": "title",
              "type": "string"
            },
            {
              "internalType": "string",
              "name": "description",
              "type": "string"
            },
            {
              "internalType": "string",
              "name": "categoryId",
              "type": "string"
            },
            {
              "internalType": "uint256",
              "name": "targetFunds",
              "type": "uint256"
            },
            {
              "internalType": "uint256",
              "name": "startTime",
              "type": "uint256"
            },
            {
              "internalType": "uint256",
              "name": "deadline",
              "type": "uint256"
            },
            {
              "internalType": "uint256",
              "name": "raisedFunds",
              "type": "uint256"
            },
            {
              "internalType": "uint256",
              "name": "remainingFunds",
              "type": "uint256"
            },
            {
              "internalType": "uint256",
              "name": "noOfContributors",
              "type": "uint256"
            }
          ],
          "internalType": "struct Campaign.CampaignStructre",
          "name": "",
          "type": "tuple"
        }
      ],
      "stateMutability": "view",
      "type": "function",
      "constant": true
    },
    {
      "inputs": [],
      "name": "getCampaignsCount",
      "outputs": [
        {
          "internalType": "uint256",
          "name": "",
          "type": "uint256"
        }
      ],
      "stateMutability": "view",
      "type": "function",
      "constant": true
    },
    {
      "inputs": [
        {
          "internalType": "uint256",
          "name": "_index",
          "type": "uint256"
        }
      ],
      "name": "getCampaign",
      "outputs": [
        {
          "internalType": "string",
          "name": "",
          "type": "string"
        },
        {
          "internalType": "string",
          "name": "",
          "type": "string"
        },
        {
          "internalType": "uint256",
          "name": "",
          "type": "uint256"
        },
        {
          "internalType": "uint256",
          "name": "",
          "type": "uint256"
        }
      ],
      "stateMutability": "view",
      "type": "function",
      "constant": true
    },
    {
      "inputs": [],
      "name": "getAllContracts",
      "outputs": [
        {
          "components": [
            {
              "internalType": "address",
              "name": "creator",
              "type": "address"
            },
            {
              "internalType": "string",
              "name": "userId",
              "type": "string"
            },
            {
              "internalType": "string",
              "name": "title",
              "type": "string"
            },
            {
              "internalType": "string",
              "name": "description",
              "type": "string"
            },
            {
              "internalType": "string",
              "name": "categoryId",
              "type": "string"
            },
            {
              "internalType": "uint256",
              "name": "targetFunds",
              "type": "uint256"
            },
            {
              "internalType": "uint256",
              "name": "startTime",
              "type": "uint256"
            },
            {
              "internalType": "uint256",
              "name": "deadline",
              "type": "uint256"
            },
            {
              "internalType": "uint256",
              "name": "raisedFunds",
              "type": "uint256"
            },
            {
              "internalType": "uint256",
              "name": "remainingFunds",
              "type": "uint256"
            },
            {
              "internalType": "uint256",
              "name": "noOfContributors",
              "type": "uint256"
            }
          ],
          "internalType": "struct Campaign.CampaignStructre[]",
          "name": "",
          "type": "tuple[]"
        }
      ],
      "stateMutability": "view",
      "type": "function",
      "constant": true
    },
    {
      "inputs": [],
      "name": "sendFunds",
      "outputs": [],
      "stateMutability": "payable",
      "type": "function",
      "payable": true
    },
    {
      "inputs": [],
      "name": "getRaisedFunds",
      "outputs": [
        {
          "internalType": "uint256",
          "name": "",
          "type": "uint256"
        }
      ],
      "stateMutability": "view",
      "type": "function",
      "constant": true
    },
    {
      "inputs": [],
      "name": "getContractOwner",
      "outputs": [
        {
          "internalType": "address",
          "name": "",
          "type": "address"
        }
      ],
      "stateMutability": "view",
      "type": "function",
      "constant": true
    },
    {
      "inputs": [],
      "name": "getRemainingFunds",
      "outputs": [
        {
          "internalType": "uint256",
          "name": "",
          "type": "uint256"
        }
      ],
      "stateMutability": "view",
      "type": "function",
      "constant": true
    },
    {
      "inputs": [],
      "name": "getTotalContributors",
      "outputs": [
        {
          "internalType": "uint256",
          "name": "",
          "type": "uint256"
        }
      ],
      "stateMutability": "view",
      "type": "function",
      "constant": true
    },
    {
      "inputs": [
        {
          "internalType": "address",
          "name": "_address",
          "type": "address"
        }
      ],
      "name": "isContibutors",
      "outputs": [
        {
          "internalType": "bool",
          "name": "",
          "type": "bool"
        }
      ],
      "stateMutability": "view",
      "type": "function",
      "constant": true
    },
    {
      "inputs": [
        {
          "internalType": "address",
          "name": "_address",
          "type": "address"
        }
      ],
      "name": "getFundsOfContributor",
      "outputs": [
        {
          "internalType": "uint256",
          "name": "",
          "type": "uint256"
        }
      ],
      "stateMutability": "view",
      "type": "function",
      "constant": true
    },
    {
      "inputs": [
        {
          "internalType": "address",
          "name": "_address",
          "type": "address"
        }
      ],
      "name": "withdrawFunds",
      "outputs": [],
      "stateMutability": "nonpayable",
      "type": "function"
    }
  ],
  "bytecode": "0x608060405234801561001057600080fd5b50612b9c806100206000396000f3fe6080604052600436106100e85760003560e01c80638185adf81161008a578063b0d78d8911610059578063b0d78d89146102e6578063dc58a56c1461030f578063f004177a1461033a578063f44954d714610365576100e8565b80638185adf81461022d578063833687eb1461026a5780638d68cf59146102955780639162de521461029f576100e8565b8063442890d5116100c6578063442890d51461016e5780635598f8cc1461019957806368742da6146101d95780637e6253da14610202576100e8565b80630c611f24146100ed57806318d3ce961461011857806332a2c5d014610143575b600080fd5b3480156100f957600080fd5b506101026103a2565b60405161010f9190611e4d565b60405180910390f35b34801561012457600080fd5b5061012d6106d4565b60405161013a9190612035565b60405180910390f35b34801561014f57600080fd5b50610158610a0e565b6040516101659190612066565b60405180910390f35b34801561017a57600080fd5b50610183610a16565b6040516101909190612066565b60405180910390f35b3480156101a557600080fd5b506101c060048036038101906101bb91906120c1565b610a3f565b6040516101d09493929190612147565b60405180910390f35b3480156101e557600080fd5b5061020060048036038101906101fb91906121c6565b610dbc565b005b34801561020e57600080fd5b50610217610f52565b60405161022491906121f3565b60405180910390f35b34801561023957600080fd5b50610254600480360381019061024f91906121c6565b610f5f565b60405161026191906121f3565b60405180910390f35b34801561027657600080fd5b5061027f610fa8565b60405161028c91906121f3565b60405180910390f35b61029d610fbf565b005b3480156102ab57600080fd5b506102c660048036038101906102c191906121c6565b611478565b6040516102dd9b9a9998979695949392919061220e565b60405180910390f35b3480156102f257600080fd5b5061030d6004803603810190610308919061240a565b611712565b005b34801561031b57600080fd5b50610324611ad5565b60405161033191906121f3565b60405180910390f35b34801561034657600080fd5b5061034f611adf565b60405161035c91906121f3565b60405180910390f35b34801561037157600080fd5b5061038c600480360381019061038791906121c6565b611ae7565b6040516103999190612537565b60405180910390f35b6103aa611b43565b600c60003073ffffffffffffffffffffffffffffffffffffffff1673ffffffffffffffffffffffffffffffffffffffff168152602001908152602001600020604051806101600160405290816000820160009054906101000a900473ffffffffffffffffffffffffffffffffffffffff1673ffffffffffffffffffffffffffffffffffffffff1673ffffffffffffffffffffffffffffffffffffffff16815260200160018201805461045b90612581565b80601f016020809104026020016040519081016040528092919081815260200182805461048790612581565b80156104d45780601f106104a9576101008083540402835291602001916104d4565b820191906000526020600020905b8154815290600101906020018083116104b757829003601f168201915b505050505081526020016002820180546104ed90612581565b80601f016020809104026020016040519081016040528092919081815260200182805461051990612581565b80156105665780601f1061053b57610100808354040283529160200191610566565b820191906000526020600020905b81548152906001019060200180831161054957829003601f168201915b5050505050815260200160038201805461057f90612581565b80601f01602080910402602001604051908101604052809291908181526020018280546105ab90612581565b80156105f85780601f106105cd576101008083540402835291602001916105f8565b820191906000526020600020905b8154815290600101906020018083116105db57829003601f168201915b5050505050815260200160048201805461061190612581565b80601f016020809104026020016040519081016040528092919081815260200182805461063d90612581565b801561068a5780601f1061065f5761010080835404028352916020019161068a565b820191906000526020600020905b81548152906001019060200180831161066d57829003601f168201915b505050505081526020016005820154815260200160068201548152602001600782015481526020016008820154815260200160098201548152602001600a82015481525050905090565b6060600d805480602002602001604051908101604052809291908181526020016000905b82821015610a0557838290600052602060002090600b0201604051806101600160405290816000820160009054906101000a900473ffffffffffffffffffffffffffffffffffffffff1673ffffffffffffffffffffffffffffffffffffffff1673ffffffffffffffffffffffffffffffffffffffff16815260200160018201805461078290612581565b80601f01602080910402602001604051908101604052809291908181526020018280546107ae90612581565b80156107fb5780601f106107d0576101008083540402835291602001916107fb565b820191906000526020600020905b8154815290600101906020018083116107de57829003601f168201915b5050505050815260200160028201805461081490612581565b80601f016020809104026020016040519081016040528092919081815260200182805461084090612581565b801561088d5780601f106108625761010080835404028352916020019161088d565b820191906000526020600020905b81548152906001019060200180831161087057829003601f168201915b505050505081526020016003820180546108a690612581565b80601f01602080910402602001604051908101604052809291908181526020018280546108d290612581565b801561091f5780601f106108f45761010080835404028352916020019161091f565b820191906000526020600020905b81548152906001019060200180831161090257829003601f168201915b5050505050815260200160048201805461093890612581565b80601f016020809104026020016040519081016040528092919081815260200182805461096490612581565b80156109b15780601f10610986576101008083540402835291602001916109b1565b820191906000526020600020905b81548152906001019060200180831161099457829003601f168201915b505050505081526020016005820154815260200160068201548152602001600782015481526020016008820154815260200160098201548152602001600a82015481525050815260200190600101906106f8565b50505050905090565b600030905090565b60008060009054906101000a900473ffffffffffffffffffffffffffffffffffffffff16905090565b606080600080600d805490508510610a8c576040517f08c379a0000000000000000000000000000000000000000000000000000000008152600401610a83906125fe565b60405180910390fd5b6000600d8681548110610aa257610aa161261e565b5b90600052602060002090600b0201604051806101600160405290816000820160009054906101000a900473ffffffffffffffffffffffffffffffffffffffff1673ffffffffffffffffffffffffffffffffffffffff1673ffffffffffffffffffffffffffffffffffffffff168152602001600182018054610b2290612581565b80601f0160208091040260200160405190810160405280929190818152602001828054610b4e90612581565b8015610b9b5780601f10610b7057610100808354040283529160200191610b9b565b820191906000526020600020905b815481529060010190602001808311610b7e57829003601f168201915b50505050508152602001600282018054610bb490612581565b80601f0160208091040260200160405190810160405280929190818152602001828054610be090612581565b8015610c2d5780601f10610c0257610100808354040283529160200191610c2d565b820191906000526020600020905b815481529060010190602001808311610c1057829003601f168201915b50505050508152602001600382018054610c4690612581565b80601f0160208091040260200160405190810160405280929190818152602001828054610c7290612581565b8015610cbf5780601f10610c9457610100808354040283529160200191610cbf565b820191906000526020600020905b815481529060010190602001808311610ca257829003601f168201915b50505050508152602001600482018054610cd890612581565b80601f0160208091040260200160405190810160405280929190818152602001828054610d0490612581565b8015610d515780601f10610d2657610100808354040283529160200191610d51565b820191906000526020600020905b815481529060010190602001808311610d3457829003601f168201915b505050505081526020016005820154815260200160068201548152602001600782015481526020016008820154815260200160098201548152602001600a820154815250509050806040015181606001518260a001518360e001519450945094509450509193509193565b60001515600b60009054906101000a900460ff16151514610e12576040517f08c379a0000000000000000000000000000000000000000000000000000000008152600401610e0990612699565b60405180910390fd5b60008054906101000a900473ffffffffffffffffffffffffffffffffffffffff1673ffffffffffffffffffffffffffffffffffffffff168173ffffffffffffffffffffffffffffffffffffffff1614610ea0576040517f08c379a0000000000000000000000000000000000000000000000000000000008152600401610e9790612705565b60405180910390fd5b600060085411610ee5576040517f08c379a0000000000000000000000000000000000000000000000000000000008152600401610edc90612771565b60405180910390fd5b60008190508073ffffffffffffffffffffffffffffffffffffffff166108fc6008549081150290604051600060405180830381858888f19350505050158015610f32573d6000803e3d6000fd5b506001600b60006101000a81548160ff0219169083151502179055505050565b6000600d80549050905090565b6000600a60008373ffffffffffffffffffffffffffffffffffffffff1673ffffffffffffffffffffffffffffffffffffffff168152602001908152602001600020549050919050565b6000600854600554610fba91906127c0565b905090565b60001515600b60009054906101000a900460ff16151514611015576040517f08c379a000000000000000000000000000000000000000000000000000000000815260040161100c90612699565b60405180910390fd5b6006544211611059576040517f08c379a000000000000000000000000000000000000000000000000000000000815260040161105090612840565b60405180910390fd5b600754421061109d576040517f08c379a0000000000000000000000000000000000000000000000000000000008152600401611094906128ac565b60405180910390fd5b600034116110e0576040517f08c379a00000000000000000000000000000000000000000000000000000000081526004016110d790612918565b60405180910390fd5b6005546008541115611127576040517f08c379a000000000000000000000000000000000000000000000000000000000815260040161111e90612984565b60405180910390fd5b60055434111561116c576040517f08c379a000000000000000000000000000000000000000000000000000000000815260040161116390612a16565b60405180910390fd5b60008054906101000a900473ffffffffffffffffffffffffffffffffffffffff1673ffffffffffffffffffffffffffffffffffffffff163373ffffffffffffffffffffffffffffffffffffffff16036111fa576040517f08c379a00000000000000000000000000000000000000000000000000000000081526004016111f190612aa8565b60405180910390fd5b6000600a60003373ffffffffffffffffffffffffffffffffffffffff1673ffffffffffffffffffffffffffffffffffffffff168152602001908152602001600020540361125a576009600081548092919061125490612ac8565b91905055505b34600a60003373ffffffffffffffffffffffffffffffffffffffff1673ffffffffffffffffffffffffffffffffffffffff16815260200190815260200160002060008282546112a99190612b10565b9250508190555034600860008282546112c29190612b10565b92505081905550600554600854111561138e5760003390508073ffffffffffffffffffffffffffffffffffffffff166108fc60055460085461130491906127c0565b9081150290604051600060405180830381858888f1935050505015801561132f573d6000803e3d6000fd5b5060055460088190555060055460085461134991906127c0565b600a60003373ffffffffffffffffffffffffffffffffffffffff1673ffffffffffffffffffffffffffffffffffffffff16815260200190815260200160002081905550505b600854600c60003073ffffffffffffffffffffffffffffffffffffffff1673ffffffffffffffffffffffffffffffffffffffff16815260200190815260200160002060080181905550600954600c60003073ffffffffffffffffffffffffffffffffffffffff1673ffffffffffffffffffffffffffffffffffffffff168152602001908152602001600020600a018190555060085460055461143091906127c0565b600c60003073ffffffffffffffffffffffffffffffffffffffff1673ffffffffffffffffffffffffffffffffffffffff16815260200190815260200160002060090181905550565b600c6020528060005260406000206000915090508060000160009054906101000a900473ffffffffffffffffffffffffffffffffffffffff16908060010180546114c190612581565b80601f01602080910402602001604051908101604052809291908181526020018280546114ed90612581565b801561153a5780601f1061150f5761010080835404028352916020019161153a565b820191906000526020600020905b81548152906001019060200180831161151d57829003601f168201915b50505050509080600201805461154f90612581565b80601f016020809104026020016040519081016040528092919081815260200182805461157b90612581565b80156115c85780601f1061159d576101008083540402835291602001916115c8565b820191906000526020600020905b8154815290600101906020018083116115ab57829003601f168201915b5050505050908060030180546115dd90612581565b80601f016020809104026020016040519081016040528092919081815260200182805461160990612581565b80156116565780601f1061162b57610100808354040283529160200191611656565b820191906000526020600020905b81548152906001019060200180831161163957829003601f168201915b50505050509080600401805461166b90612581565b80601f016020809104026020016040519081016040528092919081815260200182805461169790612581565b80156116e45780601f106116b9576101008083540402835291602001916116e4565b820191906000526020600020905b8154815290600101906020018083116116c757829003601f168201915b50505050509080600501549080600601549080600701549080600801549080600901549080600a015490508b565b8660019080519060200190611728929190611bb3565b50856002908051906020019061173f929190611bb3565b508460039080519060200190611756929190611bb3565b50836004908051906020019061176d929190611bb3565b508260058190555080426117819190612b10565b600681905550816006546117959190612b10565b600781905550336000806101000a81548173ffffffffffffffffffffffffffffffffffffffff021916908373ffffffffffffffffffffffffffffffffffffffff16021790555060006040518061016001604052803373ffffffffffffffffffffffffffffffffffffffff1681526020018981526020018881526020018781526020018681526020018581526020016006548152602001600754815260200160085481526020016005548152602001600954815250905080600c60003073ffffffffffffffffffffffffffffffffffffffff1673ffffffffffffffffffffffffffffffffffffffff16815260200190815260200160002060008201518160000160006101000a81548173ffffffffffffffffffffffffffffffffffffffff021916908373ffffffffffffffffffffffffffffffffffffffff16021790555060208201518160010190805190602001906118ee929190611bb3565b50604082015181600201908051906020019061190b929190611bb3565b506060820151816003019080519060200190611928929190611bb3565b506080820151816004019080519060200190611945929190611bb3565b5060a0820151816005015560c0820151816006015560e082015181600701556101008201518160080155610120820151816009015561014082015181600a0155905050600d8190806001815401808255809150506001900390600052602060002090600b020160009091909190915060008201518160000160006101000a81548173ffffffffffffffffffffffffffffffffffffffff021916908373ffffffffffffffffffffffffffffffffffffffff1602179055506020820151816001019080519060200190611a17929190611bb3565b506040820151816002019080519060200190611a34929190611bb3565b506060820151816003019080519060200190611a51929190611bb3565b506080820151816004019080519060200190611a6e929190611bb3565b5060a0820151816005015560c0820151816006015560e082015181600701556101008201518160080155610120820151816009015561014082015181600a015550506000600b60006101000a81548160ff0219169083151502179055505050505050505050565b6000600954905090565b600047905090565b600080600a60008473ffffffffffffffffffffffffffffffffffffffff1673ffffffffffffffffffffffffffffffffffffffff168152602001908152602001600020541115611b395760019050611b3e565b600090505b919050565b604051806101600160405280600073ffffffffffffffffffffffffffffffffffffffff168152602001606081526020016060815260200160608152602001606081526020016000815260200160008152602001600081526020016000815260200160008152602001600081525090565b828054611bbf90612581565b90600052602060002090601f016020900481019282611be15760008555611c28565b82601f10611bfa57805160ff1916838001178555611c28565b82800160010185558215611c28579182015b82811115611c27578251825591602001919060010190611c0c565b5b509050611c359190611c39565b5090565b5b80821115611c52576000816000905550600101611c3a565b5090565b600073ffffffffffffffffffffffffffffffffffffffff82169050919050565b6000611c8182611c56565b9050919050565b611c9181611c76565b82525050565b600081519050919050565b600082825260208201905092915050565b60005b83811015611cd1578082015181840152602081019050611cb6565b83811115611ce0576000848401525b50505050565b6000601f19601f8301169050919050565b6000611d0282611c97565b611d0c8185611ca2565b9350611d1c818560208601611cb3565b611d2581611ce6565b840191505092915050565b6000819050919050565b611d4381611d30565b82525050565b600061016083016000830151611d626000860182611c88565b5060208301518482036020860152611d7a8282611cf7565b91505060408301518482036040860152611d948282611cf7565b91505060608301518482036060860152611dae8282611cf7565b91505060808301518482036080860152611dc88282611cf7565b91505060a0830151611ddd60a0860182611d3a565b5060c0830151611df060c0860182611d3a565b5060e0830151611e0360e0860182611d3a565b50610100830151611e18610100860182611d3a565b50610120830151611e2d610120860182611d3a565b50610140830151611e42610140860182611d3a565b508091505092915050565b60006020820190508181036000830152611e678184611d49565b905092915050565b600081519050919050565b600082825260208201905092915050565b6000819050602082019050919050565b600061016083016000830151611eb46000860182611c88565b5060208301518482036020860152611ecc8282611cf7565b91505060408301518482036040860152611ee68282611cf7565b91505060608301518482036060860152611f008282611cf7565b91505060808301518482036080860152611f1a8282611cf7565b91505060a0830151611f2f60a0860182611d3a565b5060c0830151611f4260c0860182611d3a565b5060e0830151611f5560e0860182611d3a565b50610100830151611f6a610100860182611d3a565b50610120830151611f7f610120860182611d3a565b50610140830151611f94610140860182611d3a565b508091505092915050565b6000611fab8383611e9b565b905092915050565b6000602082019050919050565b6000611fcb82611e6f565b611fd58185611e7a565b935083602082028501611fe785611e8b565b8060005b8581101561202357848403895281516120048582611f9f565b945061200f83611fb3565b925060208a01995050600181019050611feb565b50829750879550505050505092915050565b6000602082019050818103600083015261204f8184611fc0565b905092915050565b61206081611c76565b82525050565b600060208201905061207b6000830184612057565b92915050565b6000604051905090565b600080fd5b600080fd5b61209e81611d30565b81146120a957600080fd5b50565b6000813590506120bb81612095565b92915050565b6000602082840312156120d7576120d661208b565b5b60006120e5848285016120ac565b91505092915050565b600082825260208201905092915050565b600061210a82611c97565b61211481856120ee565b9350612124818560208601611cb3565b61212d81611ce6565b840191505092915050565b61214181611d30565b82525050565b6000608082019050818103600083015261216181876120ff565b9050818103602083015261217581866120ff565b90506121846040830185612138565b6121916060830184612138565b95945050505050565b6121a381611c76565b81146121ae57600080fd5b50565b6000813590506121c08161219a565b92915050565b6000602082840312156121dc576121db61208b565b5b60006121ea848285016121b1565b91505092915050565b60006020820190506122086000830184612138565b92915050565b600061016082019050612224600083018e612057565b8181036020830152612236818d6120ff565b9050818103604083015261224a818c6120ff565b9050818103606083015261225e818b6120ff565b90508181036080830152612272818a6120ff565b905061228160a0830189612138565b61228e60c0830188612138565b61229b60e0830187612138565b6122a9610100830186612138565b6122b7610120830185612138565b6122c5610140830184612138565b9c9b505050505050505050505050565b600080fd5b600080fd5b7f4e487b7100000000000000000000000000000000000000000000000000000000600052604160045260246000fd5b61231782611ce6565b810181811067ffffffffffffffff82111715612336576123356122df565b5b80604052505050565b6000612349612081565b9050612355828261230e565b919050565b600067ffffffffffffffff821115612375576123746122df565b5b61237e82611ce6565b9050602081019050919050565b82818337600083830152505050565b60006123ad6123a88461235a565b61233f565b9050828152602081018484840111156123c9576123c86122da565b5b6123d484828561238b565b509392505050565b600082601f8301126123f1576123f06122d5565b5b813561240184826020860161239a565b91505092915050565b600080600080600080600060e0888a0312156124295761242861208b565b5b600088013567ffffffffffffffff81111561244757612446612090565b5b6124538a828b016123dc565b975050602088013567ffffffffffffffff81111561247457612473612090565b5b6124808a828b016123dc565b965050604088013567ffffffffffffffff8111156124a1576124a0612090565b5b6124ad8a828b016123dc565b955050606088013567ffffffffffffffff8111156124ce576124cd612090565b5b6124da8a828b016123dc565b94505060806124eb8a828b016120ac565b93505060a06124fc8a828b016120ac565b92505060c061250d8a828b016120ac565b91505092959891949750929550565b60008115159050919050565b6125318161251c565b82525050565b600060208201905061254c6000830184612528565b92915050565b7f4e487b7100000000000000000000000000000000000000000000000000000000600052602260045260246000fd5b6000600282049050600182168061259957607f821691505b6020821081036125ac576125ab612552565b5b50919050565b7f496e646578206f7574206f6620626f756e647300000000000000000000000000600082015250565b60006125e86013836120ee565b91506125f3826125b2565b602082019050919050565b60006020820190508181036000830152612617816125db565b9050919050565b7f4e487b7100000000000000000000000000000000000000000000000000000000600052603260045260246000fd5b7f43616d706169676e2068617320636c6f7365642e000000000000000000000000600082015250565b60006126836014836120ee565b915061268e8261264d565b602082019050919050565b600060208201905081810360008301526126b281612676565b9050919050565b7f4f6e6c7920637265617465722063616e2077697468647261772066756e64732e600082015250565b60006126ef6020836120ee565b91506126fa826126b9565b602082019050919050565b6000602082019050818103600083015261271e816126e2565b9050919050565b7f4e6f7420656e6f7567682062616c616e636520746f2077697468647261772e00600082015250565b600061275b601f836120ee565b915061276682612725565b602082019050919050565b6000602082019050818103600083015261278a8161274e565b9050919050565b7f4e487b7100000000000000000000000000000000000000000000000000000000600052601160045260246000fd5b60006127cb82611d30565b91506127d683611d30565b9250828210156127e9576127e8612791565b5b828203905092915050565b7f4e6f742073746172746564207965742e00000000000000000000000000000000600082015250565b600061282a6010836120ee565b9150612835826127f4565b602082019050919050565b600060208201905081810360008301526128598161281d565b9050919050565b7f446561646c696e6520686173207061737365642e000000000000000000000000600082015250565b60006128966014836120ee565b91506128a182612860565b602082019050919050565b600060208201905081810360008301526128c581612889565b9050919050565b7f506c656173652073656e642076616c69642066756e64732e0000000000000000600082015250565b60006129026018836120ee565b915061290d826128cc565b602082019050919050565b60006020820190508181036000830152612931816128f5565b9050919050565b7f54617267657420676f616c20686173206265656e2061636865697665642e0000600082015250565b600061296e601e836120ee565b915061297982612938565b602082019050919050565b6000602082019050818103600083015261299d81612961565b9050919050565b7f506c6561736520636865636b2074617267657420616d6f756e7420616e64207460008201527f68656e207061792e000000000000000000000000000000000000000000000000602082015250565b6000612a006028836120ee565b9150612a0b826129a4565b604082019050919050565b60006020820190508181036000830152612a2f816129f3565b9050919050565b7f43726561746f722063616e206e6f742066756e6420686973206f776e2063616d60008201527f7061696e67732e00000000000000000000000000000000000000000000000000602082015250565b6000612a926027836120ee565b9150612a9d82612a36565b604082019050919050565b60006020820190508181036000830152612ac181612a85565b9050919050565b6000612ad382611d30565b91507fffffffffffffffffffffffffffffffffffffffffffffffffffffffffffffffff8203612b0557612b04612791565b5b600182019050919050565b6000612b1b82611d30565b9150612b2683611d30565b9250827fffffffffffffffffffffffffffffffffffffffffffffffffffffffffffffffff03821115612b5b57612b5a612791565b5b82820190509291505056fea2646970667358221220ee1fc42b6a17546b1bdea3d81ce073f0953764d5155b40dd21205ed22dd79f4764736f6c634300080d0033",
  "immutableReferences": {},
  "source": "//SPDX-License-Identifier: UNLICENSED\npragma solidity ^0.8.13;\n\ncontract Campaign {\n    address campaignCreator;\n    string userId;\n    string title;\n    string description;\n    string categoryId;\n    uint256 targetFunds;\n    uint256 startTime;\n    uint256 deadline;\n    uint256 raisedFunds;\n    uint256 noOfContributors;\n    \n    mapping(address => uint256) contributorsList;\n\n    bool isWithdrawOnce;\n\n    struct CampaignStructre {\n        address creator;\n        string userId;\n        string title;\n        string description;\n        string categoryId;\n        uint256 targetFunds;\n        uint256 startTime;\n        uint256 deadline;\n        uint256 raisedFunds;\n        uint256 remainingFunds;\n        uint256 noOfContributors;\n    }\n\n    mapping(address => CampaignStructre) public contractsMapList;\n\n    CampaignStructre[] contractsStructList;\n\n    function createCampaign(\n        string memory _userId,\n        string memory _title,\n        string memory _description,\n        string memory _categoryId,\n        uint256 _targetFunds,\n        uint256 _deadline,\n        uint256 _startTime\n    ) public {\n        userId = _userId;\n        title = _title;\n        description = _description;\n        categoryId = _categoryId;\n        targetFunds = _targetFunds;\n        startTime = block.timestamp + _startTime;\n        deadline = startTime + _deadline;\n        campaignCreator = msg.sender;\n\n        CampaignStructre memory campaignStructre = CampaignStructre(\n            msg.sender,\n            _userId,\n            _title,\n            _description,\n            _categoryId,\n            _targetFunds,\n            startTime,\n            deadline,\n            raisedFunds,\n            targetFunds,\n            noOfContributors\n        );\n\n        contractsMapList[address(this)] = campaignStructre;\n\n        contractsStructList.push(campaignStructre);\n\n        isWithdrawOnce = false;\n    }\n\n    function getContractAddress() public view returns (address) {\n        return address(this);\n    }\n\n    function getCampaignDetails()\n        public\n        view\n        returns (CampaignStructre memory)\n    {\n        return contractsMapList[address(this)];\n    }\n\n    function getCampaignsCount() public view returns (uint256) {\n        return contractsStructList.length;\n    }\n\n    function getCampaign(\n        uint256 _index\n    ) public view returns (string memory, string memory, uint256, uint256) {\n        require(_index < contractsStructList.length, \"Index out of bounds\");\n        CampaignStructre memory campaign = contractsStructList[_index];\n        return (\n            campaign.title,\n            campaign.description,\n            campaign.targetFunds,\n            campaign.deadline\n        );\n    }\n\n    function getAllContracts() public view returns (CampaignStructre[] memory) {\n        return contractsStructList;\n    }\n\n    function sendFunds() public payable {\n        require(isWithdrawOnce == false, \"Campaign has closed.\");\n\n        require(block.timestamp > startTime, \"Not started yet.\");\n\n        require(block.timestamp < deadline, \"Deadline has passed.\");\n\n        require(msg.value > 0, \"Please send valid funds.\");\n\n        require(raisedFunds <= targetFunds, \"Target goal has been acheived.\");\n\n        require(\n            msg.value <= targetFunds,\n            \"Please check target amount and then pay.\"\n        );\n\n        require(\n            msg.sender != campaignCreator,\n            \"Creator can not fund his own campaings.\"\n        );\n\n        if (contributorsList[msg.sender] == 0) {\n            noOfContributors++;\n        }\n\n        contributorsList[msg.sender] += msg.value;\n\n        raisedFunds += msg.value;\n\n        if (raisedFunds > targetFunds) {\n            address payable lastFunder = payable(msg.sender);\n            lastFunder.transfer(raisedFunds - targetFunds);\n            raisedFunds = targetFunds;\n            contributorsList[msg.sender] = raisedFunds - targetFunds;\n        }\n\n        contractsMapList[address(this)].raisedFunds = raisedFunds;\n        contractsMapList[address(this)].noOfContributors = noOfContributors;\n        contractsMapList[address(this)].remainingFunds =\n            targetFunds -\n            raisedFunds;\n    }\n\n    function getRaisedFunds() public view returns (uint256) {\n        return address(this).balance;\n    }\n\n    function getContractOwner() public view returns (address) {\n        return campaignCreator;\n    }\n\n    function getRemainingFunds() public view returns (uint256) {\n        return targetFunds - raisedFunds;\n    }\n\n    function getTotalContributors() public view returns (uint256) {\n        return noOfContributors;\n    }\n\n    function isContibutors(address _address) public view returns (bool) {\n        if (contributorsList[_address] > 0) {\n            return true;\n        } else {\n            return false;\n        }\n    }\n\n    function getFundsOfContributor(\n        address _address\n    ) public view returns (uint256) {\n        return contributorsList[_address];\n    }\n\n    function withdrawFunds(address _address) public {\n        require(isWithdrawOnce == false, \"Campaign has closed.\");\n\n        require(\n            _address == campaignCreator,\n            \"Only creater can withdraw funds.\"\n        );\n        require(raisedFunds > 0, \"Not enough balance to withdraw.\");\n        address payable owner = payable(_address);\n        owner.transfer(raisedFunds);\n        isWithdrawOnce = true;\n    }\n}\n",
  "sourcePath": "/Users/ali/Projects/FYP/helping-hands-apis/contracts/Campaign.sol",
  "compiler": {
    "name": "solc",
    "version": "0.8.13+commit.abaa5c0e.Emscripten.clang"
  },
  "schemaVersion": "3.4.11",
  "updatedAt": "2023-05-08T22:16:14.361Z",
  "networkType": "ethereum",
  "devdoc": {
    "kind": "dev",
    "methods": {},
    "version": 1
  },
  "userdoc": {
    "kind": "user",
    "methods": {},
    "version": 1
  }
}