{
  "contractName": "Campaign",
  "abi": [
    {
      "inputs": [
        {
          "internalType": "string",
          "name": "_userId",
          "type": "string"
        },
        {
          "internalType": "string",
          "name": "_title",
          "type": "string"
        },
        {
          "internalType": "string",
          "name": "_description",
          "type": "string"
        },
        {
          "internalType": "string",
          "name": "_categoryId",
          "type": "string"
        },
        {
          "internalType": "uint256",
          "name": "_targetFunds",
          "type": "uint256"
        },
        {
          "internalType": "uint256",
          "name": "_deadline",
          "type": "uint256"
        },
        {
          "internalType": "uint256",
          "name": "_startTime",
          "type": "uint256"
        }
      ],
      "stateMutability": "nonpayable",
      "type": "constructor"
    },
    {
      "inputs": [
        {
          "internalType": "address",
          "name": "",
          "type": "address"
        }
      ],
      "name": "contractsMapList",
      "outputs": [
        {
          "internalType": "address",
          "name": "creator",
          "type": "address"
        },
        {
          "internalType": "string",
          "name": "userId",
          "type": "string"
        },
        {
          "internalType": "string",
          "name": "title",
          "type": "string"
        },
        {
          "internalType": "string",
          "name": "description",
          "type": "string"
        },
        {
          "internalType": "string",
          "name": "categoryId",
          "type": "string"
        },
        {
          "internalType": "uint256",
          "name": "targetFunds",
          "type": "uint256"
        },
        {
          "internalType": "uint256",
          "name": "startTime",
          "type": "uint256"
        },
        {
          "internalType": "uint256",
          "name": "deadline",
          "type": "uint256"
        },
        {
          "internalType": "uint256",
          "name": "raisedFunds",
          "type": "uint256"
        },
        {
          "internalType": "uint256",
          "name": "remainingFunds",
          "type": "uint256"
        },
        {
          "internalType": "uint256",
          "name": "noOfContributors",
          "type": "uint256"
        }
      ],
      "stateMutability": "view",
      "type": "function"
    },
    {
      "inputs": [],
      "name": "getContractAddress",
      "outputs": [
        {
          "internalType": "address",
          "name": "",
          "type": "address"
        }
      ],
      "stateMutability": "view",
      "type": "function"
    },
    {
      "inputs": [],
      "name": "getCampaignDetails",
      "outputs": [
        {
          "components": [
            {
              "internalType": "address",
              "name": "creator",
              "type": "address"
            },
            {
              "internalType": "string",
              "name": "userId",
              "type": "string"
            },
            {
              "internalType": "string",
              "name": "title",
              "type": "string"
            },
            {
              "internalType": "string",
              "name": "description",
              "type": "string"
            },
            {
              "internalType": "string",
              "name": "categoryId",
              "type": "string"
            },
            {
              "internalType": "uint256",
              "name": "targetFunds",
              "type": "uint256"
            },
            {
              "internalType": "uint256",
              "name": "startTime",
              "type": "uint256"
            },
            {
              "internalType": "uint256",
              "name": "deadline",
              "type": "uint256"
            },
            {
              "internalType": "uint256",
              "name": "raisedFunds",
              "type": "uint256"
            },
            {
              "internalType": "uint256",
              "name": "remainingFunds",
              "type": "uint256"
            },
            {
              "internalType": "uint256",
              "name": "noOfContributors",
              "type": "uint256"
            }
          ],
          "internalType": "struct Campaign.CampaignStructre",
          "name": "",
          "type": "tuple"
        }
      ],
      "stateMutability": "view",
      "type": "function"
    },
    {
      "inputs": [],
      "name": "getAllContracts",
      "outputs": [
        {
          "components": [
            {
              "internalType": "address",
              "name": "creator",
              "type": "address"
            },
            {
              "internalType": "string",
              "name": "userId",
              "type": "string"
            },
            {
              "internalType": "string",
              "name": "title",
              "type": "string"
            },
            {
              "internalType": "string",
              "name": "description",
              "type": "string"
            },
            {
              "internalType": "string",
              "name": "categoryId",
              "type": "string"
            },
            {
              "internalType": "uint256",
              "name": "targetFunds",
              "type": "uint256"
            },
            {
              "internalType": "uint256",
              "name": "startTime",
              "type": "uint256"
            },
            {
              "internalType": "uint256",
              "name": "deadline",
              "type": "uint256"
            },
            {
              "internalType": "uint256",
              "name": "raisedFunds",
              "type": "uint256"
            },
            {
              "internalType": "uint256",
              "name": "remainingFunds",
              "type": "uint256"
            },
            {
              "internalType": "uint256",
              "name": "noOfContributors",
              "type": "uint256"
            }
          ],
          "internalType": "struct Campaign.CampaignStructre[]",
          "name": "",
          "type": "tuple[]"
        }
      ],
      "stateMutability": "view",
      "type": "function"
    },
    {
      "inputs": [],
      "name": "sendFunds",
      "outputs": [],
      "stateMutability": "payable",
      "type": "function"
    },
    {
      "inputs": [],
      "name": "getRaisedFunds",
      "outputs": [
        {
          "internalType": "uint256",
          "name": "",
          "type": "uint256"
        }
      ],
      "stateMutability": "view",
      "type": "function"
    },
    {
      "inputs": [],
      "name": "getContractOwner",
      "outputs": [
        {
          "internalType": "address",
          "name": "",
          "type": "address"
        }
      ],
      "stateMutability": "view",
      "type": "function"
    },
    {
      "inputs": [],
      "name": "getRemainingFunds",
      "outputs": [
        {
          "internalType": "uint256",
          "name": "",
          "type": "uint256"
        }
      ],
      "stateMutability": "view",
      "type": "function"
    },
    {
      "inputs": [],
      "name": "getTotalContributors",
      "outputs": [
        {
          "internalType": "uint256",
          "name": "",
          "type": "uint256"
        }
      ],
      "stateMutability": "view",
      "type": "function"
    },
    {
      "inputs": [
        {
          "internalType": "address",
          "name": "_address",
          "type": "address"
        }
      ],
      "name": "isContibutors",
      "outputs": [
        {
          "internalType": "bool",
          "name": "",
          "type": "bool"
        }
      ],
      "stateMutability": "view",
      "type": "function"
    },
    {
      "inputs": [
        {
          "internalType": "address",
          "name": "_address",
          "type": "address"
        }
      ],
      "name": "getFundsOfContributor",
      "outputs": [
        {
          "internalType": "uint256",
          "name": "",
          "type": "uint256"
        }
      ],
      "stateMutability": "view",
      "type": "function"
    },
    {
      "inputs": [
        {
          "internalType": "address",
          "name": "_address",
          "type": "address"
        }
      ],
      "name": "withdrawFunds",
      "outputs": [],
      "stateMutability": "nonpayable",
      "type": "function"
    }
  ],
  "bytecode": "0x60806040523480156200001157600080fd5b506040516200280b3803806200280b8339818101604052810190620000379190620006a2565b86600190805190602001906200004f9291906200041a565b508560029080519060200190620000689291906200041a565b508460039080519060200190620000819291906200041a565b5083600490805190602001906200009a9291906200041a565b50826005819055508042620000b0919062000800565b60068190555081600654620000c6919062000800565b600781905550336000806101000a81548173ffffffffffffffffffffffffffffffffffffffff021916908373ffffffffffffffffffffffffffffffffffffffff16021790555060006040518061016001604052803373ffffffffffffffffffffffffffffffffffffffff1681526020018981526020018881526020018781526020018681526020018581526020016006548152602001600754815260200160085481526020016005548152602001600954815250905080600c60003073ffffffffffffffffffffffffffffffffffffffff1673ffffffffffffffffffffffffffffffffffffffff16815260200190815260200160002060008201518160000160006101000a81548173ffffffffffffffffffffffffffffffffffffffff021916908373ffffffffffffffffffffffffffffffffffffffff1602179055506020820151816001019080519060200190620002219291906200041a565b506040820151816002019080519060200190620002409291906200041a565b5060608201518160030190805190602001906200025f9291906200041a565b5060808201518160040190805190602001906200027e9291906200041a565b5060a0820151816005015560c0820151816006015560e082015181600701556101008201518160080155610120820151816009015561014082015181600a0155905050600d8190806001815401808255809150506001900390600052602060002090600b020160009091909190915060008201518160000160006101000a81548173ffffffffffffffffffffffffffffffffffffffff021916908373ffffffffffffffffffffffffffffffffffffffff1602179055506020820151816001019080519060200190620003529291906200041a565b506040820151816002019080519060200190620003719291906200041a565b506060820151816003019080519060200190620003909291906200041a565b506080820151816004019080519060200190620003af9291906200041a565b5060a0820151816005015560c0820151816006015560e082015181600701556101008201518160080155610120820151816009015561014082015181600a015550506000600b60006101000a81548160ff0219169083151502179055505050505050505050620008c1565b82805462000428906200088c565b90600052602060002090601f0160209004810192826200044c576000855562000498565b82601f106200046757805160ff191683800117855562000498565b8280016001018555821562000498579182015b82811115620004975782518255916020019190600101906200047a565b5b509050620004a79190620004ab565b5090565b5b80821115620004c6576000816000905550600101620004ac565b5090565b6000604051905090565b600080fd5b600080fd5b600080fd5b600080fd5b6000601f19601f8301169050919050565b7f4e487b7100000000000000000000000000000000000000000000000000000000600052604160045260246000fd5b6200053382620004e8565b810181811067ffffffffffffffff82111715620005555762000554620004f9565b5b80604052505050565b60006200056a620004ca565b905062000578828262000528565b919050565b600067ffffffffffffffff8211156200059b576200059a620004f9565b5b620005a682620004e8565b9050602081019050919050565b60005b83811015620005d3578082015181840152602081019050620005b6565b83811115620005e3576000848401525b50505050565b600062000600620005fa846200057d565b6200055e565b9050828152602081018484840111156200061f576200061e620004e3565b5b6200062c848285620005b3565b509392505050565b600082601f8301126200064c576200064b620004de565b5b81516200065e848260208601620005e9565b91505092915050565b6000819050919050565b6200067c8162000667565b81146200068857600080fd5b50565b6000815190506200069c8162000671565b92915050565b600080600080600080600060e0888a031215620006c457620006c3620004d4565b5b600088015167ffffffffffffffff811115620006e557620006e4620004d9565b5b620006f38a828b0162000634565b975050602088015167ffffffffffffffff811115620007175762000716620004d9565b5b620007258a828b0162000634565b965050604088015167ffffffffffffffff811115620007495762000748620004d9565b5b620007578a828b0162000634565b955050606088015167ffffffffffffffff8111156200077b576200077a620004d9565b5b620007898a828b0162000634565b94505060806200079c8a828b016200068b565b93505060a0620007af8a828b016200068b565b92505060c0620007c28a828b016200068b565b91505092959891949750929550565b7f4e487b7100000000000000000000000000000000000000000000000000000000600052601160045260246000fd5b60006200080d8262000667565b91506200081a8362000667565b9250827fffffffffffffffffffffffffffffffffffffffffffffffffffffffffffffffff03821115620008525762000851620007d1565b5b828201905092915050565b7f4e487b7100000000000000000000000000000000000000000000000000000000600052602260045260246000fd5b60006002820490506001821680620008a557607f821691505b602082108103620008bb57620008ba6200085d565b5b50919050565b611f3a80620008d16000396000f3fe6080604052600436106100a75760003560e01c8063833687eb11610064578063833687eb146101be5780638d68cf59146101e95780639162de52146101f3578063dc58a56c1461023a578063f004177a14610265578063f44954d714610290576100a7565b80630c611f24146100ac57806318d3ce96146100d757806332a2c5d014610102578063442890d51461012d57806368742da6146101585780638185adf814610181575b600080fd5b3480156100b857600080fd5b506100c16102cd565b6040516100ce9190611588565b60405180910390f35b3480156100e357600080fd5b506100ec6105ff565b6040516100f99190611770565b60405180910390f35b34801561010e57600080fd5b50610117610939565b60405161012491906117a1565b60405180910390f35b34801561013957600080fd5b50610142610941565b60405161014f91906117a1565b60405180910390f35b34801561016457600080fd5b5061017f600480360381019061017a91906117ed565b61096a565b005b34801561018d57600080fd5b506101a860048036038101906101a391906117ed565b610b00565b6040516101b59190611829565b60405180910390f35b3480156101ca57600080fd5b506101d3610b49565b6040516101e09190611829565b60405180910390f35b6101f1610b60565b005b3480156101ff57600080fd5b5061021a600480360381019061021591906117ed565b611019565b6040516102319b9a9998979695949392919061188e565b60405180910390f35b34801561024657600080fd5b5061024f6112b3565b60405161025c9190611829565b60405180910390f35b34801561027157600080fd5b5061027a6112bd565b6040516102879190611829565b60405180910390f35b34801561029c57600080fd5b506102b760048036038101906102b291906117ed565b6112c5565b6040516102c49190611970565b60405180910390f35b6102d5611321565b600c60003073ffffffffffffffffffffffffffffffffffffffff1673ffffffffffffffffffffffffffffffffffffffff168152602001908152602001600020604051806101600160405290816000820160009054906101000a900473ffffffffffffffffffffffffffffffffffffffff1673ffffffffffffffffffffffffffffffffffffffff1673ffffffffffffffffffffffffffffffffffffffff168152602001600182018054610386906119ba565b80601f01602080910402602001604051908101604052809291908181526020018280546103b2906119ba565b80156103ff5780601f106103d4576101008083540402835291602001916103ff565b820191906000526020600020905b8154815290600101906020018083116103e257829003601f168201915b50505050508152602001600282018054610418906119ba565b80601f0160208091040260200160405190810160405280929190818152602001828054610444906119ba565b80156104915780601f1061046657610100808354040283529160200191610491565b820191906000526020600020905b81548152906001019060200180831161047457829003601f168201915b505050505081526020016003820180546104aa906119ba565b80601f01602080910402602001604051908101604052809291908181526020018280546104d6906119ba565b80156105235780601f106104f857610100808354040283529160200191610523565b820191906000526020600020905b81548152906001019060200180831161050657829003601f168201915b5050505050815260200160048201805461053c906119ba565b80601f0160208091040260200160405190810160405280929190818152602001828054610568906119ba565b80156105b55780601f1061058a576101008083540402835291602001916105b5565b820191906000526020600020905b81548152906001019060200180831161059857829003601f168201915b505050505081526020016005820154815260200160068201548152602001600782015481526020016008820154815260200160098201548152602001600a82015481525050905090565b6060600d805480602002602001604051908101604052809291908181526020016000905b8282101561093057838290600052602060002090600b0201604051806101600160405290816000820160009054906101000a900473ffffffffffffffffffffffffffffffffffffffff1673ffffffffffffffffffffffffffffffffffffffff1673ffffffffffffffffffffffffffffffffffffffff1681526020016001820180546106ad906119ba565b80601f01602080910402602001604051908101604052809291908181526020018280546106d9906119ba565b80156107265780601f106106fb57610100808354040283529160200191610726565b820191906000526020600020905b81548152906001019060200180831161070957829003601f168201915b5050505050815260200160028201805461073f906119ba565b80601f016020809104026020016040519081016040528092919081815260200182805461076b906119ba565b80156107b85780601f1061078d576101008083540402835291602001916107b8565b820191906000526020600020905b81548152906001019060200180831161079b57829003601f168201915b505050505081526020016003820180546107d1906119ba565b80601f01602080910402602001604051908101604052809291908181526020018280546107fd906119ba565b801561084a5780601f1061081f5761010080835404028352916020019161084a565b820191906000526020600020905b81548152906001019060200180831161082d57829003601f168201915b50505050508152602001600482018054610863906119ba565b80601f016020809104026020016040519081016040528092919081815260200182805461088f906119ba565b80156108dc5780601f106108b1576101008083540402835291602001916108dc565b820191906000526020600020905b8154815290600101906020018083116108bf57829003601f168201915b505050505081526020016005820154815260200160068201548152602001600782015481526020016008820154815260200160098201548152602001600a8201548152505081526020019060010190610623565b50505050905090565b600030905090565b60008060009054906101000a900473ffffffffffffffffffffffffffffffffffffffff16905090565b60001515600b60009054906101000a900460ff161515146109c0576040517f08c379a00000000000000000000000000000000000000000000000000000000081526004016109b790611a37565b60405180910390fd5b60008054906101000a900473ffffffffffffffffffffffffffffffffffffffff1673ffffffffffffffffffffffffffffffffffffffff168173ffffffffffffffffffffffffffffffffffffffff1614610a4e576040517f08c379a0000000000000000000000000000000000000000000000000000000008152600401610a4590611aa3565b60405180910390fd5b600060085411610a93576040517f08c379a0000000000000000000000000000000000000000000000000000000008152600401610a8a90611b0f565b60405180910390fd5b60008190508073ffffffffffffffffffffffffffffffffffffffff166108fc6008549081150290604051600060405180830381858888f19350505050158015610ae0573d6000803e3d6000fd5b506001600b60006101000a81548160ff0219169083151502179055505050565b6000600a60008373ffffffffffffffffffffffffffffffffffffffff1673ffffffffffffffffffffffffffffffffffffffff168152602001908152602001600020549050919050565b6000600854600554610b5b9190611b5e565b905090565b60001515600b60009054906101000a900460ff16151514610bb6576040517f08c379a0000000000000000000000000000000000000000000000000000000008152600401610bad90611a37565b60405180910390fd5b6006544211610bfa576040517f08c379a0000000000000000000000000000000000000000000000000000000008152600401610bf190611bde565b60405180910390fd5b6007544210610c3e576040517f08c379a0000000000000000000000000000000000000000000000000000000008152600401610c3590611c4a565b60405180910390fd5b60003411610c81576040517f08c379a0000000000000000000000000000000000000000000000000000000008152600401610c7890611cb6565b60405180910390fd5b6005546008541115610cc8576040517f08c379a0000000000000000000000000000000000000000000000000000000008152600401610cbf90611d22565b60405180910390fd5b600554341115610d0d576040517f08c379a0000000000000000000000000000000000000000000000000000000008152600401610d0490611db4565b60405180910390fd5b60008054906101000a900473ffffffffffffffffffffffffffffffffffffffff1673ffffffffffffffffffffffffffffffffffffffff163373ffffffffffffffffffffffffffffffffffffffff1603610d9b576040517f08c379a0000000000000000000000000000000000000000000000000000000008152600401610d9290611e46565b60405180910390fd5b6000600a60003373ffffffffffffffffffffffffffffffffffffffff1673ffffffffffffffffffffffffffffffffffffffff1681526020019081526020016000205403610dfb5760096000815480929190610df590611e66565b91905055505b34600a60003373ffffffffffffffffffffffffffffffffffffffff1673ffffffffffffffffffffffffffffffffffffffff1681526020019081526020016000206000828254610e4a9190611eae565b925050819055503460086000828254610e639190611eae565b925050819055506005546008541115610f2f5760003390508073ffffffffffffffffffffffffffffffffffffffff166108fc600554600854610ea59190611b5e565b9081150290604051600060405180830381858888f19350505050158015610ed0573d6000803e3d6000fd5b50600554600881905550600554600854610eea9190611b5e565b600a60003373ffffffffffffffffffffffffffffffffffffffff1673ffffffffffffffffffffffffffffffffffffffff16815260200190815260200160002081905550505b600854600c60003073ffffffffffffffffffffffffffffffffffffffff1673ffffffffffffffffffffffffffffffffffffffff16815260200190815260200160002060080181905550600954600c60003073ffffffffffffffffffffffffffffffffffffffff1673ffffffffffffffffffffffffffffffffffffffff168152602001908152602001600020600a0181905550600854600554610fd19190611b5e565b600c60003073ffffffffffffffffffffffffffffffffffffffff1673ffffffffffffffffffffffffffffffffffffffff16815260200190815260200160002060090181905550565b600c6020528060005260406000206000915090508060000160009054906101000a900473ffffffffffffffffffffffffffffffffffffffff1690806001018054611062906119ba565b80601f016020809104026020016040519081016040528092919081815260200182805461108e906119ba565b80156110db5780601f106110b0576101008083540402835291602001916110db565b820191906000526020600020905b8154815290600101906020018083116110be57829003601f168201915b5050505050908060020180546110f0906119ba565b80601f016020809104026020016040519081016040528092919081815260200182805461111c906119ba565b80156111695780601f1061113e57610100808354040283529160200191611169565b820191906000526020600020905b81548152906001019060200180831161114c57829003601f168201915b50505050509080600301805461117e906119ba565b80601f01602080910402602001604051908101604052809291908181526020018280546111aa906119ba565b80156111f75780601f106111cc576101008083540402835291602001916111f7565b820191906000526020600020905b8154815290600101906020018083116111da57829003601f168201915b50505050509080600401805461120c906119ba565b80601f0160208091040260200160405190810160405280929190818152602001828054611238906119ba565b80156112855780601f1061125a57610100808354040283529160200191611285565b820191906000526020600020905b81548152906001019060200180831161126857829003601f168201915b50505050509080600501549080600601549080600701549080600801549080600901549080600a015490508b565b6000600954905090565b600047905090565b600080600a60008473ffffffffffffffffffffffffffffffffffffffff1673ffffffffffffffffffffffffffffffffffffffff168152602001908152602001600020541115611317576001905061131c565b600090505b919050565b604051806101600160405280600073ffffffffffffffffffffffffffffffffffffffff168152602001606081526020016060815260200160608152602001606081526020016000815260200160008152602001600081526020016000815260200160008152602001600081525090565b600073ffffffffffffffffffffffffffffffffffffffff82169050919050565b60006113bc82611391565b9050919050565b6113cc816113b1565b82525050565b600081519050919050565b600082825260208201905092915050565b60005b8381101561140c5780820151818401526020810190506113f1565b8381111561141b576000848401525b50505050565b6000601f19601f8301169050919050565b600061143d826113d2565b61144781856113dd565b93506114578185602086016113ee565b61146081611421565b840191505092915050565b6000819050919050565b61147e8161146b565b82525050565b60006101608301600083015161149d60008601826113c3565b50602083015184820360208601526114b58282611432565b915050604083015184820360408601526114cf8282611432565b915050606083015184820360608601526114e98282611432565b915050608083015184820360808601526115038282611432565b91505060a083015161151860a0860182611475565b5060c083015161152b60c0860182611475565b5060e083015161153e60e0860182611475565b50610100830151611553610100860182611475565b50610120830151611568610120860182611475565b5061014083015161157d610140860182611475565b508091505092915050565b600060208201905081810360008301526115a28184611484565b905092915050565b600081519050919050565b600082825260208201905092915050565b6000819050602082019050919050565b6000610160830160008301516115ef60008601826113c3565b50602083015184820360208601526116078282611432565b915050604083015184820360408601526116218282611432565b9150506060830151848203606086015261163b8282611432565b915050608083015184820360808601526116558282611432565b91505060a083015161166a60a0860182611475565b5060c083015161167d60c0860182611475565b5060e083015161169060e0860182611475565b506101008301516116a5610100860182611475565b506101208301516116ba610120860182611475565b506101408301516116cf610140860182611475565b508091505092915050565b60006116e683836115d6565b905092915050565b6000602082019050919050565b6000611706826115aa565b61171081856115b5565b935083602082028501611722856115c6565b8060005b8581101561175e578484038952815161173f85826116da565b945061174a836116ee565b925060208a01995050600181019050611726565b50829750879550505050505092915050565b6000602082019050818103600083015261178a81846116fb565b905092915050565b61179b816113b1565b82525050565b60006020820190506117b66000830184611792565b92915050565b600080fd5b6117ca816113b1565b81146117d557600080fd5b50565b6000813590506117e7816117c1565b92915050565b600060208284031215611803576118026117bc565b5b6000611811848285016117d8565b91505092915050565b6118238161146b565b82525050565b600060208201905061183e600083018461181a565b92915050565b600082825260208201905092915050565b6000611860826113d2565b61186a8185611844565b935061187a8185602086016113ee565b61188381611421565b840191505092915050565b6000610160820190506118a4600083018e611792565b81810360208301526118b6818d611855565b905081810360408301526118ca818c611855565b905081810360608301526118de818b611855565b905081810360808301526118f2818a611855565b905061190160a083018961181a565b61190e60c083018861181a565b61191b60e083018761181a565b61192961010083018661181a565b61193761012083018561181a565b61194561014083018461181a565b9c9b505050505050505050505050565b60008115159050919050565b61196a81611955565b82525050565b60006020820190506119856000830184611961565b92915050565b7f4e487b7100000000000000000000000000000000000000000000000000000000600052602260045260246000fd5b600060028204905060018216806119d257607f821691505b6020821081036119e5576119e461198b565b5b50919050565b7f43616d706169676e2068617320636c6f7365642e000000000000000000000000600082015250565b6000611a21601483611844565b9150611a2c826119eb565b602082019050919050565b60006020820190508181036000830152611a5081611a14565b9050919050565b7f4f6e6c7920637265617465722063616e2077697468647261772066756e64732e600082015250565b6000611a8d602083611844565b9150611a9882611a57565b602082019050919050565b60006020820190508181036000830152611abc81611a80565b9050919050565b7f4e6f7420656e6f7567682062616c616e636520746f2077697468647261772e00600082015250565b6000611af9601f83611844565b9150611b0482611ac3565b602082019050919050565b60006020820190508181036000830152611b2881611aec565b9050919050565b7f4e487b7100000000000000000000000000000000000000000000000000000000600052601160045260246000fd5b6000611b698261146b565b9150611b748361146b565b925082821015611b8757611b86611b2f565b5b828203905092915050565b7f4e6f742073746172746564207965742e00000000000000000000000000000000600082015250565b6000611bc8601083611844565b9150611bd382611b92565b602082019050919050565b60006020820190508181036000830152611bf781611bbb565b9050919050565b7f446561646c696e6520686173207061737365642e000000000000000000000000600082015250565b6000611c34601483611844565b9150611c3f82611bfe565b602082019050919050565b60006020820190508181036000830152611c6381611c27565b9050919050565b7f506c656173652073656e642076616c69642066756e64732e0000000000000000600082015250565b6000611ca0601883611844565b9150611cab82611c6a565b602082019050919050565b60006020820190508181036000830152611ccf81611c93565b9050919050565b7f54617267657420676f616c20686173206265656e2061636865697665642e0000600082015250565b6000611d0c601e83611844565b9150611d1782611cd6565b602082019050919050565b60006020820190508181036000830152611d3b81611cff565b9050919050565b7f506c6561736520636865636b2074617267657420616d6f756e7420616e64207460008201527f68656e207061792e000000000000000000000000000000000000000000000000602082015250565b6000611d9e602883611844565b9150611da982611d42565b604082019050919050565b60006020820190508181036000830152611dcd81611d91565b9050919050565b7f43726561746f722063616e206e6f742066756e6420686973206f776e2063616d60008201527f7061696e67732e00000000000000000000000000000000000000000000000000602082015250565b6000611e30602783611844565b9150611e3b82611dd4565b604082019050919050565b60006020820190508181036000830152611e5f81611e23565b9050919050565b6000611e718261146b565b91507fffffffffffffffffffffffffffffffffffffffffffffffffffffffffffffffff8203611ea357611ea2611b2f565b5b600182019050919050565b6000611eb98261146b565b9150611ec48361146b565b9250827fffffffffffffffffffffffffffffffffffffffffffffffffffffffffffffffff03821115611ef957611ef8611b2f565b5b82820190509291505056fea264697066735822122021e57ba1df7b251d81a0f587ba601b10f4896ae8359f1c239d7694dc778eade664736f6c634300080d0033",
  "immutableReferences": {},
  "source": "//SPDX-License-Identifier: UNLICENSED\npragma solidity ^0.8.13;\n\ncontract Campaign {\n    address campaignCreator;\n    string userId;\n    string title;\n    string description;\n    string categoryId;\n    uint256 targetFunds;\n    uint256 startTime;\n    uint256 deadline;\n    uint256 raisedFunds;\n    uint256 noOfContributors;\n    mapping(address => uint256) contributorsList;\n\n    bool isWithdrawOnce;\n\n    struct CampaignStructre {\n        address creator;\n        string userId;\n        string title;\n        string description;\n        string categoryId;\n        uint256 targetFunds;\n        uint256 startTime;\n        uint256 deadline;\n        uint256 raisedFunds;\n        uint256 remainingFunds;\n        uint256 noOfContributors;\n    }\n\n    mapping(address => CampaignStructre) public contractsMapList;\n\n    CampaignStructre[] contractsStructList;\n\n    constructor(\n        string memory _userId,\n        string memory _title,\n        string memory _description,\n        string memory _categoryId,\n        uint256 _targetFunds,\n        uint256 _deadline,\n        uint256 _startTime\n    ) {\n        userId = _userId;\n        title = _title;\n        description = _description;\n        categoryId = _categoryId;\n        targetFunds = _targetFunds;\n        startTime = block.timestamp + _startTime;\n        deadline = startTime + _deadline;\n        campaignCreator = msg.sender;\n\n        CampaignStructre memory campaignStructre = CampaignStructre(\n            msg.sender,\n            _userId,\n            _title,\n            _description,\n            _categoryId,\n            _targetFunds,\n            startTime,\n            deadline,\n            raisedFunds,\n            targetFunds,\n            noOfContributors\n        );\n\n        contractsMapList[address(this)] = campaignStructre;\n\n        contractsStructList.push(campaignStructre);\n\n        isWithdrawOnce = false;\n    }\n\n    function getContractAddress() public view returns (address) {\n        return address(this);\n    }\n\n    function getCampaignDetails()\n        public\n        view\n        returns (CampaignStructre memory)\n    {\n        return contractsMapList[address(this)];\n    }\n\n    function getAllContracts() public view returns (CampaignStructre[] memory) {\n        return contractsStructList;\n    }\n\n    function sendFunds() public payable {\n        require(isWithdrawOnce == false, \"Campaign has closed.\");\n\n        require(block.timestamp > startTime, \"Not started yet.\");\n\n        require(block.timestamp < deadline, \"Deadline has passed.\");\n\n        require(msg.value > 0, \"Please send valid funds.\");\n\n        require(raisedFunds <= targetFunds, \"Target goal has been acheived.\");\n\n        require(\n            msg.value <= targetFunds,\n            \"Please check target amount and then pay.\"\n        );\n\n        require(\n            msg.sender != campaignCreator,\n            \"Creator can not fund his own campaings.\"\n        );\n\n        if (contributorsList[msg.sender] == 0) {\n            noOfContributors++;\n        }\n\n        contributorsList[msg.sender] += msg.value;\n\n        raisedFunds += msg.value;\n\n        if (raisedFunds > targetFunds) {\n            address payable lastFunder = payable(msg.sender);\n            lastFunder.transfer(raisedFunds - targetFunds);\n            raisedFunds = targetFunds;\n            contributorsList[msg.sender] = raisedFunds - targetFunds;\n        }\n\n        contractsMapList[address(this)].raisedFunds = raisedFunds;\n        contractsMapList[address(this)].noOfContributors = noOfContributors;\n        contractsMapList[address(this)].remainingFunds =\n            targetFunds -\n            raisedFunds;\n    }\n\n    function getRaisedFunds() public view returns (uint256) {\n        return address(this).balance;\n    }\n\n    function getContractOwner() public view returns (address) {\n        return campaignCreator;\n    }\n\n    function getRemainingFunds() public view returns (uint256) {\n        return targetFunds - raisedFunds;\n    }\n\n    function getTotalContributors() public view returns (uint256) {\n        return noOfContributors;\n    }\n\n    function isContibutors(address _address) public view returns (bool) {\n        if (contributorsList[_address] > 0) {\n            return true;\n        } else {\n            return false;\n        }\n    }\n\n    function getFundsOfContributor(\n        address _address\n    ) public view returns (uint256) {\n        return contributorsList[_address];\n    }\n\n    function withdrawFunds(address _address) public {\n        require(isWithdrawOnce == false, \"Campaign has closed.\");\n\n        require(\n            _address == campaignCreator,\n            \"Only creater can withdraw funds.\"\n        );\n        require(raisedFunds > 0, \"Not enough balance to withdraw.\");\n        address payable owner = payable(_address);\n        owner.transfer(raisedFunds);\n        isWithdrawOnce = true;\n    }\n}\n",
  "sourcePath": "/Users/ali/Projects/FYP/helping-hands-apis/contracts/Campaign.sol",
  "compiler": {
    "name": "solc",
    "version": "0.8.13+commit.abaa5c0e.Emscripten.clang"
  },
  "schemaVersion": "3.4.11",
  "updatedAt": "2023-05-05T23:01:50.413Z",
  "devdoc": {
    "kind": "dev",
    "methods": {},
    "version": 1
  },
  "userdoc": {
    "kind": "user",
    "methods": {},
    "version": 1
  }
}