{
  "contractName": "Campaign",
  "abi": [
    {
      "inputs": [
        {
          "internalType": "uint256",
          "name": "_userId",
          "type": "uint256"
        },
        {
          "internalType": "string",
          "name": "_title",
          "type": "string"
        },
        {
          "internalType": "string",
          "name": "_description",
          "type": "string"
        },
        {
          "internalType": "string",
          "name": "_categoryId",
          "type": "string"
        },
        {
          "internalType": "uint256",
          "name": "_targetFunds",
          "type": "uint256"
        },
        {
          "internalType": "uint256",
          "name": "_deadline",
          "type": "uint256"
        },
        {
          "internalType": "uint256",
          "name": "_startTime",
          "type": "uint256"
        }
      ],
      "stateMutability": "nonpayable",
      "type": "constructor"
    },
    {
      "inputs": [
        {
          "internalType": "address",
          "name": "",
          "type": "address"
        }
      ],
      "name": "contractsMapList",
      "outputs": [
        {
          "internalType": "address",
          "name": "creator",
          "type": "address"
        },
        {
          "internalType": "uint256",
          "name": "userId",
          "type": "uint256"
        },
        {
          "internalType": "string",
          "name": "title",
          "type": "string"
        },
        {
          "internalType": "string",
          "name": "description",
          "type": "string"
        },
        {
          "internalType": "string",
          "name": "categoryId",
          "type": "string"
        },
        {
          "internalType": "uint256",
          "name": "targetFunds",
          "type": "uint256"
        },
        {
          "internalType": "uint256",
          "name": "startTime",
          "type": "uint256"
        },
        {
          "internalType": "uint256",
          "name": "deadline",
          "type": "uint256"
        },
        {
          "internalType": "uint256",
          "name": "raisedFunds",
          "type": "uint256"
        },
        {
          "internalType": "uint256",
          "name": "remainingFunds",
          "type": "uint256"
        },
        {
          "internalType": "uint256",
          "name": "noOfContributors",
          "type": "uint256"
        }
      ],
      "stateMutability": "view",
      "type": "function"
    },
    {
      "inputs": [],
      "name": "getContractAddress",
      "outputs": [
        {
          "internalType": "address",
          "name": "",
          "type": "address"
        }
      ],
      "stateMutability": "view",
      "type": "function"
    },
    {
      "inputs": [],
      "name": "getCampaignDetails",
      "outputs": [
        {
          "components": [
            {
              "internalType": "address",
              "name": "creator",
              "type": "address"
            },
            {
              "internalType": "uint256",
              "name": "userId",
              "type": "uint256"
            },
            {
              "internalType": "string",
              "name": "title",
              "type": "string"
            },
            {
              "internalType": "string",
              "name": "description",
              "type": "string"
            },
            {
              "internalType": "string",
              "name": "categoryId",
              "type": "string"
            },
            {
              "internalType": "uint256",
              "name": "targetFunds",
              "type": "uint256"
            },
            {
              "internalType": "uint256",
              "name": "startTime",
              "type": "uint256"
            },
            {
              "internalType": "uint256",
              "name": "deadline",
              "type": "uint256"
            },
            {
              "internalType": "uint256",
              "name": "raisedFunds",
              "type": "uint256"
            },
            {
              "internalType": "uint256",
              "name": "remainingFunds",
              "type": "uint256"
            },
            {
              "internalType": "uint256",
              "name": "noOfContributors",
              "type": "uint256"
            }
          ],
          "internalType": "struct Campaign.CampaignStructre",
          "name": "",
          "type": "tuple"
        }
      ],
      "stateMutability": "view",
      "type": "function"
    },
    {
      "inputs": [],
      "name": "getAllContracts",
      "outputs": [
        {
          "components": [
            {
              "internalType": "address",
              "name": "creator",
              "type": "address"
            },
            {
              "internalType": "uint256",
              "name": "userId",
              "type": "uint256"
            },
            {
              "internalType": "string",
              "name": "title",
              "type": "string"
            },
            {
              "internalType": "string",
              "name": "description",
              "type": "string"
            },
            {
              "internalType": "string",
              "name": "categoryId",
              "type": "string"
            },
            {
              "internalType": "uint256",
              "name": "targetFunds",
              "type": "uint256"
            },
            {
              "internalType": "uint256",
              "name": "startTime",
              "type": "uint256"
            },
            {
              "internalType": "uint256",
              "name": "deadline",
              "type": "uint256"
            },
            {
              "internalType": "uint256",
              "name": "raisedFunds",
              "type": "uint256"
            },
            {
              "internalType": "uint256",
              "name": "remainingFunds",
              "type": "uint256"
            },
            {
              "internalType": "uint256",
              "name": "noOfContributors",
              "type": "uint256"
            }
          ],
          "internalType": "struct Campaign.CampaignStructre[]",
          "name": "",
          "type": "tuple[]"
        }
      ],
      "stateMutability": "view",
      "type": "function"
    },
    {
      "inputs": [],
      "name": "sendFunds",
      "outputs": [],
      "stateMutability": "payable",
      "type": "function"
    },
    {
      "inputs": [],
      "name": "getRaisedFunds",
      "outputs": [
        {
          "internalType": "uint256",
          "name": "",
          "type": "uint256"
        }
      ],
      "stateMutability": "view",
      "type": "function"
    },
    {
      "inputs": [],
      "name": "getContractOwner",
      "outputs": [
        {
          "internalType": "address",
          "name": "",
          "type": "address"
        }
      ],
      "stateMutability": "view",
      "type": "function"
    },
    {
      "inputs": [],
      "name": "getRemainingFunds",
      "outputs": [
        {
          "internalType": "uint256",
          "name": "",
          "type": "uint256"
        }
      ],
      "stateMutability": "view",
      "type": "function"
    },
    {
      "inputs": [],
      "name": "getTotalContributors",
      "outputs": [
        {
          "internalType": "uint256",
          "name": "",
          "type": "uint256"
        }
      ],
      "stateMutability": "view",
      "type": "function"
    },
    {
      "inputs": [
        {
          "internalType": "address",
          "name": "_address",
          "type": "address"
        }
      ],
      "name": "isContibutors",
      "outputs": [
        {
          "internalType": "bool",
          "name": "",
          "type": "bool"
        }
      ],
      "stateMutability": "view",
      "type": "function"
    },
    {
      "inputs": [
        {
          "internalType": "address",
          "name": "_address",
          "type": "address"
        }
      ],
      "name": "getFundsOfContributor",
      "outputs": [
        {
          "internalType": "uint256",
          "name": "",
          "type": "uint256"
        }
      ],
      "stateMutability": "view",
      "type": "function"
    },
    {
      "inputs": [
        {
          "internalType": "address",
          "name": "_address",
          "type": "address"
        }
      ],
      "name": "withdrawFunds",
      "outputs": [],
      "stateMutability": "nonpayable",
      "type": "function"
    }
  ],
  "bytecode": "0x60806040523480156200001157600080fd5b506040516200260338038062002603833981810160405281019062000037919062000666565b86600181905550856002908051906020019062000056929190620003de565b5084600390805190602001906200006f929190620003de565b50836004908051906020019062000088929190620003de565b508260058190555080426200009e9190620007a5565b60068190555081600654620000b49190620007a5565b600781905550336000806101000a81548173ffffffffffffffffffffffffffffffffffffffff021916908373ffffffffffffffffffffffffffffffffffffffff16021790555060006040518061016001604052803373ffffffffffffffffffffffffffffffffffffffff1681526020018981526020018881526020018781526020018681526020018581526020016006548152602001600754815260200160085481526020016005548152602001600954815250905080600c60003073ffffffffffffffffffffffffffffffffffffffff1673ffffffffffffffffffffffffffffffffffffffff16815260200190815260200160002060008201518160000160006101000a81548173ffffffffffffffffffffffffffffffffffffffff021916908373ffffffffffffffffffffffffffffffffffffffff16021790555060208201518160010155604082015181600201908051906020019062000219929190620003de565b50606082015181600301908051906020019062000238929190620003de565b50608082015181600401908051906020019062000257929190620003de565b5060a0820151816005015560c0820151816006015560e082015181600701556101008201518160080155610120820151816009015561014082015181600a0155905050600d8190806001815401808255809150506001900390600052602060002090600b020160009091909190915060008201518160000160006101000a81548173ffffffffffffffffffffffffffffffffffffffff021916908373ffffffffffffffffffffffffffffffffffffffff16021790555060208201518160010155604082015181600201908051906020019062000335929190620003de565b50606082015181600301908051906020019062000354929190620003de565b50608082015181600401908051906020019062000373929190620003de565b5060a0820151816005015560c0820151816006015560e082015181600701556101008201518160080155610120820151816009015561014082015181600a015550506000600b60006101000a81548160ff021916908315150217905550505050505050505062000866565b828054620003ec9062000831565b90600052602060002090601f0160209004810192826200041057600085556200045c565b82601f106200042b57805160ff19168380011785556200045c565b828001600101855582156200045c579182015b828111156200045b5782518255916020019190600101906200043e565b5b5090506200046b91906200046f565b5090565b5b808211156200048a57600081600090555060010162000470565b5090565b6000604051905090565b600080fd5b600080fd5b6000819050919050565b620004b781620004a2565b8114620004c357600080fd5b50565b600081519050620004d781620004ac565b92915050565b600080fd5b600080fd5b6000601f19601f8301169050919050565b7f4e487b7100000000000000000000000000000000000000000000000000000000600052604160045260246000fd5b6200053282620004e7565b810181811067ffffffffffffffff82111715620005545762000553620004f8565b5b80604052505050565b6000620005696200048e565b905062000577828262000527565b919050565b600067ffffffffffffffff8211156200059a5762000599620004f8565b5b620005a582620004e7565b9050602081019050919050565b60005b83811015620005d2578082015181840152602081019050620005b5565b83811115620005e2576000848401525b50505050565b6000620005ff620005f9846200057c565b6200055d565b9050828152602081018484840111156200061e576200061d620004e2565b5b6200062b848285620005b2565b509392505050565b600082601f8301126200064b576200064a620004dd565b5b81516200065d848260208601620005e8565b91505092915050565b600080600080600080600060e0888a03121562000688576200068762000498565b5b6000620006988a828b01620004c6565b975050602088015167ffffffffffffffff811115620006bc57620006bb6200049d565b5b620006ca8a828b0162000633565b965050604088015167ffffffffffffffff811115620006ee57620006ed6200049d565b5b620006fc8a828b0162000633565b955050606088015167ffffffffffffffff81111562000720576200071f6200049d565b5b6200072e8a828b0162000633565b9450506080620007418a828b01620004c6565b93505060a0620007548a828b01620004c6565b92505060c0620007678a828b01620004c6565b91505092959891949750929550565b7f4e487b7100000000000000000000000000000000000000000000000000000000600052601160045260246000fd5b6000620007b282620004a2565b9150620007bf83620004a2565b9250827fffffffffffffffffffffffffffffffffffffffffffffffffffffffffffffffff03821115620007f757620007f662000776565b5b828201905092915050565b7f4e487b7100000000000000000000000000000000000000000000000000000000600052602260045260246000fd5b600060028204905060018216806200084a57607f821691505b60208210810362000860576200085f62000802565b5b50919050565b611d8d80620008766000396000f3fe6080604052600436106100a75760003560e01c8063833687eb11610064578063833687eb146101be5780638d68cf59146101e95780639162de52146101f3578063dc58a56c1461023a578063f004177a14610265578063f44954d714610290576100a7565b80630c611f24146100ac57806318d3ce96146100d757806332a2c5d014610102578063442890d51461012d57806368742da6146101585780638185adf814610181575b600080fd5b3480156100b857600080fd5b506100c16102cd565b6040516100ce91906113e9565b60405180910390f35b3480156100e357600080fd5b506100ec610577565b6040516100f991906115ca565b60405180910390f35b34801561010e57600080fd5b50610117610829565b60405161012491906115fb565b60405180910390f35b34801561013957600080fd5b50610142610831565b60405161014f91906115fb565b60405180910390f35b34801561016457600080fd5b5061017f600480360381019061017a9190611647565b61085a565b005b34801561018d57600080fd5b506101a860048036038101906101a39190611647565b6109f0565b6040516101b59190611683565b60405180910390f35b3480156101ca57600080fd5b506101d3610a39565b6040516101e09190611683565b60405180910390f35b6101f1610a50565b005b3480156101ff57600080fd5b5061021a60048036038101906102159190611647565b610f09565b6040516102319b9a999897969594939291906116e8565b60405180910390f35b34801561024657600080fd5b5061024f61111b565b60405161025c9190611683565b60405180910390f35b34801561027157600080fd5b5061027a611125565b6040516102879190611683565b60405180910390f35b34801561029c57600080fd5b506102b760048036038101906102b29190611647565b61112d565b6040516102c491906117c3565b60405180910390f35b6102d5611189565b600c60003073ffffffffffffffffffffffffffffffffffffffff1673ffffffffffffffffffffffffffffffffffffffff168152602001908152602001600020604051806101600160405290816000820160009054906101000a900473ffffffffffffffffffffffffffffffffffffffff1673ffffffffffffffffffffffffffffffffffffffff1673ffffffffffffffffffffffffffffffffffffffff168152602001600182015481526020016002820180546103909061180d565b80601f01602080910402602001604051908101604052809291908181526020018280546103bc9061180d565b80156104095780601f106103de57610100808354040283529160200191610409565b820191906000526020600020905b8154815290600101906020018083116103ec57829003601f168201915b505050505081526020016003820180546104229061180d565b80601f016020809104026020016040519081016040528092919081815260200182805461044e9061180d565b801561049b5780601f106104705761010080835404028352916020019161049b565b820191906000526020600020905b81548152906001019060200180831161047e57829003601f168201915b505050505081526020016004820180546104b49061180d565b80601f01602080910402602001604051908101604052809291908181526020018280546104e09061180d565b801561052d5780601f106105025761010080835404028352916020019161052d565b820191906000526020600020905b81548152906001019060200180831161051057829003601f168201915b505050505081526020016005820154815260200160068201548152602001600782015481526020016008820154815260200160098201548152602001600a82015481525050905090565b6060600d805480602002602001604051908101604052809291908181526020016000905b8282101561082057838290600052602060002090600b0201604051806101600160405290816000820160009054906101000a900473ffffffffffffffffffffffffffffffffffffffff1673ffffffffffffffffffffffffffffffffffffffff1673ffffffffffffffffffffffffffffffffffffffff1681526020016001820154815260200160028201805461062f9061180d565b80601f016020809104026020016040519081016040528092919081815260200182805461065b9061180d565b80156106a85780601f1061067d576101008083540402835291602001916106a8565b820191906000526020600020905b81548152906001019060200180831161068b57829003601f168201915b505050505081526020016003820180546106c19061180d565b80601f01602080910402602001604051908101604052809291908181526020018280546106ed9061180d565b801561073a5780601f1061070f5761010080835404028352916020019161073a565b820191906000526020600020905b81548152906001019060200180831161071d57829003601f168201915b505050505081526020016004820180546107539061180d565b80601f016020809104026020016040519081016040528092919081815260200182805461077f9061180d565b80156107cc5780601f106107a1576101008083540402835291602001916107cc565b820191906000526020600020905b8154815290600101906020018083116107af57829003601f168201915b505050505081526020016005820154815260200160068201548152602001600782015481526020016008820154815260200160098201548152602001600a820154815250508152602001906001019061059b565b50505050905090565b600030905090565b60008060009054906101000a900473ffffffffffffffffffffffffffffffffffffffff16905090565b60001515600b60009054906101000a900460ff161515146108b0576040517f08c379a00000000000000000000000000000000000000000000000000000000081526004016108a79061188a565b60405180910390fd5b60008054906101000a900473ffffffffffffffffffffffffffffffffffffffff1673ffffffffffffffffffffffffffffffffffffffff168173ffffffffffffffffffffffffffffffffffffffff161461093e576040517f08c379a0000000000000000000000000000000000000000000000000000000008152600401610935906118f6565b60405180910390fd5b600060085411610983576040517f08c379a000000000000000000000000000000000000000000000000000000000815260040161097a90611962565b60405180910390fd5b60008190508073ffffffffffffffffffffffffffffffffffffffff166108fc6008549081150290604051600060405180830381858888f193505050501580156109d0573d6000803e3d6000fd5b506001600b60006101000a81548160ff0219169083151502179055505050565b6000600a60008373ffffffffffffffffffffffffffffffffffffffff1673ffffffffffffffffffffffffffffffffffffffff168152602001908152602001600020549050919050565b6000600854600554610a4b91906119b1565b905090565b60001515600b60009054906101000a900460ff16151514610aa6576040517f08c379a0000000000000000000000000000000000000000000000000000000008152600401610a9d9061188a565b60405180910390fd5b6006544211610aea576040517f08c379a0000000000000000000000000000000000000000000000000000000008152600401610ae190611a31565b60405180910390fd5b6007544210610b2e576040517f08c379a0000000000000000000000000000000000000000000000000000000008152600401610b2590611a9d565b60405180910390fd5b60003411610b71576040517f08c379a0000000000000000000000000000000000000000000000000000000008152600401610b6890611b09565b60405180910390fd5b6005546008541115610bb8576040517f08c379a0000000000000000000000000000000000000000000000000000000008152600401610baf90611b75565b60405180910390fd5b600554341115610bfd576040517f08c379a0000000000000000000000000000000000000000000000000000000008152600401610bf490611c07565b60405180910390fd5b60008054906101000a900473ffffffffffffffffffffffffffffffffffffffff1673ffffffffffffffffffffffffffffffffffffffff163373ffffffffffffffffffffffffffffffffffffffff1603610c8b576040517f08c379a0000000000000000000000000000000000000000000000000000000008152600401610c8290611c99565b60405180910390fd5b6000600a60003373ffffffffffffffffffffffffffffffffffffffff1673ffffffffffffffffffffffffffffffffffffffff1681526020019081526020016000205403610ceb5760096000815480929190610ce590611cb9565b91905055505b34600a60003373ffffffffffffffffffffffffffffffffffffffff1673ffffffffffffffffffffffffffffffffffffffff1681526020019081526020016000206000828254610d3a9190611d01565b925050819055503460086000828254610d539190611d01565b925050819055506005546008541115610e1f5760003390508073ffffffffffffffffffffffffffffffffffffffff166108fc600554600854610d9591906119b1565b9081150290604051600060405180830381858888f19350505050158015610dc0573d6000803e3d6000fd5b50600554600881905550600554600854610dda91906119b1565b600a60003373ffffffffffffffffffffffffffffffffffffffff1673ffffffffffffffffffffffffffffffffffffffff16815260200190815260200160002081905550505b600854600c60003073ffffffffffffffffffffffffffffffffffffffff1673ffffffffffffffffffffffffffffffffffffffff16815260200190815260200160002060080181905550600954600c60003073ffffffffffffffffffffffffffffffffffffffff1673ffffffffffffffffffffffffffffffffffffffff168152602001908152602001600020600a0181905550600854600554610ec191906119b1565b600c60003073ffffffffffffffffffffffffffffffffffffffff1673ffffffffffffffffffffffffffffffffffffffff16815260200190815260200160002060090181905550565b600c6020528060005260406000206000915090508060000160009054906101000a900473ffffffffffffffffffffffffffffffffffffffff1690806001015490806002018054610f589061180d565b80601f0160208091040260200160405190810160405280929190818152602001828054610f849061180d565b8015610fd15780601f10610fa657610100808354040283529160200191610fd1565b820191906000526020600020905b815481529060010190602001808311610fb457829003601f168201915b505050505090806003018054610fe69061180d565b80601f01602080910402602001604051908101604052809291908181526020018280546110129061180d565b801561105f5780601f106110345761010080835404028352916020019161105f565b820191906000526020600020905b81548152906001019060200180831161104257829003601f168201915b5050505050908060040180546110749061180d565b80601f01602080910402602001604051908101604052809291908181526020018280546110a09061180d565b80156110ed5780601f106110c2576101008083540402835291602001916110ed565b820191906000526020600020905b8154815290600101906020018083116110d057829003601f168201915b50505050509080600501549080600601549080600701549080600801549080600901549080600a015490508b565b6000600954905090565b600047905090565b600080600a60008473ffffffffffffffffffffffffffffffffffffffff1673ffffffffffffffffffffffffffffffffffffffff16815260200190815260200160002054111561117f5760019050611184565b600090505b919050565b604051806101600160405280600073ffffffffffffffffffffffffffffffffffffffff168152602001600081526020016060815260200160608152602001606081526020016000815260200160008152602001600081526020016000815260200160008152602001600081525090565b600073ffffffffffffffffffffffffffffffffffffffff82169050919050565b6000611224826111f9565b9050919050565b61123481611219565b82525050565b6000819050919050565b61124d8161123a565b82525050565b600081519050919050565b600082825260208201905092915050565b60005b8381101561128d578082015181840152602081019050611272565b8381111561129c576000848401525b50505050565b6000601f19601f8301169050919050565b60006112be82611253565b6112c8818561125e565b93506112d881856020860161126f565b6112e1816112a2565b840191505092915050565b600061016083016000830151611305600086018261122b565b5060208301516113186020860182611244565b506040830151848203604086015261133082826112b3565b9150506060830151848203606086015261134a82826112b3565b9150506080830151848203608086015261136482826112b3565b91505060a083015161137960a0860182611244565b5060c083015161138c60c0860182611244565b5060e083015161139f60e0860182611244565b506101008301516113b4610100860182611244565b506101208301516113c9610120860182611244565b506101408301516113de610140860182611244565b508091505092915050565b6000602082019050818103600083015261140381846112ec565b905092915050565b600081519050919050565b600082825260208201905092915050565b6000819050602082019050919050565b600061016083016000830151611450600086018261122b565b5060208301516114636020860182611244565b506040830151848203604086015261147b82826112b3565b9150506060830151848203606086015261149582826112b3565b915050608083015184820360808601526114af82826112b3565b91505060a08301516114c460a0860182611244565b5060c08301516114d760c0860182611244565b5060e08301516114ea60e0860182611244565b506101008301516114ff610100860182611244565b50610120830151611514610120860182611244565b50610140830151611529610140860182611244565b508091505092915050565b60006115408383611437565b905092915050565b6000602082019050919050565b60006115608261140b565b61156a8185611416565b93508360208202850161157c85611427565b8060005b858110156115b857848403895281516115998582611534565b94506115a483611548565b925060208a01995050600181019050611580565b50829750879550505050505092915050565b600060208201905081810360008301526115e48184611555565b905092915050565b6115f581611219565b82525050565b600060208201905061161060008301846115ec565b92915050565b600080fd5b61162481611219565b811461162f57600080fd5b50565b6000813590506116418161161b565b92915050565b60006020828403121561165d5761165c611616565b5b600061166b84828501611632565b91505092915050565b61167d8161123a565b82525050565b60006020820190506116986000830184611674565b92915050565b600082825260208201905092915050565b60006116ba82611253565b6116c4818561169e565b93506116d481856020860161126f565b6116dd816112a2565b840191505092915050565b6000610160820190506116fe600083018e6115ec565b61170b602083018d611674565b818103604083015261171d818c6116af565b90508181036060830152611731818b6116af565b90508181036080830152611745818a6116af565b905061175460a0830189611674565b61176160c0830188611674565b61176e60e0830187611674565b61177c610100830186611674565b61178a610120830185611674565b611798610140830184611674565b9c9b505050505050505050505050565b60008115159050919050565b6117bd816117a8565b82525050565b60006020820190506117d860008301846117b4565b92915050565b7f4e487b7100000000000000000000000000000000000000000000000000000000600052602260045260246000fd5b6000600282049050600182168061182557607f821691505b602082108103611838576118376117de565b5b50919050565b7f43616d706169676e2068617320636c6f7365642e000000000000000000000000600082015250565b600061187460148361169e565b915061187f8261183e565b602082019050919050565b600060208201905081810360008301526118a381611867565b9050919050565b7f4f6e6c7920637265617465722063616e2077697468647261772066756e64732e600082015250565b60006118e060208361169e565b91506118eb826118aa565b602082019050919050565b6000602082019050818103600083015261190f816118d3565b9050919050565b7f4e6f7420656e6f7567682062616c616e636520746f2077697468647261772e00600082015250565b600061194c601f8361169e565b915061195782611916565b602082019050919050565b6000602082019050818103600083015261197b8161193f565b9050919050565b7f4e487b7100000000000000000000000000000000000000000000000000000000600052601160045260246000fd5b60006119bc8261123a565b91506119c78361123a565b9250828210156119da576119d9611982565b5b828203905092915050565b7f4e6f742073746172746564207965742e00000000000000000000000000000000600082015250565b6000611a1b60108361169e565b9150611a26826119e5565b602082019050919050565b60006020820190508181036000830152611a4a81611a0e565b9050919050565b7f446561646c696e6520686173207061737365642e000000000000000000000000600082015250565b6000611a8760148361169e565b9150611a9282611a51565b602082019050919050565b60006020820190508181036000830152611ab681611a7a565b9050919050565b7f506c656173652073656e642076616c69642066756e64732e0000000000000000600082015250565b6000611af360188361169e565b9150611afe82611abd565b602082019050919050565b60006020820190508181036000830152611b2281611ae6565b9050919050565b7f54617267657420676f616c20686173206265656e2061636865697665642e0000600082015250565b6000611b5f601e8361169e565b9150611b6a82611b29565b602082019050919050565b60006020820190508181036000830152611b8e81611b52565b9050919050565b7f506c6561736520636865636b2074617267657420616d6f756e7420616e64207460008201527f68656e207061792e000000000000000000000000000000000000000000000000602082015250565b6000611bf160288361169e565b9150611bfc82611b95565b604082019050919050565b60006020820190508181036000830152611c2081611be4565b9050919050565b7f43726561746f722063616e206e6f742066756e6420686973206f776e2063616d60008201527f7061696e67732e00000000000000000000000000000000000000000000000000602082015250565b6000611c8360278361169e565b9150611c8e82611c27565b604082019050919050565b60006020820190508181036000830152611cb281611c76565b9050919050565b6000611cc48261123a565b91507fffffffffffffffffffffffffffffffffffffffffffffffffffffffffffffffff8203611cf657611cf5611982565b5b600182019050919050565b6000611d0c8261123a565b9150611d178361123a565b9250827fffffffffffffffffffffffffffffffffffffffffffffffffffffffffffffffff03821115611d4c57611d4b611982565b5b82820190509291505056fea26469706673582212207008d660510f6a443fb1905dbf82df2d92cdfb8d91ef8f7e8b2044d5ec6dc4b864736f6c634300080d0033",
  "immutableReferences": {},
  "source": "//SPDX-License-Identifier: UNLICENSED\npragma solidity ^0.8.13;\n\ncontract Campaign {\n    address campaignCreator;\n    uint256 userId;\n    string title;\n    string description;\n    string categoryId;\n    uint256 targetFunds;\n    uint256 startTime;\n    uint256 deadline;\n    uint256 raisedFunds;\n    uint256 noOfContributors;\n    mapping(address => uint256) contributorsList;\n\n    bool isWithdrawOnce;\n\n    struct CampaignStructre {\n        address creator;\n        uint256 userId;\n        string title;\n        string description;\n        string categoryId;\n        uint256 targetFunds;\n        uint256 startTime;\n        uint256 deadline;\n        uint256 raisedFunds;\n        uint256 remainingFunds;\n        uint256 noOfContributors;\n    }\n\n    mapping(address => CampaignStructre) public contractsMapList;\n\n    CampaignStructre[] contractsStructList;\n\n    constructor(\n        uint256 _userId,\n        string memory _title,\n        string memory _description,\n        string memory _categoryId,\n        uint256 _targetFunds,\n        uint256 _deadline,\n        uint256 _startTime\n    ) {\n        userId = _userId;\n        title = _title;\n        description = _description;\n        categoryId = _categoryId;\n        targetFunds = _targetFunds;\n        startTime = block.timestamp + _startTime;\n        deadline = startTime + _deadline;\n        campaignCreator = msg.sender;\n\n        CampaignStructre memory campaignStructre = CampaignStructre(\n            msg.sender,\n            _userId,\n            _title,\n            _description,\n            _categoryId,\n            _targetFunds,\n            startTime,\n            deadline,\n            raisedFunds,\n            targetFunds,\n            noOfContributors\n        );\n\n        contractsMapList[address(this)] = campaignStructre;\n\n        contractsStructList.push(campaignStructre);\n\n        isWithdrawOnce = false;\n    }\n\n    function getContractAddress() public view returns (address) {\n        return address(this);\n    }\n\n    function getCampaignDetails()\n        public\n        view\n        returns (CampaignStructre memory)\n    {\n        return contractsMapList[address(this)];\n    }\n\n    function getAllContracts() public view returns (CampaignStructre[] memory) {\n        return contractsStructList;\n    }\n\n    function sendFunds() public payable {\n        require(isWithdrawOnce == false, \"Campaign has closed.\");\n\n        require(block.timestamp > startTime, \"Not started yet.\");\n\n        require(block.timestamp < deadline, \"Deadline has passed.\");\n\n        require(msg.value > 0, \"Please send valid funds.\");\n\n        require(raisedFunds <= targetFunds, \"Target goal has been acheived.\");\n\n        require(\n            msg.value <= targetFunds,\n            \"Please check target amount and then pay.\"\n        );\n\n        require(\n            msg.sender != campaignCreator,\n            \"Creator can not fund his own campaings.\"\n        );\n\n        if (contributorsList[msg.sender] == 0) {\n            noOfContributors++;\n        }\n\n        contributorsList[msg.sender] += msg.value;\n\n        raisedFunds += msg.value;\n\n        if (raisedFunds > targetFunds) {\n            address payable lastFunder = payable(msg.sender);\n            lastFunder.transfer(raisedFunds - targetFunds);\n            raisedFunds = targetFunds;\n            contributorsList[msg.sender] = raisedFunds - targetFunds;\n        }\n\n        contractsMapList[address(this)].raisedFunds = raisedFunds;\n        contractsMapList[address(this)].noOfContributors = noOfContributors;\n        contractsMapList[address(this)].remainingFunds =\n            targetFunds -\n            raisedFunds;\n    }\n\n    function getRaisedFunds() public view returns (uint256) {\n        return address(this).balance;\n    }\n\n    function getContractOwner() public view returns (address) {\n        return campaignCreator;\n    }\n\n    function getRemainingFunds() public view returns (uint256) {\n        return targetFunds - raisedFunds;\n    }\n\n    function getTotalContributors() public view returns (uint256) {\n        return noOfContributors;\n    }\n\n    function isContibutors(address _address) public view returns (bool) {\n        if (contributorsList[_address] > 0) {\n            return true;\n        } else {\n            return false;\n        }\n    }\n\n    function getFundsOfContributor(address _address)\n        public\n        view\n        returns (uint256)\n    {\n        return contributorsList[_address];\n    }\n\n    function withdrawFunds(address _address) public {\n        require(isWithdrawOnce == false, \"Campaign has closed.\");\n\n        require(\n            _address == campaignCreator,\n            \"Only creater can withdraw funds.\"\n        );\n        require(raisedFunds > 0, \"Not enough balance to withdraw.\");\n        address payable owner = payable(_address);\n        owner.transfer(raisedFunds);\n        isWithdrawOnce = true;\n    }\n}",
  "sourcePath": "/Users/ali/Projects/FYP/helping-hands-apis/contracts/Campaign.sol",
  "compiler": {
    "name": "solc",
    "version": "0.8.13+commit.abaa5c0e.Emscripten.clang"
  },
  "schemaVersion": "3.4.11",
  "updatedAt": "2023-05-05T20:44:16.884Z",
  "devdoc": {
    "kind": "dev",
    "methods": {},
    "version": 1
  },
  "userdoc": {
    "kind": "user",
    "methods": {},
    "version": 1
  }
}