{
  "contractName": "Campaign",
  "abi": [
    {
      "inputs": [
        {
          "internalType": "uint256",
          "name": "_userId",
          "type": "uint256"
        },
        {
          "internalType": "string",
          "name": "_title",
          "type": "string"
        },
        {
          "internalType": "string",
          "name": "_description",
          "type": "string"
        },
        {
          "internalType": "uint256",
          "name": "_cateId",
          "type": "uint256"
        },
        {
          "internalType": "uint256",
          "name": "_targetFunds",
          "type": "uint256"
        },
        {
          "internalType": "uint256",
          "name": "_deadline",
          "type": "uint256"
        }
      ],
      "stateMutability": "nonpayable",
      "type": "constructor"
    },
    {
      "inputs": [
        {
          "internalType": "address",
          "name": "",
          "type": "address"
        }
      ],
      "name": "contributors",
      "outputs": [
        {
          "internalType": "uint256",
          "name": "",
          "type": "uint256"
        }
      ],
      "stateMutability": "view",
      "type": "function",
      "constant": true
    },
    {
      "inputs": [],
      "name": "creator",
      "outputs": [
        {
          "internalType": "address",
          "name": "",
          "type": "address"
        }
      ],
      "stateMutability": "view",
      "type": "function",
      "constant": true
    },
    {
      "inputs": [],
      "name": "deadline",
      "outputs": [
        {
          "internalType": "uint256",
          "name": "",
          "type": "uint256"
        }
      ],
      "stateMutability": "view",
      "type": "function",
      "constant": true
    },
    {
      "inputs": [],
      "name": "minimumContribution",
      "outputs": [
        {
          "internalType": "uint256",
          "name": "",
          "type": "uint256"
        }
      ],
      "stateMutability": "view",
      "type": "function",
      "constant": true
    },
    {
      "inputs": [],
      "name": "noOfContributors",
      "outputs": [
        {
          "internalType": "uint256",
          "name": "",
          "type": "uint256"
        }
      ],
      "stateMutability": "view",
      "type": "function",
      "constant": true
    },
    {
      "inputs": [],
      "name": "raisedFunds",
      "outputs": [
        {
          "internalType": "uint256",
          "name": "",
          "type": "uint256"
        }
      ],
      "stateMutability": "view",
      "type": "function",
      "constant": true
    },
    {
      "inputs": [],
      "name": "targetFunds",
      "outputs": [
        {
          "internalType": "uint256",
          "name": "",
          "type": "uint256"
        }
      ],
      "stateMutability": "view",
      "type": "function",
      "constant": true
    },
    {
      "inputs": [],
      "name": "sendFunds",
      "outputs": [],
      "stateMutability": "payable",
      "type": "function",
      "payable": true
    },
    {
      "inputs": [],
      "name": "getRaisedFunds",
      "outputs": [
        {
          "internalType": "uint256",
          "name": "",
          "type": "uint256"
        }
      ],
      "stateMutability": "view",
      "type": "function",
      "constant": true
    },
    {
      "inputs": [],
      "name": "getRemainingFunds",
      "outputs": [
        {
          "internalType": "uint256",
          "name": "",
          "type": "uint256"
        }
      ],
      "stateMutability": "view",
      "type": "function",
      "constant": true
    },
    {
      "inputs": [],
      "name": "getTotalContributors",
      "outputs": [
        {
          "internalType": "uint256",
          "name": "",
          "type": "uint256"
        }
      ],
      "stateMutability": "view",
      "type": "function",
      "constant": true
    },
    {
      "inputs": [
        {
          "internalType": "address",
          "name": "_address",
          "type": "address"
        }
      ],
      "name": "isContibutors",
      "outputs": [
        {
          "internalType": "bool",
          "name": "",
          "type": "bool"
        }
      ],
      "stateMutability": "view",
      "type": "function",
      "constant": true
    },
    {
      "inputs": [
        {
          "internalType": "address",
          "name": "_address",
          "type": "address"
        }
      ],
      "name": "getFundsOfContributor",
      "outputs": [
        {
          "internalType": "uint256",
          "name": "",
          "type": "uint256"
        }
      ],
      "stateMutability": "view",
      "type": "function",
      "constant": true
    },
    {
      "inputs": [],
      "name": "withdrawFunds",
      "outputs": [],
      "stateMutability": "nonpayable",
      "type": "function"
    }
  ],
  "bytecode": "0x60806040523480156200001157600080fd5b50604051620013fb380380620013fb83398181016040528101906200003791906200036e565b85600181905550846002908051906020019062000056929190620000e6565b5083600390805190602001906200006f929190620000e6565b50826004819055508160058190555080426200008c919062000477565b6006819055506001600881905550336000806101000a81548173ffffffffffffffffffffffffffffffffffffffff021916908373ffffffffffffffffffffffffffffffffffffffff16021790555050505050505062000538565b828054620000f49062000503565b90600052602060002090601f01602090048101928262000118576000855562000164565b82601f106200013357805160ff191683800117855562000164565b8280016001018555821562000164579182015b828111156200016357825182559160200191906001019062000146565b5b50905062000173919062000177565b5090565b5b808211156200019257600081600090555060010162000178565b5090565b6000604051905090565b600080fd5b600080fd5b6000819050919050565b620001bf81620001aa565b8114620001cb57600080fd5b50565b600081519050620001df81620001b4565b92915050565b600080fd5b600080fd5b6000601f19601f8301169050919050565b7f4e487b7100000000000000000000000000000000000000000000000000000000600052604160045260246000fd5b6200023a82620001ef565b810181811067ffffffffffffffff821117156200025c576200025b62000200565b5b80604052505050565b60006200027162000196565b90506200027f82826200022f565b919050565b600067ffffffffffffffff821115620002a257620002a162000200565b5b620002ad82620001ef565b9050602081019050919050565b60005b83811015620002da578082015181840152602081019050620002bd565b83811115620002ea576000848401525b50505050565b600062000307620003018462000284565b62000265565b905082815260208101848484011115620003265762000325620001ea565b5b62000333848285620002ba565b509392505050565b600082601f830112620003535762000352620001e5565b5b815162000365848260208601620002f0565b91505092915050565b60008060008060008060c087890312156200038e576200038d620001a0565b5b60006200039e89828a01620001ce565b965050602087015167ffffffffffffffff811115620003c257620003c1620001a5565b5b620003d089828a016200033b565b955050604087015167ffffffffffffffff811115620003f457620003f3620001a5565b5b6200040289828a016200033b565b94505060606200041589828a01620001ce565b93505060806200042889828a01620001ce565b92505060a06200043b89828a01620001ce565b9150509295509295509295565b7f4e487b7100000000000000000000000000000000000000000000000000000000600052601160045260246000fd5b60006200048482620001aa565b91506200049183620001aa565b9250827fffffffffffffffffffffffffffffffffffffffffffffffffffffffffffffffff03821115620004c957620004c862000448565b5b828201905092915050565b7f4e487b7100000000000000000000000000000000000000000000000000000000600052602260045260246000fd5b600060028204905060018216806200051c57607f821691505b602082108103620005325762000531620004d4565b5b50919050565b610eb380620005486000396000f3fe6080604052600436106100dd5760003560e01c8063833687eb1161007f578063dc58a56c11610059578063dc58a56c1461027f578063dfb8dca9146102aa578063f004177a146102d5578063f44954d714610300576100dd565b8063833687eb1461021f5780638d68cf591461024a578063937e09b114610254576100dd565b806324600fc3116100bb57806324600fc31461017557806329dcb0cf1461018c5780634e260f6f146101b75780638185adf8146101e2576100dd565b806302d05d3f146100e25780631459e2ad1461010d5780631f6d494214610138575b600080fd5b3480156100ee57600080fd5b506100f761033d565b6040516101049190610948565b60405180910390f35b34801561011957600080fd5b50610122610361565b60405161012f919061097c565b60405180910390f35b34801561014457600080fd5b5061015f600480360381019061015a91906109c8565b610367565b60405161016c919061097c565b60405180910390f35b34801561018157600080fd5b5061018a61037f565b005b34801561019857600080fd5b506101a16104ea565b6040516101ae919061097c565b60405180910390f35b3480156101c357600080fd5b506101cc6104f0565b6040516101d9919061097c565b60405180910390f35b3480156101ee57600080fd5b50610209600480360381019061020491906109c8565b6104f6565b604051610216919061097c565b60405180910390f35b34801561022b57600080fd5b5061023461053f565b604051610241919061097c565b60405180910390f35b610252610554565b005b34801561026057600080fd5b5061026961088d565b604051610276919061097c565b60405180910390f35b34801561028b57600080fd5b50610294610893565b6040516102a1919061097c565b60405180910390f35b3480156102b657600080fd5b506102bf61089d565b6040516102cc919061097c565b60405180910390f35b3480156102e157600080fd5b506102ea6108a3565b6040516102f7919061097c565b60405180910390f35b34801561030c57600080fd5b50610327600480360381019061032291906109c8565b6108ab565b6040516103349190610a10565b60405180910390f35b60008054906101000a900473ffffffffffffffffffffffffffffffffffffffff1681565b60055481565b60076020528060005260406000206000915090505481565b60008054906101000a900473ffffffffffffffffffffffffffffffffffffffff1673ffffffffffffffffffffffffffffffffffffffff163373ffffffffffffffffffffffffffffffffffffffff161461040d576040517f08c379a000000000000000000000000000000000000000000000000000000000815260040161040490610a88565b60405180910390fd5b600060095411610452576040517f08c379a000000000000000000000000000000000000000000000000000000000815260040161044990610af4565b60405180910390fd5b60008060009054906101000a900473ffffffffffffffffffffffffffffffffffffffff1690508073ffffffffffffffffffffffffffffffffffffffff166108fc6009549081150290604051600060405180830381858888f193505050501580156104c0573d6000803e3d6000fd5b506009546009546104d19190610b43565b6009819055506000600a81905550600060058190555050565b60065481565b600a5481565b6000600760008373ffffffffffffffffffffffffffffffffffffffff1673ffffffffffffffffffffffffffffffffffffffff168152602001908152602001600020549050919050565b60004760055461054f9190610b43565b905090565b6006544210610598576040517f08c379a000000000000000000000000000000000000000000000000000000000815260040161058f90610bc3565b60405180910390fd5b6008543410156105dd576040517f08c379a00000000000000000000000000000000000000000000000000000000081526004016105d490610c2f565b60405180910390fd5b6005546009541115610624576040517f08c379a000000000000000000000000000000000000000000000000000000000815260040161061b90610c9b565b60405180910390fd5b600554341115610669576040517f08c379a000000000000000000000000000000000000000000000000000000000815260040161066090610d2d565b60405180910390fd5b60008054906101000a900473ffffffffffffffffffffffffffffffffffffffff1673ffffffffffffffffffffffffffffffffffffffff163373ffffffffffffffffffffffffffffffffffffffff16036106f7576040517f08c379a00000000000000000000000000000000000000000000000000000000081526004016106ee90610dbf565b60405180910390fd5b6000600760003373ffffffffffffffffffffffffffffffffffffffff1673ffffffffffffffffffffffffffffffffffffffff168152602001908152602001600020540361075757600a600081548092919061075190610ddf565b91905055505b34600760003373ffffffffffffffffffffffffffffffffffffffff1673ffffffffffffffffffffffffffffffffffffffff16815260200190815260200160002060008282546107a69190610e27565b9250508190555034600960008282546107bf9190610e27565b92505081905550600554600954111561088b5760003390508073ffffffffffffffffffffffffffffffffffffffff166108fc6005546009546108019190610b43565b9081150290604051600060405180830381858888f1935050505015801561082c573d6000803e3d6000fd5b506005546009819055506005546009546108469190610b43565b600760003373ffffffffffffffffffffffffffffffffffffffff1673ffffffffffffffffffffffffffffffffffffffff16815260200190815260200160002081905550505b565b60085481565b6000600a54905090565b60095481565b600047905090565b600080600760008473ffffffffffffffffffffffffffffffffffffffff1673ffffffffffffffffffffffffffffffffffffffff1681526020019081526020016000205411156108fd5760019050610902565b600090505b919050565b600073ffffffffffffffffffffffffffffffffffffffff82169050919050565b600061093282610907565b9050919050565b61094281610927565b82525050565b600060208201905061095d6000830184610939565b92915050565b6000819050919050565b61097681610963565b82525050565b6000602082019050610991600083018461096d565b92915050565b600080fd5b6109a581610927565b81146109b057600080fd5b50565b6000813590506109c28161099c565b92915050565b6000602082840312156109de576109dd610997565b5b60006109ec848285016109b3565b91505092915050565b60008115159050919050565b610a0a816109f5565b82525050565b6000602082019050610a256000830184610a01565b92915050565b600082825260208201905092915050565b7f4f6e6c7920637265617465722063616e2077697468647261772066756e64732e600082015250565b6000610a72602083610a2b565b9150610a7d82610a3c565b602082019050919050565b60006020820190508181036000830152610aa181610a65565b9050919050565b7f4e6f7420656e6f7567682062616c616e636520746f2077697468647261772e00600082015250565b6000610ade601f83610a2b565b9150610ae982610aa8565b602082019050919050565b60006020820190508181036000830152610b0d81610ad1565b9050919050565b7f4e487b7100000000000000000000000000000000000000000000000000000000600052601160045260246000fd5b6000610b4e82610963565b9150610b5983610963565b925082821015610b6c57610b6b610b14565b5b828203905092915050565b7f446561646c696e6520686173207061737365642e000000000000000000000000600082015250565b6000610bad601483610a2b565b9150610bb882610b77565b602082019050919050565b60006020820190508181036000830152610bdc81610ba0565b9050919050565b7f4d696e696d756d20436f6e747269627574696f6e206973206e6f74206d65742e600082015250565b6000610c19602083610a2b565b9150610c2482610be3565b602082019050919050565b60006020820190508181036000830152610c4881610c0c565b9050919050565b7f54617267657420676f616c20686173206265656e2061636865697665642e0000600082015250565b6000610c85601e83610a2b565b9150610c9082610c4f565b602082019050919050565b60006020820190508181036000830152610cb481610c78565b9050919050565b7f506c6561736520636865636b2074617267657420616d6f756e7420616e64207460008201527f68656e207061792e000000000000000000000000000000000000000000000000602082015250565b6000610d17602883610a2b565b9150610d2282610cbb565b604082019050919050565b60006020820190508181036000830152610d4681610d0a565b9050919050565b7f43726561746f722063616e206e6f742066756e6420686973206f776e2063616d60008201527f7061696e67732e00000000000000000000000000000000000000000000000000602082015250565b6000610da9602783610a2b565b9150610db482610d4d565b604082019050919050565b60006020820190508181036000830152610dd881610d9c565b9050919050565b6000610dea82610963565b91507fffffffffffffffffffffffffffffffffffffffffffffffffffffffffffffffff8203610e1c57610e1b610b14565b5b600182019050919050565b6000610e3282610963565b9150610e3d83610963565b9250827fffffffffffffffffffffffffffffffffffffffffffffffffffffffffffffffff03821115610e7257610e71610b14565b5b82820190509291505056fea2646970667358221220d127e0e74d6aee2c5df3415032dd67f2634d62b4993dcb86be5317eaf82b9ef864736f6c634300080d0033",
  "immutableReferences": {},
  "source": "//SPDX-License-Identifier: UNLICENSED\npragma solidity ^0.8.13;\n\ncontract Campaign {\n    address public creator;\n    uint256 userId;\n    string title;\n    string description;\n    uint256 cateId;\n    uint256 public targetFunds;\n    uint256 public deadline;\n\n    mapping(address => uint256) public contributors;\n    uint256 public minimumContribution;\n    uint256 public raisedFunds;\n    uint256 public noOfContributors;\n\n    struct userFunds {\n        uint256 _address;\n        bytes32 _funds;\n    }\n\n    constructor(\n        uint256 _userId,\n        string memory _title,\n        string memory _description,\n        uint256 _cateId,\n        uint256 _targetFunds,\n        uint256 _deadline\n    ) {\n        userId = _userId;\n        title = _title;\n        description = _description;\n        cateId = _cateId;\n        targetFunds = _targetFunds;\n        deadline = block.timestamp + _deadline;\n        minimumContribution = 1 wei;\n        creator = msg.sender;\n    }\n\n    function sendFunds() public payable {\n        require(block.timestamp < deadline, \"Deadline has passed.\");\n\n        require(\n            msg.value >= minimumContribution,\n            \"Minimum Contribution is not met.\"\n        );\n\n        require(raisedFunds <= targetFunds, \"Target goal has been acheived.\");\n\n        require(\n            msg.value <= targetFunds,\n            \"Please check target amount and then pay.\"\n        );\n\n        require(\n            msg.sender != creator,\n            \"Creator can not fund his own campaings.\"\n        );\n\n        if (contributors[msg.sender] == 0) {\n            noOfContributors++;\n        }\n\n        contributors[msg.sender] += msg.value;\n\n        raisedFunds += msg.value;\n\n        if (raisedFunds > targetFunds) {\n            address payable lastUser = payable(msg.sender);\n            lastUser.transfer(raisedFunds - targetFunds);\n            raisedFunds = targetFunds;\n            contributors[msg.sender] = raisedFunds - targetFunds;\n        }\n    }\n\n    function getRaisedFunds() public view returns (uint256) {\n        return address(this).balance;\n    }\n\n    function getRemainingFunds() public view returns (uint256) {\n        return targetFunds - address(this).balance;\n    }\n\n    function getTotalContributors() public view returns (uint256) {\n        return noOfContributors;\n    }\n\n    function isContibutors(address _address) public view returns (bool) {\n        if (contributors[_address] > 0) {\n            return true;\n        } else {\n            return false;\n        }\n    }\n\n    function getFundsOfContributor(address _address)\n        public\n        view\n        returns (uint256)\n    {\n        return contributors[_address];\n    }\n\n    modifier onlyManger() {\n        require(msg.sender == creator, \"Only creater can withdraw funds.\");\n        _;\n    }\n\n    function withdrawFunds() public onlyManger {\n        require(raisedFunds > 0, \"Not enough balance to withdraw.\");\n        address payable owner = payable(creator);\n        owner.transfer(raisedFunds);\n        raisedFunds = raisedFunds - raisedFunds;\n        noOfContributors = 0;\n        targetFunds = 0;\n    }\n}\n",
  "sourcePath": "/Users/ali/Projects/FYP/helping-hands-apis/contracts/Campaign.sol",
  "compiler": {
    "name": "solc",
    "version": "0.8.13+commit.abaa5c0e.Emscripten.clang"
  },
  "schemaVersion": "3.4.11",
  "updatedAt": "2022-11-29T12:01:00.382Z",
  "networkType": "ethereum",
  "devdoc": {
    "kind": "dev",
    "methods": {},
    "version": 1
  },
  "userdoc": {
    "kind": "user",
    "methods": {},
    "version": 1
  }
}