{
  "contractName": "Campaign",
  "abi": [
    {
      "anonymous": false,
      "inputs": [
        {
          "indexed": false,
          "internalType": "uint256",
          "name": "campaignId",
          "type": "uint256"
        },
        {
          "indexed": false,
          "internalType": "string",
          "name": "actionType",
          "type": "string"
        },
        {
          "indexed": true,
          "internalType": "address",
          "name": "executor",
          "type": "address"
        },
        {
          "indexed": false,
          "internalType": "uint256",
          "name": "timestamp",
          "type": "uint256"
        }
      ],
      "name": "Action",
      "type": "event"
    },
    {
      "inputs": [],
      "name": "contractBalance",
      "outputs": [
        {
          "internalType": "uint256",
          "name": "",
          "type": "uint256"
        }
      ],
      "stateMutability": "view",
      "type": "function",
      "constant": true
    },
    {
      "inputs": [
        {
          "internalType": "string",
          "name": "userId",
          "type": "string"
        },
        {
          "internalType": "string",
          "name": "categoryId",
          "type": "string"
        },
        {
          "internalType": "string",
          "name": "title",
          "type": "string"
        },
        {
          "internalType": "string",
          "name": "description",
          "type": "string"
        },
        {
          "internalType": "uint256",
          "name": "targetFunds",
          "type": "uint256"
        },
        {
          "internalType": "uint256",
          "name": "deadline",
          "type": "uint256"
        },
        {
          "internalType": "string",
          "name": "imageURL",
          "type": "string"
        }
      ],
      "name": "createCampaign",
      "outputs": [
        {
          "internalType": "bool",
          "name": "",
          "type": "bool"
        }
      ],
      "stateMutability": "nonpayable",
      "type": "function"
    },
    {
      "inputs": [
        {
          "internalType": "uint256",
          "name": "campaignId",
          "type": "uint256"
        },
        {
          "internalType": "string",
          "name": "userId",
          "type": "string"
        }
      ],
      "name": "donateFunds",
      "outputs": [
        {
          "internalType": "bool",
          "name": "",
          "type": "bool"
        }
      ],
      "stateMutability": "payable",
      "type": "function",
      "payable": true
    },
    {
      "inputs": [
        {
          "internalType": "uint256",
          "name": "id",
          "type": "uint256"
        }
      ],
      "name": "getCampaignFunders",
      "outputs": [
        {
          "components": [
            {
              "internalType": "address",
              "name": "funder",
              "type": "address"
            },
            {
              "internalType": "uint256",
              "name": "contribution",
              "type": "uint256"
            },
            {
              "internalType": "uint256",
              "name": "timestamp",
              "type": "uint256"
            }
          ],
          "internalType": "struct Campaign.funderStruct[]",
          "name": "",
          "type": "tuple[]"
        }
      ],
      "stateMutability": "view",
      "type": "function",
      "constant": true
    },
    {
      "inputs": [],
      "name": "getUserStats",
      "outputs": [
        {
          "components": [
            {
              "internalType": "string",
              "name": "userId",
              "type": "string"
            },
            {
              "internalType": "uint256",
              "name": "contribution",
              "type": "uint256"
            },
            {
              "internalType": "bool",
              "name": "isFundsDonating",
              "type": "bool"
            },
            {
              "internalType": "uint256",
              "name": "timestamp",
              "type": "uint256"
            },
            {
              "internalType": "string",
              "name": "description",
              "type": "string"
            }
          ],
          "internalType": "struct Campaign.userStatsStruct[]",
          "name": "",
          "type": "tuple[]"
        }
      ],
      "stateMutability": "view",
      "type": "function",
      "constant": true
    },
    {
      "inputs": [
        {
          "internalType": "uint256",
          "name": "id",
          "type": "uint256"
        }
      ],
      "name": "getCampaign",
      "outputs": [
        {
          "components": [
            {
              "internalType": "address",
              "name": "creator",
              "type": "address"
            },
            {
              "internalType": "string",
              "name": "userId",
              "type": "string"
            },
            {
              "internalType": "string",
              "name": "categoryId",
              "type": "string"
            },
            {
              "internalType": "uint256",
              "name": "campaignId",
              "type": "uint256"
            },
            {
              "internalType": "string",
              "name": "title",
              "type": "string"
            },
            {
              "internalType": "string",
              "name": "description",
              "type": "string"
            },
            {
              "internalType": "uint256",
              "name": "targetFunds",
              "type": "uint256"
            },
            {
              "internalType": "uint256",
              "name": "deadline",
              "type": "uint256"
            },
            {
              "internalType": "uint256",
              "name": "raisedFunds",
              "type": "uint256"
            },
            {
              "internalType": "uint256",
              "name": "remainingFunds",
              "type": "uint256"
            },
            {
              "internalType": "string",
              "name": "imageURL",
              "type": "string"
            },
            {
              "internalType": "enum Campaign.statusEnum",
              "name": "status",
              "type": "uint8"
            }
          ],
          "internalType": "struct Campaign.campaignStructre",
          "name": "",
          "type": "tuple"
        }
      ],
      "stateMutability": "view",
      "type": "function",
      "constant": true
    },
    {
      "inputs": [],
      "name": "getAllCampaigns",
      "outputs": [
        {
          "components": [
            {
              "internalType": "address",
              "name": "creator",
              "type": "address"
            },
            {
              "internalType": "string",
              "name": "userId",
              "type": "string"
            },
            {
              "internalType": "string",
              "name": "categoryId",
              "type": "string"
            },
            {
              "internalType": "uint256",
              "name": "campaignId",
              "type": "uint256"
            },
            {
              "internalType": "string",
              "name": "title",
              "type": "string"
            },
            {
              "internalType": "string",
              "name": "description",
              "type": "string"
            },
            {
              "internalType": "uint256",
              "name": "targetFunds",
              "type": "uint256"
            },
            {
              "internalType": "uint256",
              "name": "deadline",
              "type": "uint256"
            },
            {
              "internalType": "uint256",
              "name": "raisedFunds",
              "type": "uint256"
            },
            {
              "internalType": "uint256",
              "name": "remainingFunds",
              "type": "uint256"
            },
            {
              "internalType": "string",
              "name": "imageURL",
              "type": "string"
            },
            {
              "internalType": "enum Campaign.statusEnum",
              "name": "status",
              "type": "uint8"
            }
          ],
          "internalType": "struct Campaign.campaignStructre[]",
          "name": "",
          "type": "tuple[]"
        }
      ],
      "stateMutability": "view",
      "type": "function",
      "constant": true
    },
    {
      "inputs": [
        {
          "internalType": "uint256",
          "name": "id",
          "type": "uint256"
        }
      ],
      "name": "getRaisedFunds",
      "outputs": [
        {
          "internalType": "uint256",
          "name": "",
          "type": "uint256"
        }
      ],
      "stateMutability": "view",
      "type": "function",
      "constant": true
    },
    {
      "inputs": [
        {
          "internalType": "uint256",
          "name": "id",
          "type": "uint256"
        }
      ],
      "name": "getRemainingFunds",
      "outputs": [
        {
          "internalType": "uint256",
          "name": "",
          "type": "uint256"
        }
      ],
      "stateMutability": "view",
      "type": "function",
      "constant": true
    },
    {
      "inputs": [
        {
          "internalType": "address",
          "name": "ownerAddress",
          "type": "address"
        },
        {
          "internalType": "uint256",
          "name": "campaignId",
          "type": "uint256"
        },
        {
          "internalType": "string",
          "name": "userId",
          "type": "string"
        }
      ],
      "name": "withdrawFunds",
      "outputs": [
        {
          "internalType": "bool",
          "name": "",
          "type": "bool"
        }
      ],
      "stateMutability": "nonpayable",
      "type": "function"
    }
  ],
  "bytecode": "0x608060405234801561001057600080fd5b506136b2806100206000396000f3fe6080604052600436106100915760003560e01c806386cdf6041161005957806386cdf604146101b55780638b7afe2e146101e05780639b81e17e1461020b578063c7d7aa0d14610248578063fcadf4391461028557610091565b806305903e061461009657806350fadbe0146100d357806353f6ad3714610110578063549a7a351461013b5780635598f8cc14610178575b600080fd5b3480156100a257600080fd5b506100bd60048036038101906100b8919061227c565b6102b5565b6040516100ca91906123ea565b60405180910390f35b3480156100df57600080fd5b506100fa60048036038101906100f5919061227c565b610391565b604051610107919061241b565b60405180910390f35b34801561011c57600080fd5b50610125610420565b6040516101329190612629565b60405180910390f35b34801561014757600080fd5b50610162600480360381019061015d9190612780565b6105d2565b60405161016f91906128bd565b60405180910390f35b34801561018457600080fd5b5061019f600480360381019061019a919061227c565b610a99565b6040516101ac9190612a6f565b60405180910390f35b3480156101c157600080fd5b506101ca610ed3565b6040516101d79190612c73565b60405180910390f35b3480156101ec57600080fd5b506101f56112d0565b604051610202919061241b565b60405180910390f35b34801561021757600080fd5b50610232600480360381019061022d9190612cc1565b6112d6565b60405161023f91906128bd565b60405180910390f35b34801561025457600080fd5b5061026f600480360381019061026a919061227c565b61186d565b60405161027c919061241b565b60405180910390f35b61029f600480360381019061029a9190612d30565b6118fc565b6040516102ac91906128bd565b60405180910390f35b6060600a6000838152602001908152602001600020805480602002602001604051908101604052809291908181526020016000905b8282101561038657838290600052602060002090600302016040518060600160405290816000820160009054906101000a900473ffffffffffffffffffffffffffffffffffffffff1673ffffffffffffffffffffffffffffffffffffffff1673ffffffffffffffffffffffffffffffffffffffff16815260200160018201548152602001600282015481525050815260200190600101906102ea565b505050509050919050565b60006008600083815260200190815260200160002060009054906101000a900460ff166103f3576040517f08c379a00000000000000000000000000000000000000000000000000000000081526004016103ea90612de9565b60405180910390fd5b6002828154811061040757610406612e09565b5b90600052602060002090600c0201600901549050919050565b60606003805480602002602001604051908101604052809291908181526020016000905b828210156105c957838290600052602060002090600502016040518060a001604052908160008201805461047790612e67565b80601f01602080910402602001604051908101604052809291908181526020018280546104a390612e67565b80156104f05780601f106104c5576101008083540402835291602001916104f0565b820191906000526020600020905b8154815290600101906020018083116104d357829003601f168201915b50505050508152602001600182015481526020016002820160009054906101000a900460ff161515151581526020016003820154815260200160048201805461053890612e67565b80601f016020809104026020016040519081016040528092919081815260200182805461056490612e67565b80156105b15780601f10610586576101008083540402835291602001916105b1565b820191906000526020600020905b81548152906001019060200180831161059457829003601f168201915b50505050508152505081526020019060010190610444565b50505050905090565b6000336000806101000a81548173ffffffffffffffffffffffffffffffffffffffff021916908373ffffffffffffffffffffffffffffffffffffffff16021790555061061c612106565b88816020018190525033816000019073ffffffffffffffffffffffffffffffffffffffff16908173ffffffffffffffffffffffffffffffffffffffff1681525050878160400181905250600154816060018181525050868160800181905250858160a00181905250848160c0018181525050838160e0018181525050600081610100018181525050848161012001818152505082816101400181905250600081610160019060018111156106d3576106d26128d8565b5b908160018111156106e7576106e66128d8565b5b8152505060028190806001815401808255809150506001900390600052602060002090600c020160009091909190915060008201518160000160006101000a81548173ffffffffffffffffffffffffffffffffffffffff021916908373ffffffffffffffffffffffffffffffffffffffff160217905550602082015181600101908051906020019061077a92919061218f565b50604082015181600201908051906020019061079792919061218f565b506060820151816003015560808201518160040190805190602001906107be92919061218f565b5060a08201518160050190805190602001906107db92919061218f565b5060c0820151816006015560e082015181600701556101008201518160080155610120820151816009015561014082015181600a01908051906020019061082392919061218f565b5061016082015181600b0160006101000a81548160ff021916908360018111156108505761084f6128d8565b5b02179055505050600160086000600154815260200190815260200160002060006101000a81548160ff02191690831515021790555080600960003073ffffffffffffffffffffffffffffffffffffffff1673ffffffffffffffffffffffffffffffffffffffff16815260200190815260200160002060008201518160000160006101000a81548173ffffffffffffffffffffffffffffffffffffffff021916908373ffffffffffffffffffffffffffffffffffffffff160217905550602082015181600101908051906020019061092892919061218f565b50604082015181600201908051906020019061094592919061218f565b5060608201518160030155608082015181600401908051906020019061096c92919061218f565b5060a082015181600501908051906020019061098992919061218f565b5060c0820151816006015560e082015181600701556101008201518160080155610120820151816009015561014082015181600a0190805190602001906109d192919061218f565b5061016082015181600b0160006101000a81548160ff021916908360018111156109fe576109fd6128d8565b5b0217905550905050600160046000016000828254610a1c9190612ec7565b925050819055503373ffffffffffffffffffffffffffffffffffffffff167faee8e5d3bbb2f71a951b5632cee20f7ac487b9f8ab4f66a236f7694b13af7c6a60016000815480929190610a6e90612f1d565b9190505542604051610a81929190612fb1565b60405180910390a26001915050979650505050505050565b610aa1612106565b6008600083815260200190815260200160002060009054906101000a900460ff16610b01576040517f08c379a0000000000000000000000000000000000000000000000000000000008152600401610af890612de9565b60405180910390fd5b60028281548110610b1557610b14612e09565b5b90600052602060002090600c0201604051806101800160405290816000820160009054906101000a900473ffffffffffffffffffffffffffffffffffffffff1673ffffffffffffffffffffffffffffffffffffffff1673ffffffffffffffffffffffffffffffffffffffff168152602001600182018054610b9590612e67565b80601f0160208091040260200160405190810160405280929190818152602001828054610bc190612e67565b8015610c0e5780601f10610be357610100808354040283529160200191610c0e565b820191906000526020600020905b815481529060010190602001808311610bf157829003601f168201915b50505050508152602001600282018054610c2790612e67565b80601f0160208091040260200160405190810160405280929190818152602001828054610c5390612e67565b8015610ca05780601f10610c7557610100808354040283529160200191610ca0565b820191906000526020600020905b815481529060010190602001808311610c8357829003601f168201915b5050505050815260200160038201548152602001600482018054610cc390612e67565b80601f0160208091040260200160405190810160405280929190818152602001828054610cef90612e67565b8015610d3c5780601f10610d1157610100808354040283529160200191610d3c565b820191906000526020600020905b815481529060010190602001808311610d1f57829003601f168201915b50505050508152602001600582018054610d5590612e67565b80601f0160208091040260200160405190810160405280929190818152602001828054610d8190612e67565b8015610dce5780601f10610da357610100808354040283529160200191610dce565b820191906000526020600020905b815481529060010190602001808311610db157829003601f168201915b5050505050815260200160068201548152602001600782015481526020016008820154815260200160098201548152602001600a82018054610e0f90612e67565b80601f0160208091040260200160405190810160405280929190818152602001828054610e3b90612e67565b8015610e885780601f10610e5d57610100808354040283529160200191610e88565b820191906000526020600020905b815481529060010190602001808311610e6b57829003601f168201915b50505050508152602001600b820160009054906101000a900460ff166001811115610eb657610eb56128d8565b5b6001811115610ec857610ec76128d8565b5b815250509050919050565b60606002805480602002602001604051908101604052809291908181526020016000905b828210156112c757838290600052602060002090600c0201604051806101800160405290816000820160009054906101000a900473ffffffffffffffffffffffffffffffffffffffff1673ffffffffffffffffffffffffffffffffffffffff1673ffffffffffffffffffffffffffffffffffffffff168152602001600182018054610f8190612e67565b80601f0160208091040260200160405190810160405280929190818152602001828054610fad90612e67565b8015610ffa5780601f10610fcf57610100808354040283529160200191610ffa565b820191906000526020600020905b815481529060010190602001808311610fdd57829003601f168201915b5050505050815260200160028201805461101390612e67565b80601f016020809104026020016040519081016040528092919081815260200182805461103f90612e67565b801561108c5780601f106110615761010080835404028352916020019161108c565b820191906000526020600020905b81548152906001019060200180831161106f57829003601f168201915b50505050508152602001600382015481526020016004820180546110af90612e67565b80601f01602080910402602001604051908101604052809291908181526020018280546110db90612e67565b80156111285780601f106110fd57610100808354040283529160200191611128565b820191906000526020600020905b81548152906001019060200180831161110b57829003601f168201915b5050505050815260200160058201805461114190612e67565b80601f016020809104026020016040519081016040528092919081815260200182805461116d90612e67565b80156111ba5780601f1061118f576101008083540402835291602001916111ba565b820191906000526020600020905b81548152906001019060200180831161119d57829003601f168201915b5050505050815260200160068201548152602001600782015481526020016008820154815260200160098201548152602001600a820180546111fb90612e67565b80601f016020809104026020016040519081016040528092919081815260200182805461122790612e67565b80156112745780601f1061124957610100808354040283529160200191611274565b820191906000526020600020905b81548152906001019060200180831161125757829003601f168201915b50505050508152602001600b820160009054906101000a900460ff1660018111156112a2576112a16128d8565b5b60018111156112b4576112b36128d8565b5b8152505081526020019060010190610ef7565b50505050905090565b60075481565b60006001808111156112eb576112ea6128d8565b5b600284815481106112ff576112fe612e09565b5b90600052602060002090600c0201600b0160009054906101000a900460ff1660018111156113305761132f6128d8565b5b03611370576040517f08c379a000000000000000000000000000000000000000000000000000000000815260040161136790613039565b60405180910390fd5b60008054906101000a900473ffffffffffffffffffffffffffffffffffffffff1673ffffffffffffffffffffffffffffffffffffffff168473ffffffffffffffffffffffffffffffffffffffff16146113fe576040517f08c379a00000000000000000000000000000000000000000000000000000000081526004016113f5906130cb565b60405180910390fd5b6114b56002848154811061141557611414612e09565b5b90600052602060002090600c0201600101805461143190612e67565b80601f016020809104026020016040519081016040528092919081815260200182805461145d90612e67565b80156114aa5780601f1061147f576101008083540402835291602001916114aa565b820191906000526020600020905b81548152906001019060200180831161148d57829003601f168201915b505050505083612081565b6114f4576040517f08c379a00000000000000000000000000000000000000000000000000000000081526004016114eb9061315d565b60405180910390fd5b60006002848154811061150a57611509612e09565b5b90600052602060002090600c0201600801541161155c576040517f08c379a0000000000000000000000000000000000000000000000000000000008152600401611553906131c9565b60405180910390fd5b600084905060036040518060a001604052808581526020016002878154811061158857611587612e09565b5b90600052602060002090600c020160080154815260200160001515815260200142815260200161167d60405180606001604052806027815260200161363360279139600289815481106115de576115dd612e09565b5b90600052602060002090600c020160040180546115fa90612e67565b80601f016020809104026020016040519081016040528092919081815260200182805461162690612e67565b80156116735780601f1061164857610100808354040283529160200191611673565b820191906000526020600020905b81548152906001019060200180831161165657829003601f168201915b50505050506120da565b815250908060018154018082558091505060019003906000526020600020906005020160009091909190915060008201518160000190805190602001906116c592919061218f565b506020820151816001015560408201518160020160006101000a81548160ff02191690831515021790555060608201518160030155608082015181600401908051906020019061171692919061218f565b5050508073ffffffffffffffffffffffffffffffffffffffff166108fc6002868154811061174757611746612e09565b5b90600052602060002090600c0201600801549081150290604051600060405180830381858888f19350505050158015611784573d6000803e3d6000fd5b506002848154811061179957611798612e09565b5b90600052602060002090600c020160080154600760008282546117bc91906131e9565b925050819055506001600285815481106117d9576117d8612e09565b5b90600052602060002090600c0201600b0160006101000a81548160ff0219169083600181111561180c5761180b6128d8565b5b02179055503373ffffffffffffffffffffffffffffffffffffffff167faee8e5d3bbb2f71a951b5632cee20f7ac487b9f8ab4f66a236f7694b13af7c6a8542604051611859929190613269565b60405180910390a260019150509392505050565b60006008600083815260200190815260200160002060009054906101000a900460ff166118cf576040517f08c379a00000000000000000000000000000000000000000000000000000000081526004016118c690612de9565b60405180910390fd5b600282815481106118e3576118e2612e09565b5b90600052602060002090600c0201600801549050919050565b6000600180811115611911576119106128d8565b5b6002848154811061192557611924612e09565b5b90600052602060002090600c0201600b0160009054906101000a900460ff166001811115611956576119556128d8565b5b03611996576040517f08c379a000000000000000000000000000000000000000000000000000000000815260040161198d90613039565b60405180910390fd5b600034116119d9576040517f08c379a00000000000000000000000000000000000000000000000000000000081526004016119d0906132f1565b60405180910390fd5b6008600084815260200190815260200160002060009054906101000a900460ff16611a39576040517f08c379a0000000000000000000000000000000000000000000000000000000008152600401611a3090612de9565b60405180910390fd5b60028381548110611a4d57611a4c612e09565b5b90600052602060002090600c020160070154421015611aa1576040517f08c379a0000000000000000000000000000000000000000000000000000000008152600401611a989061335d565b60405180910390fd5b60028381548110611ab557611ab4612e09565b5b90600052602060002090600c02016006015460028481548110611adb57611ada612e09565b5b90600052602060002090600c0201600801541115611b2e576040517f08c379a0000000000000000000000000000000000000000000000000000000008152600401611b25906133ef565b60405180910390fd5b60028381548110611b4257611b41612e09565b5b90600052602060002090600c0201600601543460028581548110611b6957611b68612e09565b5b90600052602060002090600c020160080154611b859190612ec7565b1115611bc6576040517f08c379a0000000000000000000000000000000000000000000000000000000008152600401611bbd90613481565b60405180910390fd5b611c7d60028481548110611bdd57611bdc612e09565b5b90600052602060002090600c02016001018054611bf990612e67565b80601f0160208091040260200160405190810160405280929190818152602001828054611c2590612e67565b8015611c725780601f10611c4757610100808354040283529160200191611c72565b820191906000526020600020905b815481529060010190602001808311611c5557829003601f168201915b505050505083612081565b15611cbd576040517f08c379a0000000000000000000000000000000000000000000000000000000008152600401611cb490613513565b60405180910390fd5b600160046001016000828254611cd39190612ec7565b925050819055503460046002016000828254611cef9190612ec7565b925050819055503460028481548110611d0b57611d0a612e09565b5b90600052602060002090600c02016008016000828254611d2b9190612ec7565b9250508190555060028381548110611d4657611d45612e09565b5b90600052602060002090600c02016008015460028481548110611d6c57611d6b612e09565b5b90600052602060002090600c020160060154611d8891906131e9565b60028481548110611d9c57611d9b612e09565b5b90600052602060002090600c0201600901819055503460076000828254611dc39190612ec7565b92505081905550600a600084815260200190815260200160002060405180606001604052803373ffffffffffffffffffffffffffffffffffffffff16815260200134815260200142815250908060018154018082558091505060019003906000526020600020906003020160009091909190915060008201518160000160006101000a81548173ffffffffffffffffffffffffffffffffffffffff021916908373ffffffffffffffffffffffffffffffffffffffff1602179055506020820151816001015560408201518160020155505060036040518060a00160405280848152602001348152602001600115158152602001428152602001611f8b60405180606001604052806023815260200161365a6023913960028881548110611eec57611eeb612e09565b5b90600052602060002090600c02016004018054611f0890612e67565b80601f0160208091040260200160405190810160405280929190818152602001828054611f3490612e67565b8015611f815780601f10611f5657610100808354040283529160200191611f81565b820191906000526020600020905b815481529060010190602001808311611f6457829003601f168201915b50505050506120da565b81525090806001815401808255809150506001900390600052602060002090600502016000909190919091506000820151816000019080519060200190611fd392919061218f565b506020820151816001015560408201518160020160006101000a81548160ff02191690831515021790555060608201518160030155608082015181600401908051906020019061202492919061218f565b5050503373ffffffffffffffffffffffffffffffffffffffff167faee8e5d3bbb2f71a951b5632cee20f7ac487b9f8ab4f66a236f7694b13af7c6a844260405161206f92919061357f565b60405180910390a26001905092915050565b60008160405160200161209491906135f7565b60405160208183030381529060405280519060200120836040516020016120bb91906135f7565b6040516020818303038152906040528051906020012014905092915050565b606082826040516020016120ef92919061360e565b604051602081830303815290604052905092915050565b604051806101800160405280600073ffffffffffffffffffffffffffffffffffffffff1681526020016060815260200160608152602001600081526020016060815260200160608152602001600081526020016000815260200160008152602001600081526020016060815260200160006001811115612189576121886128d8565b5b81525090565b82805461219b90612e67565b90600052602060002090601f0160209004810192826121bd5760008555612204565b82601f106121d657805160ff1916838001178555612204565b82800160010185558215612204579182015b828111156122035782518255916020019190600101906121e8565b5b5090506122119190612215565b5090565b5b8082111561222e576000816000905550600101612216565b5090565b6000604051905090565b600080fd5b600080fd5b6000819050919050565b61225981612246565b811461226457600080fd5b50565b60008135905061227681612250565b92915050565b6000602082840312156122925761229161223c565b5b60006122a084828501612267565b91505092915050565b600081519050919050565b600082825260208201905092915050565b6000819050602082019050919050565b600073ffffffffffffffffffffffffffffffffffffffff82169050919050565b6000612300826122d5565b9050919050565b612310816122f5565b82525050565b61231f81612246565b82525050565b60608201600082015161233b6000850182612307565b50602082015161234e6020850182612316565b5060408201516123616040850182612316565b50505050565b60006123738383612325565b60608301905092915050565b6000602082019050919050565b6000612397826122a9565b6123a181856122b4565b93506123ac836122c5565b8060005b838110156123dd5781516123c48882612367565b97506123cf8361237f565b9250506001810190506123b0565b5085935050505092915050565b60006020820190508181036000830152612404818461238c565b905092915050565b61241581612246565b82525050565b6000602082019050612430600083018461240c565b92915050565b600081519050919050565b600082825260208201905092915050565b6000819050602082019050919050565b600081519050919050565b600082825260208201905092915050565b60005b8381101561249c578082015181840152602081019050612481565b838111156124ab576000848401525b50505050565b6000601f19601f8301169050919050565b60006124cd82612462565b6124d7818561246d565b93506124e781856020860161247e565b6124f0816124b1565b840191505092915050565b60008115159050919050565b612510816124fb565b82525050565b600060a083016000830151848203600086015261253382826124c2565b91505060208301516125486020860182612316565b50604083015161255b6040860182612507565b50606083015161256e6060860182612316565b506080830151848203608086015261258682826124c2565b9150508091505092915050565b600061259f8383612516565b905092915050565b6000602082019050919050565b60006125bf82612436565b6125c98185612441565b9350836020820285016125db85612452565b8060005b8581101561261757848403895281516125f88582612593565b9450612603836125a7565b925060208a019950506001810190506125df565b50829750879550505050505092915050565b6000602082019050818103600083015261264381846125b4565b905092915050565b600080fd5b600080fd5b7f4e487b7100000000000000000000000000000000000000000000000000000000600052604160045260246000fd5b61268d826124b1565b810181811067ffffffffffffffff821117156126ac576126ab612655565b5b80604052505050565b60006126bf612232565b90506126cb8282612684565b919050565b600067ffffffffffffffff8211156126eb576126ea612655565b5b6126f4826124b1565b9050602081019050919050565b82818337600083830152505050565b600061272361271e846126d0565b6126b5565b90508281526020810184848401111561273f5761273e612650565b5b61274a848285612701565b509392505050565b600082601f8301126127675761276661264b565b5b8135612777848260208601612710565b91505092915050565b600080600080600080600060e0888a03121561279f5761279e61223c565b5b600088013567ffffffffffffffff8111156127bd576127bc612241565b5b6127c98a828b01612752565b975050602088013567ffffffffffffffff8111156127ea576127e9612241565b5b6127f68a828b01612752565b965050604088013567ffffffffffffffff81111561281757612816612241565b5b6128238a828b01612752565b955050606088013567ffffffffffffffff81111561284457612843612241565b5b6128508a828b01612752565b94505060806128618a828b01612267565b93505060a06128728a828b01612267565b92505060c088013567ffffffffffffffff81111561289357612892612241565b5b61289f8a828b01612752565b91505092959891949750929550565b6128b7816124fb565b82525050565b60006020820190506128d260008301846128ae565b92915050565b7f4e487b7100000000000000000000000000000000000000000000000000000000600052602160045260246000fd5b60028110612918576129176128d8565b5b50565b600081905061292982612907565b919050565b60006129398261291b565b9050919050565b6129498161292e565b82525050565b6000610180830160008301516129686000860182612307565b506020830151848203602086015261298082826124c2565b9150506040830151848203604086015261299a82826124c2565b91505060608301516129af6060860182612316565b50608083015184820360808601526129c782826124c2565b91505060a083015184820360a08601526129e182826124c2565b91505060c08301516129f660c0860182612316565b5060e0830151612a0960e0860182612316565b50610100830151612a1e610100860182612316565b50610120830151612a33610120860182612316565b50610140830151848203610140860152612a4d82826124c2565b915050610160830151612a64610160860182612940565b508091505092915050565b60006020820190508181036000830152612a89818461294f565b905092915050565b600081519050919050565b600082825260208201905092915050565b6000819050602082019050919050565b600061018083016000830151612ad66000860182612307565b5060208301518482036020860152612aee82826124c2565b91505060408301518482036040860152612b0882826124c2565b9150506060830151612b1d6060860182612316565b5060808301518482036080860152612b3582826124c2565b91505060a083015184820360a0860152612b4f82826124c2565b91505060c0830151612b6460c0860182612316565b5060e0830151612b7760e0860182612316565b50610100830151612b8c610100860182612316565b50610120830151612ba1610120860182612316565b50610140830151848203610140860152612bbb82826124c2565b915050610160830151612bd2610160860182612940565b508091505092915050565b6000612be98383612abd565b905092915050565b6000602082019050919050565b6000612c0982612a91565b612c138185612a9c565b935083602082028501612c2585612aad565b8060005b85811015612c615784840389528151612c428582612bdd565b9450612c4d83612bf1565b925060208a01995050600181019050612c29565b50829750879550505050505092915050565b60006020820190508181036000830152612c8d8184612bfe565b905092915050565b612c9e816122f5565b8114612ca957600080fd5b50565b600081359050612cbb81612c95565b92915050565b600080600060608486031215612cda57612cd961223c565b5b6000612ce886828701612cac565b9350506020612cf986828701612267565b925050604084013567ffffffffffffffff811115612d1a57612d19612241565b5b612d2686828701612752565b9150509250925092565b60008060408385031215612d4757612d4661223c565b5b6000612d5585828601612267565b925050602083013567ffffffffffffffff811115612d7657612d75612241565b5b612d8285828601612752565b9150509250929050565b600082825260208201905092915050565b7f43616d706169676e206e6f7420666f756e642e00000000000000000000000000600082015250565b6000612dd3601383612d8c565b9150612dde82612d9d565b602082019050919050565b60006020820190508181036000830152612e0281612dc6565b9050919050565b7f4e487b7100000000000000000000000000000000000000000000000000000000600052603260045260246000fd5b7f4e487b7100000000000000000000000000000000000000000000000000000000600052602260045260246000fd5b60006002820490506001821680612e7f57607f821691505b602082108103612e9257612e91612e38565b5b50919050565b7f4e487b7100000000000000000000000000000000000000000000000000000000600052601160045260246000fd5b6000612ed282612246565b9150612edd83612246565b9250827fffffffffffffffffffffffffffffffffffffffffffffffffffffffffffffffff03821115612f1257612f11612e98565b5b828201905092915050565b6000612f2882612246565b91507fffffffffffffffffffffffffffffffffffffffffffffffffffffffffffffffff8203612f5a57612f59612e98565b5b600182019050919050565b7f43616d706169676e204372656174656400000000000000000000000000000000600082015250565b6000612f9b601083612d8c565b9150612fa682612f65565b602082019050919050565b6000606082019050612fc6600083018561240c565b8181036020830152612fd781612f8e565b9050612fe6604083018461240c565b9392505050565b7f43616d706169676e2068617320636f6d706c657465642e000000000000000000600082015250565b6000613023601783612d8c565b915061302e82612fed565b602082019050919050565b6000602082019050818103600083015261305281613016565b9050919050565b7f4f6e6c7920637265617465722063616e2077697468647261772066756e64732c60008201527f2063726561746572206164647265737320646f65736e2774206d617463682e00602082015250565b60006130b5603f83612d8c565b91506130c082613059565b604082019050919050565b600060208201905081810360008301526130e4816130a8565b9050919050565b7f4f6e6c7920637265617465722063616e2077697468647261772066756e64732c60008201527f2075736572496420646f65736e2774206d617463682e00000000000000000000602082015250565b6000613147603683612d8c565b9150613152826130eb565b604082019050919050565b600060208201905081810360008301526131768161313a565b9050919050565b7f4e6f7420656e6f7567682062616c616e636520746f2077697468647261772e00600082015250565b60006131b3601f83612d8c565b91506131be8261317d565b602082019050919050565b600060208201905081810360008301526131e2816131a6565b9050919050565b60006131f482612246565b91506131ff83612246565b92508282101561321257613211612e98565b5b828203905092915050565b7f43616d706169676e20436f6d706c657465640000000000000000000000000000600082015250565b6000613253601283612d8c565b915061325e8261321d565b602082019050919050565b600060608201905061327e600083018561240c565b818103602083015261328f81613246565b905061329e604083018461240c565b9392505050565b7f4574686572206d7573742062652067726561746572207468616e207a65726f2e600082015250565b60006132db602083612d8c565b91506132e6826132a5565b602082019050919050565b6000602082019050818103600083015261330a816132ce565b9050919050565b7f446561646c696e6520686173207061737365642e000000000000000000000000600082015250565b6000613347601483612d8c565b915061335282613311565b602082019050919050565b600060208201905081810360008301526133768161333a565b9050919050565b7f5461726765742066756e647320686173207261697365642c20796f752063616e60008201527f277420646f6e617465206e6f772e000000000000000000000000000000000000602082015250565b60006133d9602e83612d8c565b91506133e48261337d565b604082019050919050565b60006020820190508181036000830152613408816133cc565b9050919050565b7f43616e277420646f6e617465207468697320616d6d6f756e742c20706c65617360008201527f652074727920616761696e2e0000000000000000000000000000000000000000602082015250565b600061346b602c83612d8c565b91506134768261340f565b604082019050919050565b6000602082019050818103600083015261349a8161345e565b9050919050565b7f437265617465722063616e27742066756e647320686973206f776e2063616d7060008201527f6169676e2e000000000000000000000000000000000000000000000000000000602082015250565b60006134fd602583612d8c565b9150613508826134a1565b604082019050919050565b6000602082019050818103600083015261352c816134f0565b9050919050565b7f46756e647320446f6e6174656420666f722043616d706169676e000000000000600082015250565b6000613569601a83612d8c565b915061357482613533565b602082019050919050565b6000606082019050613594600083018561240c565b81810360208301526135a58161355c565b90506135b4604083018461240c565b9392505050565b600081905092915050565b60006135d182612462565b6135db81856135bb565b93506135eb81856020860161247e565b80840191505092915050565b600061360382846135c6565b915081905092915050565b600061361a82856135c6565b915061362682846135c6565b9150819050939250505056fe57697468647261772066756e64732066726f6d2063616d706169676e207469746c656420617320446f6e6174652066756e647320746f2063616d706169676e207469746c656420617320a2646970667358221220530f985f766b0ddeead2079e8c2b32a84eafd1d396e99b504a738606b56f418a64736f6c634300080d0033",
  "immutableReferences": {},
  "source": "//SPDX-License-Identifier: MIT\npragma solidity ^0.8.7;\n\ncontract Campaign {\n    enum statusEnum {\n        Ongoing,\n        Completed\n    }\n\n    event Action(\n        uint256 campaignId,\n        string actionType,\n        address indexed executor,\n        uint256 timestamp\n    );\n\n    struct funderStruct {\n        address funder;\n        uint contribution;\n        uint timestamp;\n    }\n\n    struct statsStruct {\n        uint totalCampaigns;\n        uint totalFunding;\n        uint totalDonation;\n    }\n\n    struct campaignStructre {\n        address creator;\n        string userId;\n        string categoryId;\n        uint256 campaignId;\n        string title;\n        string description;\n        uint256 targetFunds;\n        uint256 deadline;\n        uint256 raisedFunds;\n        uint256 remainingFunds;\n        string imageURL;\n        statusEnum status;\n    }\n\n    address campaignCreator;\n    uint campaignsCount;\n    campaignStructre[] campaigns;\n    userStatsStruct[] userStats;\n    statsStruct stats;\n    uint public contractBalance;\n\n    mapping(uint => bool) campaignExist;\n    mapping(address => campaignStructre) campaignsOf;\n    mapping(uint => funderStruct[]) fundersOf;\n\n    function createCampaign(\n        string memory userId,\n        string memory categoryId,\n        string memory title,\n        string memory description,\n        uint256 targetFunds,\n        uint256 deadline,\n        string memory imageURL\n    ) public returns (bool) {\n        campaignCreator = msg.sender;\n\n        campaignStructre memory campaign;\n\n        campaign.userId = userId;\n        campaign.creator = msg.sender;\n        campaign.categoryId = categoryId;\n        campaign.campaignId = campaignsCount;\n        campaign.title = title;\n        campaign.description = description;\n        campaign.targetFunds = targetFunds;\n        campaign.deadline = deadline;\n        campaign.raisedFunds = 0;\n        campaign.remainingFunds = targetFunds;\n        campaign.imageURL = imageURL;\n        campaign.status = statusEnum.Ongoing;\n\n        campaigns.push(campaign);\n        campaignExist[campaignsCount] = true;\n        campaignsOf[address(this)] = campaign;\n        stats.totalCampaigns += 1;\n\n        emit Action(\n            campaignsCount++,\n            \"Campaign Created\",\n            msg.sender,\n            block.timestamp\n        );\n        return true;\n    }\n\n    function donateFunds(\n        uint campaignId,\n        string memory userId\n    ) public payable returns (bool) {\n        require(\n            campaigns[campaignId].status != statusEnum.Completed,\n            \"Campaign has completed.\"\n        );\n        require(msg.value > 0 ether, \"Ether must be greater than zero.\");\n        require(campaignExist[campaignId], \"Campaign not found.\");\n        require(\n            block.timestamp >= campaigns[campaignId].deadline,\n            \"Deadline has passed.\"\n        );\n        require(\n            campaigns[campaignId].raisedFunds <=\n                campaigns[campaignId].targetFunds,\n            \"Target funds has raised, you can't donate now.\"\n        );\n        require(\n            campaigns[campaignId].raisedFunds + msg.value <=\n                campaigns[campaignId].targetFunds,\n            \"Can't donate this ammount, please try again.\"\n        );\n\n        require(\n            !compareStrings(campaigns[campaignId].userId, userId),\n            \"Creater can't funds his own campaign.\"\n        );\n\n        stats.totalFunding += 1;\n        stats.totalDonation += msg.value;\n\n        campaigns[campaignId].raisedFunds += msg.value;\n        campaigns[campaignId].remainingFunds =\n            campaigns[campaignId].targetFunds -\n            campaigns[campaignId].raisedFunds;\n\n        contractBalance += msg.value;\n\n        fundersOf[campaignId].push(\n            funderStruct(msg.sender, msg.value, block.timestamp)\n        );\n\n        userStats.push(\n            userStatsStruct(\n                userId,\n                msg.value,\n                true,\n                block.timestamp,\n                concatenateStrings(\n                    \"Donate funds to campaign titled as \",\n                    campaigns[campaignId].title\n                )\n            )\n        );\n\n        emit Action(\n            campaignId,\n            \"Funds Donated for Campaign\",\n            msg.sender,\n            block.timestamp\n        );\n        return true;\n    }\n\n    function concatenateStrings(\n        string memory str1,\n        string memory str2\n    ) private pure returns (string memory) {\n        return string(abi.encodePacked(str1, str2));\n    }\n\n    struct userStatsStruct {\n        string userId;\n        uint contribution;\n        bool isFundsDonating;\n        uint timestamp;\n        string description;\n    }\n\n    function getCampaignFunders(\n        uint id\n    ) public view returns (funderStruct[] memory) {\n        return fundersOf[id];\n    }\n\n    function getUserStats() public view returns (userStatsStruct[] memory) {\n        return userStats;\n    }\n\n    function getCampaign(\n        uint id\n    ) public view returns (campaignStructre memory) {\n        require(campaignExist[id], \"Campaign not found.\");\n\n        return campaigns[id];\n    }\n\n    function getAllCampaigns() public view returns (campaignStructre[] memory) {\n        return campaigns;\n    }\n\n    function getRaisedFunds(uint id) public view returns (uint256) {\n        require(campaignExist[id], \"Campaign not found.\");\n\n        return campaigns[id].raisedFunds;\n    }\n\n    function getRemainingFunds(uint id) public view returns (uint256) {\n        require(campaignExist[id], \"Campaign not found.\");\n\n        return campaigns[id].remainingFunds;\n    }\n\n    function withdrawFunds(\n        address ownerAddress,\n        uint campaignId,\n        string memory userId\n    ) public returns (bool) {\n        require(\n            campaigns[campaignId].status != statusEnum.Completed,\n            \"Campaign has completed.\"\n        );\n        require(\n            ownerAddress == campaignCreator,\n            \"Only creater can withdraw funds, creater address doesn't match.\"\n        );\n        require(\n            compareStrings(campaigns[campaignId].userId, userId),\n            \"Only creater can withdraw funds, userId doesn't match.\"\n        );\n        require(\n            campaigns[campaignId].raisedFunds > 0,\n            \"Not enough balance to withdraw.\"\n        );\n\n        address payable owner = payable(ownerAddress);\n\n        userStats.push(\n            userStatsStruct(\n                userId,\n                campaigns[campaignId].raisedFunds,\n                false,\n                block.timestamp,\n                concatenateStrings(\n                    \"Withdraw funds from campaign titled as \",\n                    campaigns[campaignId].title\n                )\n            )\n        );\n\n        owner.transfer(campaigns[campaignId].raisedFunds);\n\n        contractBalance -= campaigns[campaignId].raisedFunds;\n\n        campaigns[campaignId].status = statusEnum.Completed;\n\n        emit Action(\n            campaignId,\n            \"Campaign Completed\",\n            msg.sender,\n            block.timestamp\n        );\n\n        return true;\n    }\n\n    function compareStrings(\n        string memory a,\n        string memory b\n    ) private pure returns (bool) {\n        return keccak256(abi.encodePacked(a)) == keccak256(abi.encodePacked(b));\n    }\n}\n",
  "sourcePath": "/Users/ali/Projects/FYP/helping-hands-apis/contracts/Campaign.sol",
  "compiler": {
    "name": "solc",
    "version": "0.8.13+commit.abaa5c0e.Emscripten.clang"
  },
  "schemaVersion": "3.4.11",
  "updatedAt": "2023-05-13T02:38:20.550Z",
  "networkType": "ethereum",
  "devdoc": {
    "kind": "dev",
    "methods": {},
    "version": 1
  },
  "userdoc": {
    "kind": "user",
    "methods": {},
    "version": 1
  }
}