{
  "contractName": "Project",
  "abi": [
    {
      "anonymous": false,
      "inputs": [
        {
          "indexed": false,
          "internalType": "uint256",
          "name": "id",
          "type": "uint256"
        },
        {
          "indexed": false,
          "internalType": "string",
          "name": "actionType",
          "type": "string"
        },
        {
          "indexed": true,
          "internalType": "address",
          "name": "executor",
          "type": "address"
        },
        {
          "indexed": false,
          "internalType": "uint256",
          "name": "timestamp",
          "type": "uint256"
        }
      ],
      "name": "Action",
      "type": "event"
    },
    {
      "inputs": [],
      "name": "contractBalance",
      "outputs": [
        {
          "internalType": "uint256",
          "name": "",
          "type": "uint256"
        }
      ],
      "stateMutability": "view",
      "type": "function"
    },
    {
      "inputs": [
        {
          "internalType": "string",
          "name": "userId",
          "type": "string"
        },
        {
          "internalType": "string",
          "name": "categoryId",
          "type": "string"
        },
        {
          "internalType": "string",
          "name": "title",
          "type": "string"
        },
        {
          "internalType": "string",
          "name": "description",
          "type": "string"
        },
        {
          "internalType": "uint256",
          "name": "targetFunds",
          "type": "uint256"
        },
        {
          "internalType": "string",
          "name": "imageURL",
          "type": "string"
        },
        {
          "internalType": "string",
          "name": "investerId",
          "type": "string"
        },
        {
          "internalType": "address",
          "name": "investerAddress",
          "type": "address"
        }
      ],
      "name": "createProject",
      "outputs": [
        {
          "internalType": "bool",
          "name": "",
          "type": "bool"
        }
      ],
      "stateMutability": "nonpayable",
      "type": "function"
    },
    {
      "inputs": [
        {
          "internalType": "uint256",
          "name": "projectId",
          "type": "uint256"
        },
        {
          "internalType": "string",
          "name": "title",
          "type": "string"
        },
        {
          "internalType": "string",
          "name": "description",
          "type": "string"
        },
        {
          "internalType": "uint256",
          "name": "targetFunds",
          "type": "uint256"
        },
        {
          "internalType": "uint256",
          "name": "startTime",
          "type": "uint256"
        },
        {
          "internalType": "uint256",
          "name": "endTime",
          "type": "uint256"
        }
      ],
      "name": "createProjectModule",
      "outputs": [
        {
          "internalType": "bool",
          "name": "",
          "type": "bool"
        }
      ],
      "stateMutability": "nonpayable",
      "type": "function"
    },
    {
      "inputs": [
        {
          "internalType": "uint256",
          "name": "id",
          "type": "uint256"
        }
      ],
      "name": "getProject",
      "outputs": [
        {
          "components": [
            {
              "internalType": "address",
              "name": "creator",
              "type": "address"
            },
            {
              "internalType": "string",
              "name": "userId",
              "type": "string"
            },
            {
              "internalType": "string",
              "name": "categoryId",
              "type": "string"
            },
            {
              "internalType": "uint256",
              "name": "projectId",
              "type": "uint256"
            },
            {
              "internalType": "string",
              "name": "title",
              "type": "string"
            },
            {
              "internalType": "string",
              "name": "description",
              "type": "string"
            },
            {
              "components": [
                {
                  "internalType": "uint256",
                  "name": "targetFunds",
                  "type": "uint256"
                },
                {
                  "internalType": "uint256",
                  "name": "raisedFunds",
                  "type": "uint256"
                },
                {
                  "internalType": "uint256",
                  "name": "remainingFunds",
                  "type": "uint256"
                }
              ],
              "internalType": "struct Project.fundStruct",
              "name": "projectFunds",
              "type": "tuple"
            },
            {
              "internalType": "string",
              "name": "imageURL",
              "type": "string"
            },
            {
              "components": [
                {
                  "internalType": "uint256",
                  "name": "projectId",
                  "type": "uint256"
                },
                {
                  "internalType": "uint256",
                  "name": "moduleId",
                  "type": "uint256"
                },
                {
                  "internalType": "string",
                  "name": "title",
                  "type": "string"
                },
                {
                  "internalType": "string",
                  "name": "description",
                  "type": "string"
                },
                {
                  "components": [
                    {
                      "internalType": "uint256",
                      "name": "targetFunds",
                      "type": "uint256"
                    },
                    {
                      "internalType": "uint256",
                      "name": "raisedFunds",
                      "type": "uint256"
                    },
                    {
                      "internalType": "uint256",
                      "name": "remainingFunds",
                      "type": "uint256"
                    }
                  ],
                  "internalType": "struct Project.fundStruct",
                  "name": "moduleFunds",
                  "type": "tuple"
                },
                {
                  "internalType": "uint256",
                  "name": "startTime",
                  "type": "uint256"
                },
                {
                  "internalType": "uint256",
                  "name": "endTime",
                  "type": "uint256"
                },
                {
                  "internalType": "enum Project.statusEnum",
                  "name": "status",
                  "type": "uint8"
                }
              ],
              "internalType": "struct Project.moduleStructure",
              "name": "moduleStruct",
              "type": "tuple"
            },
            {
              "internalType": "string",
              "name": "investerId",
              "type": "string"
            },
            {
              "internalType": "address",
              "name": "investerAddress",
              "type": "address"
            },
            {
              "internalType": "enum Project.statusEnum",
              "name": "status",
              "type": "uint8"
            }
          ],
          "internalType": "struct Project.projectStructre",
          "name": "",
          "type": "tuple"
        }
      ],
      "stateMutability": "view",
      "type": "function"
    },
    {
      "inputs": [
        {
          "internalType": "uint256",
          "name": "id",
          "type": "uint256"
        }
      ],
      "name": "getModule",
      "outputs": [
        {
          "components": [
            {
              "internalType": "uint256",
              "name": "projectId",
              "type": "uint256"
            },
            {
              "internalType": "uint256",
              "name": "moduleId",
              "type": "uint256"
            },
            {
              "internalType": "string",
              "name": "title",
              "type": "string"
            },
            {
              "internalType": "string",
              "name": "description",
              "type": "string"
            },
            {
              "components": [
                {
                  "internalType": "uint256",
                  "name": "targetFunds",
                  "type": "uint256"
                },
                {
                  "internalType": "uint256",
                  "name": "raisedFunds",
                  "type": "uint256"
                },
                {
                  "internalType": "uint256",
                  "name": "remainingFunds",
                  "type": "uint256"
                }
              ],
              "internalType": "struct Project.fundStruct",
              "name": "moduleFunds",
              "type": "tuple"
            },
            {
              "internalType": "uint256",
              "name": "startTime",
              "type": "uint256"
            },
            {
              "internalType": "uint256",
              "name": "endTime",
              "type": "uint256"
            },
            {
              "internalType": "enum Project.statusEnum",
              "name": "status",
              "type": "uint8"
            }
          ],
          "internalType": "struct Project.moduleStructure",
          "name": "",
          "type": "tuple"
        }
      ],
      "stateMutability": "view",
      "type": "function"
    },
    {
      "inputs": [],
      "name": "getAllProjects",
      "outputs": [
        {
          "components": [
            {
              "internalType": "address",
              "name": "creator",
              "type": "address"
            },
            {
              "internalType": "string",
              "name": "userId",
              "type": "string"
            },
            {
              "internalType": "string",
              "name": "categoryId",
              "type": "string"
            },
            {
              "internalType": "uint256",
              "name": "projectId",
              "type": "uint256"
            },
            {
              "internalType": "string",
              "name": "title",
              "type": "string"
            },
            {
              "internalType": "string",
              "name": "description",
              "type": "string"
            },
            {
              "components": [
                {
                  "internalType": "uint256",
                  "name": "targetFunds",
                  "type": "uint256"
                },
                {
                  "internalType": "uint256",
                  "name": "raisedFunds",
                  "type": "uint256"
                },
                {
                  "internalType": "uint256",
                  "name": "remainingFunds",
                  "type": "uint256"
                }
              ],
              "internalType": "struct Project.fundStruct",
              "name": "projectFunds",
              "type": "tuple"
            },
            {
              "internalType": "string",
              "name": "imageURL",
              "type": "string"
            },
            {
              "components": [
                {
                  "internalType": "uint256",
                  "name": "projectId",
                  "type": "uint256"
                },
                {
                  "internalType": "uint256",
                  "name": "moduleId",
                  "type": "uint256"
                },
                {
                  "internalType": "string",
                  "name": "title",
                  "type": "string"
                },
                {
                  "internalType": "string",
                  "name": "description",
                  "type": "string"
                },
                {
                  "components": [
                    {
                      "internalType": "uint256",
                      "name": "targetFunds",
                      "type": "uint256"
                    },
                    {
                      "internalType": "uint256",
                      "name": "raisedFunds",
                      "type": "uint256"
                    },
                    {
                      "internalType": "uint256",
                      "name": "remainingFunds",
                      "type": "uint256"
                    }
                  ],
                  "internalType": "struct Project.fundStruct",
                  "name": "moduleFunds",
                  "type": "tuple"
                },
                {
                  "internalType": "uint256",
                  "name": "startTime",
                  "type": "uint256"
                },
                {
                  "internalType": "uint256",
                  "name": "endTime",
                  "type": "uint256"
                },
                {
                  "internalType": "enum Project.statusEnum",
                  "name": "status",
                  "type": "uint8"
                }
              ],
              "internalType": "struct Project.moduleStructure",
              "name": "moduleStruct",
              "type": "tuple"
            },
            {
              "internalType": "string",
              "name": "investerId",
              "type": "string"
            },
            {
              "internalType": "address",
              "name": "investerAddress",
              "type": "address"
            },
            {
              "internalType": "enum Project.statusEnum",
              "name": "status",
              "type": "uint8"
            }
          ],
          "internalType": "struct Project.projectStructre[]",
          "name": "",
          "type": "tuple[]"
        }
      ],
      "stateMutability": "view",
      "type": "function"
    },
    {
      "inputs": [],
      "name": "getAllModules",
      "outputs": [
        {
          "components": [
            {
              "internalType": "uint256",
              "name": "projectId",
              "type": "uint256"
            },
            {
              "internalType": "uint256",
              "name": "moduleId",
              "type": "uint256"
            },
            {
              "internalType": "string",
              "name": "title",
              "type": "string"
            },
            {
              "internalType": "string",
              "name": "description",
              "type": "string"
            },
            {
              "components": [
                {
                  "internalType": "uint256",
                  "name": "targetFunds",
                  "type": "uint256"
                },
                {
                  "internalType": "uint256",
                  "name": "raisedFunds",
                  "type": "uint256"
                },
                {
                  "internalType": "uint256",
                  "name": "remainingFunds",
                  "type": "uint256"
                }
              ],
              "internalType": "struct Project.fundStruct",
              "name": "moduleFunds",
              "type": "tuple"
            },
            {
              "internalType": "uint256",
              "name": "startTime",
              "type": "uint256"
            },
            {
              "internalType": "uint256",
              "name": "endTime",
              "type": "uint256"
            },
            {
              "internalType": "enum Project.statusEnum",
              "name": "status",
              "type": "uint8"
            }
          ],
          "internalType": "struct Project.moduleStructure[]",
          "name": "",
          "type": "tuple[]"
        }
      ],
      "stateMutability": "view",
      "type": "function"
    },
    {
      "inputs": [
        {
          "internalType": "uint256",
          "name": "id",
          "type": "uint256"
        }
      ],
      "name": "getProjectRaisedFunds",
      "outputs": [
        {
          "internalType": "uint256",
          "name": "",
          "type": "uint256"
        }
      ],
      "stateMutability": "view",
      "type": "function"
    },
    {
      "inputs": [
        {
          "internalType": "uint256",
          "name": "id",
          "type": "uint256"
        }
      ],
      "name": "getProjectRemainingFunds",
      "outputs": [
        {
          "internalType": "uint256",
          "name": "",
          "type": "uint256"
        }
      ],
      "stateMutability": "view",
      "type": "function"
    },
    {
      "inputs": [
        {
          "internalType": "uint256",
          "name": "id",
          "type": "uint256"
        }
      ],
      "name": "getModuleRaisedFunds",
      "outputs": [
        {
          "internalType": "uint256",
          "name": "",
          "type": "uint256"
        }
      ],
      "stateMutability": "view",
      "type": "function"
    },
    {
      "inputs": [
        {
          "internalType": "uint256",
          "name": "id",
          "type": "uint256"
        }
      ],
      "name": "getModuleRemainingFunds",
      "outputs": [
        {
          "internalType": "uint256",
          "name": "",
          "type": "uint256"
        }
      ],
      "stateMutability": "view",
      "type": "function"
    },
    {
      "inputs": [
        {
          "internalType": "uint256",
          "name": "projectId",
          "type": "uint256"
        },
        {
          "internalType": "enum Project.statusEnum",
          "name": "status",
          "type": "uint8"
        }
      ],
      "name": "updateProjectStatus",
      "outputs": [
        {
          "internalType": "bool",
          "name": "",
          "type": "bool"
        }
      ],
      "stateMutability": "nonpayable",
      "type": "function"
    },
    {
      "inputs": [
        {
          "internalType": "uint256",
          "name": "id",
          "type": "uint256"
        }
      ],
      "name": "getProjectStatus",
      "outputs": [
        {
          "internalType": "enum Project.statusEnum",
          "name": "",
          "type": "uint8"
        }
      ],
      "stateMutability": "view",
      "type": "function"
    },
    {
      "inputs": [
        {
          "internalType": "uint256",
          "name": "moduleId",
          "type": "uint256"
        },
        {
          "internalType": "enum Project.statusEnum",
          "name": "status",
          "type": "uint8"
        }
      ],
      "name": "updateModuleStatus",
      "outputs": [
        {
          "internalType": "bool",
          "name": "",
          "type": "bool"
        }
      ],
      "stateMutability": "nonpayable",
      "type": "function"
    },
    {
      "inputs": [
        {
          "internalType": "uint256",
          "name": "id",
          "type": "uint256"
        }
      ],
      "name": "getModuleStatus",
      "outputs": [
        {
          "internalType": "enum Project.statusEnum",
          "name": "",
          "type": "uint8"
        }
      ],
      "stateMutability": "view",
      "type": "function"
    },
    {
      "inputs": [],
      "name": "getCurrentTimestamp",
      "outputs": [
        {
          "internalType": "uint256",
          "name": "",
          "type": "uint256"
        }
      ],
      "stateMutability": "view",
      "type": "function"
    },
    {
      "inputs": [
        {
          "internalType": "uint256",
          "name": "duration",
          "type": "uint256"
        }
      ],
      "name": "getCurrentTimestampWithDuration",
      "outputs": [
        {
          "internalType": "uint256",
          "name": "",
          "type": "uint256"
        }
      ],
      "stateMutability": "view",
      "type": "function"
    },
    {
      "inputs": [
        {
          "internalType": "string",
          "name": "a",
          "type": "string"
        },
        {
          "internalType": "string",
          "name": "b",
          "type": "string"
        },
        {
          "internalType": "string",
          "name": "c",
          "type": "string"
        },
        {
          "internalType": "string",
          "name": "d",
          "type": "string"
        }
      ],
      "name": "concatStrings",
      "outputs": [
        {
          "internalType": "string",
          "name": "",
          "type": "string"
        }
      ],
      "stateMutability": "pure",
      "type": "function"
    },
    {
      "inputs": [],
      "name": "getUserStats",
      "outputs": [
        {
          "components": [
            {
              "internalType": "string",
              "name": "userId",
              "type": "string"
            },
            {
              "internalType": "uint256",
              "name": "contribution",
              "type": "uint256"
            },
            {
              "internalType": "bool",
              "name": "isFundsDonating",
              "type": "bool"
            },
            {
              "internalType": "uint256",
              "name": "timestamp",
              "type": "uint256"
            },
            {
              "internalType": "string",
              "name": "description",
              "type": "string"
            }
          ],
          "internalType": "struct Project.userStatsStruct[]",
          "name": "",
          "type": "tuple[]"
        }
      ],
      "stateMutability": "view",
      "type": "function"
    },
    {
      "inputs": [
        {
          "internalType": "uint256",
          "name": "projectId",
          "type": "uint256"
        },
        {
          "internalType": "uint256",
          "name": "moduleId",
          "type": "uint256"
        },
        {
          "internalType": "string",
          "name": "userId",
          "type": "string"
        }
      ],
      "name": "fundsToProjectModule",
      "outputs": [
        {
          "internalType": "bool",
          "name": "",
          "type": "bool"
        }
      ],
      "stateMutability": "payable",
      "type": "function"
    },
    {
      "inputs": [
        {
          "internalType": "address",
          "name": "ownerAddress",
          "type": "address"
        },
        {
          "internalType": "uint256",
          "name": "projectId",
          "type": "uint256"
        },
        {
          "internalType": "uint256",
          "name": "moduleId",
          "type": "uint256"
        },
        {
          "internalType": "string",
          "name": "userId",
          "type": "string"
        }
      ],
      "name": "withdrawFunds",
      "outputs": [],
      "stateMutability": "nonpayable",
      "type": "function"
    }
  ],
  "bytecode": "0x608060405234801561001057600080fd5b5061539c806100206000396000f3fe60806040526004361061012a5760003560e01c80639f91cd15116100ab578063c13981371161006f578063c139813714610459578063c5a7cea414610484578063cdb6bba9146104c1578063d11d498b146104fe578063e347675d1461053b578063f0f3f2c8146105785761012a565b80639f91cd1514610349578063a307b91414610386578063acd9324d146103af578063b2ef7fe7146103df578063b56b48aa1461041c5761012a565b80636c9230db116100f25780636c9230db1461024e57806380d03829146102795780638b7afe2e146102a45780639675c009146102cf5780639cf1d0761461030c5761012a565b80633918db9f1461012f578063394648721461016c57806348b5bc06146101a957806353f6ad37146101e657806355f916b614610211575b600080fd5b34801561013b57600080fd5b5061015660048036038101906101519190613b8c565b6105b5565b6040516101639190613d05565b60405180910390f35b34801561017857600080fd5b50610193600480360381019061018e9190613d20565b610d3a565b6040516101a09190613d5c565b60405180910390f35b3480156101b557600080fd5b506101d060048036038101906101cb9190613d20565b610dcc565b6040516101dd9190613d5c565b60405180910390f35b3480156101f257600080fd5b506101fb610e5e565b6040516102089190613f5c565b60405180910390f35b34801561021d57600080fd5b5061023860048036038101906102339190613d20565b611010565b60405161024591906140f0565b60405180910390f35b34801561025a57600080fd5b50610263611266565b6040516102709190613d5c565b60405180910390f35b34801561028557600080fd5b5061028e61126e565b60405161029b91906143cb565b60405180910390f35b3480156102b057600080fd5b506102b961192b565b6040516102c69190613d5c565b60405180910390f35b3480156102db57600080fd5b506102f660048036038101906102f19190613d20565b611931565b60405161030391906143fc565b60405180910390f35b34801561031857600080fd5b50610333600480360381019061032e9190614417565b6119cd565b6040516103409190613d05565b60405180910390f35b34801561035557600080fd5b50610370600480360381019061036b91906144dc565b611ece565b60405161037d91906145fd565b60405180910390f35b34801561039257600080fd5b506103ad60048036038101906103a8919061461f565b611f00565b005b6103c960048036038101906103c491906146a2565b61246d565b6040516103d69190613d05565b60405180910390f35b3480156103eb57600080fd5b5061040660048036038101906104019190613d20565b612ad8565b60405161041391906143fc565b60405180910390f35b34801561042857600080fd5b50610443600480360381019061043e9190613d20565b612b74565b6040516104509190613d5c565b60405180910390f35b34801561046557600080fd5b5061046e612b89565b60405161047b91906147d3565b60405180910390f35b34801561049057600080fd5b506104ab60048036038101906104a6919061481a565b612da2565b6040516104b89190613d05565b60405180910390f35b3480156104cd57600080fd5b506104e860048036038101906104e39190613d20565b612eab565b6040516104f59190613d5c565b60405180910390f35b34801561050a57600080fd5b506105256004803603810190610520919061481a565b612f3d565b6040516105329190613d05565b60405180910390f35b34801561054757600080fd5b50610562600480360381019061055d9190613d20565b613046565b60405161056f9190613d5c565b60405180910390f35b34801561058457600080fd5b5061059f600480360381019061059a9190613d20565b6130d8565b6040516105ac9190614989565b60405180910390f35b60008085116105f9576040517f08c379a00000000000000000000000000000000000000000000000000000000081526004016105f0906149f7565b60405180910390fd5b336000806101000a81548173ffffffffffffffffffffffffffffffffffffffff021916908373ffffffffffffffffffffffffffffffffffffffff1602179055506106416137d2565b33816000019073ffffffffffffffffffffffffffffffffffffffff16908173ffffffffffffffffffffffffffffffffffffffff1681525050898160200181905250888160400181905250600154816060018181525050878160800181905250868160a00181905250858160c00151600001818152505060008160c001516020018181525050858160c001516040018181525050848160e00181905250838161012001819052508281610140019073ffffffffffffffffffffffffffffffffffffffff16908173ffffffffffffffffffffffffffffffffffffffff16815250506000816101600190600581111561073a57610739613fc0565b5b9081600581111561074e5761074d613fc0565b5b81525050600381908060018154018082558091505060019003906000526020600020906016020160009091909190915060008201518160000160006101000a81548173ffffffffffffffffffffffffffffffffffffffff021916908373ffffffffffffffffffffffffffffffffffffffff16021790555060208201518160010190805190602001906107e192919061387d565b5060408201518160020190805190602001906107fe92919061387d565b5060608201518160030155608082015181600401908051906020019061082592919061387d565b5060a082015181600501908051906020019061084292919061387d565b5060c082015181600601600082015181600001556020820151816001015560408201518160020155505060e082015181600901908051906020019061088892919061387d565b5061010082015181600a01600082015181600001556020820151816001015560408201518160020190805190602001906108c392919061387d565b5060608201518160030190805190602001906108e092919061387d565b50608082015181600401600082015181600001556020820151816001015560408201518160020155505060a0820151816007015560c0820151816008015560e08201518160090160006101000a81548160ff0219169083600581111561094957610948613fc0565b5b0217905550505061012082015181601401908051906020019061096d92919061387d565b506101408201518160150160006101000a81548173ffffffffffffffffffffffffffffffffffffffff021916908373ffffffffffffffffffffffffffffffffffffffff1602179055506101608201518160150160146101000a81548160ff021916908360058111156109e2576109e1613fc0565b5b02179055505050600160076000600154815260200190815260200160002060006101000a81548160ff02191690831515021790555080600960003073ffffffffffffffffffffffffffffffffffffffff1673ffffffffffffffffffffffffffffffffffffffff16815260200190815260200160002060008201518160000160006101000a81548173ffffffffffffffffffffffffffffffffffffffff021916908373ffffffffffffffffffffffffffffffffffffffff1602179055506020820151816001019080519060200190610aba92919061387d565b506040820151816002019080519060200190610ad792919061387d565b50606082015181600301556080820151816004019080519060200190610afe92919061387d565b5060a0820151816005019080519060200190610b1b92919061387d565b5060c082015181600601600082015181600001556020820151816001015560408201518160020155505060e0820151816009019080519060200190610b6192919061387d565b5061010082015181600a0160008201518160000155602082015181600101556040820151816002019080519060200190610b9c92919061387d565b506060820151816003019080519060200190610bb992919061387d565b50608082015181600401600082015181600001556020820151816001015560408201518160020155505060a0820151816007015560c0820151816008015560e08201518160090160006101000a81548160ff02191690836005811115610c2257610c21613fc0565b5b02179055505050610120820151816014019080519060200190610c4692919061387d565b506101408201518160150160006101000a81548173ffffffffffffffffffffffffffffffffffffffff021916908373ffffffffffffffffffffffffffffffffffffffff1602179055506101608201518160150160146101000a81548160ff02191690836005811115610cbb57610cba613fc0565b5b02179055509050503373ffffffffffffffffffffffffffffffffffffffff167faee8e5d3bbb2f71a951b5632cee20f7ac487b9f8ab4f66a236f7694b13af7c6a60016000815480929190610d0e90614a46565b9190505542604051610d21929190614ada565b60405180910390a2600191505098975050505050505050565b60006008600083815260200190815260200160002060009054906101000a900460ff16610d9c576040517f08c379a0000000000000000000000000000000000000000000000000000000008152600401610d9390614b62565b60405180910390fd5b60048281548110610db057610daf614b82565b5b90600052602060002090600a0201600401600101549050919050565b60006007600083815260200190815260200160002060009054906101000a900460ff16610e2e576040517f08c379a0000000000000000000000000000000000000000000000000000000008152600401610e2590614bfd565b60405180910390fd5b60038281548110610e4257610e41614b82565b5b9060005260206000209060160201600601600201549050919050565b60606005805480602002602001604051908101604052809291908181526020016000905b8282101561100757838290600052602060002090600502016040518060a0016040529081600082018054610eb590614c4c565b80601f0160208091040260200160405190810160405280929190818152602001828054610ee190614c4c565b8015610f2e5780601f10610f0357610100808354040283529160200191610f2e565b820191906000526020600020905b815481529060010190602001808311610f1157829003601f168201915b50505050508152602001600182015481526020016002820160009054906101000a900460ff1615151515815260200160038201548152602001600482018054610f7690614c4c565b80601f0160208091040260200160405190810160405280929190818152602001828054610fa290614c4c565b8015610fef5780601f10610fc457610100808354040283529160200191610fef565b820191906000526020600020905b815481529060010190602001808311610fd257829003601f168201915b50505050508152505081526020019060010190610e82565b50505050905090565b611018613903565b6008600083815260200190815260200160002060009054906101000a900460ff16611078576040517f08c379a000000000000000000000000000000000000000000000000000000000815260040161106f90614b62565b60405180910390fd5b6004828154811061108c5761108b614b82565b5b90600052602060002090600a02016040518061010001604052908160008201548152602001600182015481526020016002820180546110ca90614c4c565b80601f01602080910402602001604051908101604052809291908181526020018280546110f690614c4c565b80156111435780601f1061111857610100808354040283529160200191611143565b820191906000526020600020905b81548152906001019060200180831161112657829003601f168201915b5050505050815260200160038201805461115c90614c4c565b80601f016020809104026020016040519081016040528092919081815260200182805461118890614c4c565b80156111d55780601f106111aa576101008083540402835291602001916111d5565b820191906000526020600020905b8154815290600101906020018083116111b857829003601f168201915b50505050508152602001600482016040518060600160405290816000820154815260200160018201548152602001600282015481525050815260200160078201548152602001600882015481526020016009820160009054906101000a900460ff16600581111561124957611248613fc0565b5b600581111561125b5761125a613fc0565b5b815250509050919050565b600042905090565b60606003805480602002602001604051908101604052809291908181526020016000905b828210156119225783829060005260206000209060160201604051806101800160405290816000820160009054906101000a900473ffffffffffffffffffffffffffffffffffffffff1673ffffffffffffffffffffffffffffffffffffffff1673ffffffffffffffffffffffffffffffffffffffff16815260200160018201805461131c90614c4c565b80601f016020809104026020016040519081016040528092919081815260200182805461134890614c4c565b80156113955780601f1061136a57610100808354040283529160200191611395565b820191906000526020600020905b81548152906001019060200180831161137857829003601f168201915b505050505081526020016002820180546113ae90614c4c565b80601f01602080910402602001604051908101604052809291908181526020018280546113da90614c4c565b80156114275780601f106113fc57610100808354040283529160200191611427565b820191906000526020600020905b81548152906001019060200180831161140a57829003601f168201915b505050505081526020016003820154815260200160048201805461144a90614c4c565b80601f016020809104026020016040519081016040528092919081815260200182805461147690614c4c565b80156114c35780601f10611498576101008083540402835291602001916114c3565b820191906000526020600020905b8154815290600101906020018083116114a657829003601f168201915b505050505081526020016005820180546114dc90614c4c565b80601f016020809104026020016040519081016040528092919081815260200182805461150890614c4c565b80156115555780601f1061152a57610100808354040283529160200191611555565b820191906000526020600020905b81548152906001019060200180831161153857829003601f168201915b5050505050815260200160068201604051806060016040529081600082015481526020016001820154815260200160028201548152505081526020016009820180546115a090614c4c565b80601f01602080910402602001604051908101604052809291908181526020018280546115cc90614c4c565b80156116195780601f106115ee57610100808354040283529160200191611619565b820191906000526020600020905b8154815290600101906020018083116115fc57829003601f168201915b50505050508152602001600a820160405180610100016040529081600082015481526020016001820154815260200160028201805461165790614c4c565b80601f016020809104026020016040519081016040528092919081815260200182805461168390614c4c565b80156116d05780601f106116a5576101008083540402835291602001916116d0565b820191906000526020600020905b8154815290600101906020018083116116b357829003601f168201915b505050505081526020016003820180546116e990614c4c565b80601f016020809104026020016040519081016040528092919081815260200182805461171590614c4c565b80156117625780601f1061173757610100808354040283529160200191611762565b820191906000526020600020905b81548152906001019060200180831161174557829003601f168201915b50505050508152602001600482016040518060600160405290816000820154815260200160018201548152602001600282015481525050815260200160078201548152602001600882015481526020016009820160009054906101000a900460ff1660058111156117d6576117d5613fc0565b5b60058111156117e8576117e7613fc0565b5b81525050815260200160148201805461180090614c4c565b80601f016020809104026020016040519081016040528092919081815260200182805461182c90614c4c565b80156118795780601f1061184e57610100808354040283529160200191611879565b820191906000526020600020905b81548152906001019060200180831161185c57829003601f168201915b505050505081526020016015820160009054906101000a900473ffffffffffffffffffffffffffffffffffffffff1673ffffffffffffffffffffffffffffffffffffffff1673ffffffffffffffffffffffffffffffffffffffff1681526020016015820160149054906101000a900460ff1660058111156118fd576118fc613fc0565b5b600581111561190f5761190e613fc0565b5b8152505081526020019060010190611292565b50505050905090565b60065481565b60006007600083815260200190815260200160002060009054906101000a900460ff16611993576040517f08c379a000000000000000000000000000000000000000000000000000000000815260040161198a90614bfd565b60405180910390fd5b600382815481106119a7576119a6614b82565b5b906000526020600020906016020160150160149054906101000a900460ff169050919050565b60006007600088815260200190815260200160002060009054906101000a900460ff16611a2f576040517f08c379a0000000000000000000000000000000000000000000000000000000008152600401611a2690614bfd565b60405180910390fd5b60008411611a72576040517f08c379a0000000000000000000000000000000000000000000000000000000008152600401611a69906149f7565b60405180910390fd5b611a7a613903565b8781600001818152505060025481602001818152505086816040018190525085816060018190525084816080015160000181815250506000816080015160200181815250508481608001516040018181525050838160a0018181525050828160c001818152505060008160e001906005811115611afa57611af9613fc0565b5b90816005811115611b0e57611b0d613fc0565b5b8152505060048190806001815401808255809150506001900390600052602060002090600a020160009091909190915060008201518160000155602082015181600101556040820151816002019080519060200190611b6e92919061387d565b506060820151816003019080519060200190611b8b92919061387d565b50608082015181600401600082015181600001556020820151816001015560408201518160020155505060a0820151816007015560c0820151816008015560e08201518160090160006101000a81548160ff02191690836005811115611bf457611bf3613fc0565b5b02179055505050600160086000600254815260200190815260200160002060006101000a81548160ff02191690831515021790555080600a60003073ffffffffffffffffffffffffffffffffffffffff1673ffffffffffffffffffffffffffffffffffffffff16815260200190815260200160002060008201518160000155602082015181600101556040820151816002019080519060200190611c9992919061387d565b506060820151816003019080519060200190611cb692919061387d565b50608082015181600401600082015181600001556020820151816001015560408201518160020155505060a0820151816007015560c0820151816008015560e08201518160090160006101000a81548160ff02191690836005811115611d1f57611d1e613fc0565b5b02179055509050508060038981548110611d3c57611d3b614b82565b5b9060005260206000209060160201600a0160008201518160000155602082015181600101556040820151816002019080519060200190611d7d92919061387d565b506060820151816003019080519060200190611d9a92919061387d565b50608082015181600401600082015181600001556020820151816001015560408201518160020155505060a0820151816007015560c0820151816008015560e08201518160090160006101000a81548160ff02191690836005811115611e0357611e02613fc0565b5b0217905550905050600060038981548110611e2157611e20614b82565b5b906000526020600020906016020160150160146101000a81548160ff02191690836005811115611e5457611e53613fc0565b5b02179055503373ffffffffffffffffffffffffffffffffffffffff167faee8e5d3bbb2f71a951b5632cee20f7ac487b9f8ab4f66a236f7694b13af7c6a60026000815480929190611ea490614a46565b9190505542604051611eb7929190614cc9565b60405180910390a260019150509695505050505050565b606084848484604051602001611ee79493929190614d41565b6040516020818303038152906040529050949350505050565b60046005811115611f1457611f13613fc0565b5b60048381548110611f2857611f27614b82565b5b90600052602060002090600a020160090160009054906101000a900460ff166005811115611f5957611f58613fc0565b5b03611f99576040517f08c379a0000000000000000000000000000000000000000000000000000000008152600401611f9090614dcb565b60405180910390fd5b60008054906101000a900473ffffffffffffffffffffffffffffffffffffffff1673ffffffffffffffffffffffffffffffffffffffff168473ffffffffffffffffffffffffffffffffffffffff1614612027576040517f08c379a000000000000000000000000000000000000000000000000000000000815260040161201e90614e37565b60405180910390fd5b60006004838154811061203d5761203c614b82565b5b90600052602060002090600a02016004016001015411612092576040517f08c379a000000000000000000000000000000000000000000000000000000000815260040161208990614ea3565b60405180910390fd5b60008490508073ffffffffffffffffffffffffffffffffffffffff166108fc600485815481106120c5576120c4614b82565b5b90600052602060002090600a0201600401600101549081150290604051600060405180830381858888f19350505050158015612105573d6000803e3d6000fd5b5060056040518060a001604052808481526020016004868154811061212d5761212c614b82565b5b90600052602060002090600a02016004016001015481526020016001151581526020014281526020016122ec60405180606001604052806026815260200161531f602691396003898154811061218657612185614b82565b5b906000526020600020906016020160040180546121a290614c4c565b80601f01602080910402602001604051908101604052809291908181526020018280546121ce90614c4c565b801561221b5780601f106121f05761010080835404028352916020019161221b565b820191906000526020600020905b8154815290600101906020018083116121fe57829003601f168201915b50505050506040518060600160405280602181526020016152fe6021913960048a8154811061224d5761224c614b82565b5b90600052602060002090600a0201600201805461226990614c4c565b80601f016020809104026020016040519081016040528092919081815260200182805461229590614c4c565b80156122e25780601f106122b7576101008083540402835291602001916122e2565b820191906000526020600020905b8154815290600101906020018083116122c557829003601f168201915b5050505050611ece565b8152509080600181540180825580915050600190039060005260206000209060050201600090919091909150600082015181600001908051906020019061233492919061387d565b506020820151816001015560408201518160020160006101000a81548160ff02191690831515021790555060608201518160030155608082015181600401908051906020019061238592919061387d565b5050506004838154811061239c5761239b614b82565b5b90600052602060002090600a020160040160010154600660008282546123c29190614ec3565b9250508190555060048084815481106123de576123dd614b82565b5b90600052602060002090600a020160090160006101000a81548160ff0219169083600581111561241157612410613fc0565b5b02179055503373ffffffffffffffffffffffffffffffffffffffff167faee8e5d3bbb2f71a951b5632cee20f7ac487b9f8ab4f66a236f7694b13af7c6a844260405161245e929190614f43565b60405180910390a25050505050565b60006007600085815260200190815260200160002060009054906101000a900460ff166124cf576040517f08c379a00000000000000000000000000000000000000000000000000000000081526004016124c690614bfd565b60405180910390fd5b6008600084815260200190815260200160002060009054906101000a900460ff1661252f576040517f08c379a000000000000000000000000000000000000000000000000000000000815260040161252690614b62565b60405180910390fd5b60003411612572576040517f08c379a000000000000000000000000000000000000000000000000000000000815260040161256990614fcb565b60405180910390fd5b6004838154811061258657612585614b82565b5b90600052602060002090600a020160040160000154600484815481106125af576125ae614b82565b5b90600052602060002090600a0201600401600101541115612605576040517f08c379a00000000000000000000000000000000000000000000000000000000081526004016125fc9061505d565b60405180910390fd5b6004838154811061261957612618614b82565b5b90600052602060002090600a020160040160000154346004858154811061264357612642614b82565b5b90600052602060002090600a020160040160010154612662919061507d565b11156126a3576040517f08c379a000000000000000000000000000000000000000000000000000000000815260040161269a90615145565b60405180910390fd5b60056040518060a0016040528084815260200134815260200160011515815260200142815260200161287e60405180606001604052806022815260200161534560229139600389815481106126fb576126fa614b82565b5b9060005260206000209060160201600401805461271790614c4c565b80601f016020809104026020016040519081016040528092919081815260200182805461274390614c4c565b80156127905780601f1061276557610100808354040283529160200191612790565b820191906000526020600020905b81548152906001019060200180831161277357829003601f168201915b50505050506040518060400160405280601b81526020017f2c20746f2069742773206d6f64756c65207469746c656420617320000000000081525060048a815481106127df576127de614b82565b5b90600052602060002090600a020160020180546127fb90614c4c565b80601f016020809104026020016040519081016040528092919081815260200182805461282790614c4c565b80156128745780601f1061284957610100808354040283529160200191612874565b820191906000526020600020905b81548152906001019060200180831161285757829003601f168201915b5050505050611ece565b815250908060018154018082558091505060019003906000526020600020906005020160009091909190915060008201518160000190805190602001906128c692919061387d565b506020820151816001015560408201518160020160006101000a81548160ff02191690831515021790555060608201518160030155608082015181600401908051906020019061291792919061387d565b505050346004848154811061292f5761292e614b82565b5b90600052602060002090600a02016004016001016000828254612952919061507d565b92505081905550346004848154811061296e5761296d614b82565b5b90600052602060002090600a020160040160020160008282546129919190614ec3565b9250508190555034600385815481106129ad576129ac614b82565b5b906000526020600020906016020160060160010160008282546129d0919061507d565b9250508190555034600385815481106129ec576129eb614b82565b5b90600052602060002090601602016006016002016000828254612a0f9190614ec3565b925050819055503460066000828254612a28919061507d565b92505081905550600360048481548110612a4557612a44614b82565b5b90600052602060002090600a020160090160006101000a81548160ff02191690836005811115612a7857612a77613fc0565b5b02179055503373ffffffffffffffffffffffffffffffffffffffff167faee8e5d3bbb2f71a951b5632cee20f7ac487b9f8ab4f66a236f7694b13af7c6a8442604051612ac59291906151b1565b60405180910390a2600190509392505050565b60006008600083815260200190815260200160002060009054906101000a900460ff16612b3a576040517f08c379a0000000000000000000000000000000000000000000000000000000008152600401612b3190614b62565b60405180910390fd5b60048281548110612b4e57612b4d614b82565b5b90600052602060002090600a020160090160009054906101000a900460ff169050919050565b60008142612b82919061507d565b9050919050565b60606004805480602002602001604051908101604052809291908181526020016000905b82821015612d9957838290600052602060002090600a0201604051806101000160405290816000820154815260200160018201548152602001600282018054612bf590614c4c565b80601f0160208091040260200160405190810160405280929190818152602001828054612c2190614c4c565b8015612c6e5780601f10612c4357610100808354040283529160200191612c6e565b820191906000526020600020905b815481529060010190602001808311612c5157829003601f168201915b50505050508152602001600382018054612c8790614c4c565b80601f0160208091040260200160405190810160405280929190818152602001828054612cb390614c4c565b8015612d005780601f10612cd557610100808354040283529160200191612d00565b820191906000526020600020905b815481529060010190602001808311612ce357829003601f168201915b50505050508152602001600482016040518060600160405290816000820154815260200160018201548152602001600282015481525050815260200160078201548152602001600882015481526020016009820160009054906101000a900460ff166005811115612d7457612d73613fc0565b5b6005811115612d8657612d85613fc0565b5b8152505081526020019060010190612bad565b50505050905090565b60006008600084815260200190815260200160002060009054906101000a900460ff16612e04576040517f08c379a0000000000000000000000000000000000000000000000000000000008152600401612dfb90614b62565b60405180910390fd5b8160048481548110612e1957612e18614b82565b5b90600052602060002090600a020160090160006101000a81548160ff02191690836005811115612e4c57612e4b613fc0565b5b02179055503373ffffffffffffffffffffffffffffffffffffffff167faee8e5d3bbb2f71a951b5632cee20f7ac487b9f8ab4f66a236f7694b13af7c6a8442604051612e99929190615239565b60405180910390a26001905092915050565b60006008600083815260200190815260200160002060009054906101000a900460ff16612f0d576040517f08c379a0000000000000000000000000000000000000000000000000000000008152600401612f0490614b62565b60405180910390fd5b60048281548110612f2157612f20614b82565b5b90600052602060002090600a0201600401600201549050919050565b60006007600084815260200190815260200160002060009054906101000a900460ff16612f9f576040517f08c379a0000000000000000000000000000000000000000000000000000000008152600401612f9690614bfd565b60405180910390fd5b8160038481548110612fb457612fb3614b82565b5b906000526020600020906016020160150160146101000a81548160ff02191690836005811115612fe757612fe6613fc0565b5b02179055503373ffffffffffffffffffffffffffffffffffffffff167faee8e5d3bbb2f71a951b5632cee20f7ac487b9f8ab4f66a236f7694b13af7c6a84426040516130349291906152c1565b60405180910390a26001905092915050565b60006007600083815260200190815260200160002060009054906101000a900460ff166130a8576040517f08c379a000000000000000000000000000000000000000000000000000000000815260040161309f90614bfd565b60405180910390fd5b600382815481106130bc576130bb614b82565b5b9060005260206000209060160201600601600101549050919050565b6130e06137d2565b6007600083815260200190815260200160002060009054906101000a900460ff16613140576040517f08c379a000000000000000000000000000000000000000000000000000000000815260040161313790614bfd565b60405180910390fd5b6003828154811061315457613153614b82565b5b9060005260206000209060160201604051806101800160405290816000820160009054906101000a900473ffffffffffffffffffffffffffffffffffffffff1673ffffffffffffffffffffffffffffffffffffffff1673ffffffffffffffffffffffffffffffffffffffff1681526020016001820180546131d490614c4c565b80601f016020809104026020016040519081016040528092919081815260200182805461320090614c4c565b801561324d5780601f106132225761010080835404028352916020019161324d565b820191906000526020600020905b81548152906001019060200180831161323057829003601f168201915b5050505050815260200160028201805461326690614c4c565b80601f016020809104026020016040519081016040528092919081815260200182805461329290614c4c565b80156132df5780601f106132b4576101008083540402835291602001916132df565b820191906000526020600020905b8154815290600101906020018083116132c257829003601f168201915b505050505081526020016003820154815260200160048201805461330290614c4c565b80601f016020809104026020016040519081016040528092919081815260200182805461332e90614c4c565b801561337b5780601f106133505761010080835404028352916020019161337b565b820191906000526020600020905b81548152906001019060200180831161335e57829003601f168201915b5050505050815260200160058201805461339490614c4c565b80601f01602080910402602001604051908101604052809291908181526020018280546133c090614c4c565b801561340d5780601f106133e25761010080835404028352916020019161340d565b820191906000526020600020905b8154815290600101906020018083116133f057829003601f168201915b50505050508152602001600682016040518060600160405290816000820154815260200160018201548152602001600282015481525050815260200160098201805461345890614c4c565b80601f016020809104026020016040519081016040528092919081815260200182805461348490614c4c565b80156134d15780601f106134a6576101008083540402835291602001916134d1565b820191906000526020600020905b8154815290600101906020018083116134b457829003601f168201915b50505050508152602001600a820160405180610100016040529081600082015481526020016001820154815260200160028201805461350f90614c4c565b80601f016020809104026020016040519081016040528092919081815260200182805461353b90614c4c565b80156135885780601f1061355d57610100808354040283529160200191613588565b820191906000526020600020905b81548152906001019060200180831161356b57829003601f168201915b505050505081526020016003820180546135a190614c4c565b80601f01602080910402602001604051908101604052809291908181526020018280546135cd90614c4c565b801561361a5780601f106135ef5761010080835404028352916020019161361a565b820191906000526020600020905b8154815290600101906020018083116135fd57829003601f168201915b50505050508152602001600482016040518060600160405290816000820154815260200160018201548152602001600282015481525050815260200160078201548152602001600882015481526020016009820160009054906101000a900460ff16600581111561368e5761368d613fc0565b5b60058111156136a05761369f613fc0565b5b8152505081526020016014820180546136b890614c4c565b80601f01602080910402602001604051908101604052809291908181526020018280546136e490614c4c565b80156137315780601f1061370657610100808354040283529160200191613731565b820191906000526020600020905b81548152906001019060200180831161371457829003601f168201915b505050505081526020016015820160009054906101000a900473ffffffffffffffffffffffffffffffffffffffff1673ffffffffffffffffffffffffffffffffffffffff1673ffffffffffffffffffffffffffffffffffffffff1681526020016015820160149054906101000a900460ff1660058111156137b5576137b4613fc0565b5b60058111156137c7576137c6613fc0565b5b815250509050919050565b604051806101800160405280600073ffffffffffffffffffffffffffffffffffffffff1681526020016060815260200160608152602001600081526020016060815260200160608152602001613826613960565b81526020016060815260200161383a613903565b815260200160608152602001600073ffffffffffffffffffffffffffffffffffffffff1681526020016000600581111561387757613876613fc0565b5b81525090565b82805461388990614c4c565b90600052602060002090601f0160209004810192826138ab57600085556138f2565b82601f106138c457805160ff19168380011785556138f2565b828001600101855582156138f2579182015b828111156138f15782518255916020019190600101906138d6565b5b5090506138ff9190613981565b5090565b60405180610100016040528060008152602001600081526020016060815260200160608152602001613933613960565b815260200160008152602001600081526020016000600581111561395a57613959613fc0565b5b81525090565b60405180606001604052806000815260200160008152602001600081525090565b5b8082111561399a576000816000905550600101613982565b5090565b6000604051905090565b600080fd5b600080fd5b600080fd5b600080fd5b6000601f19601f8301169050919050565b7f4e487b7100000000000000000000000000000000000000000000000000000000600052604160045260246000fd5b613a05826139bc565b810181811067ffffffffffffffff82111715613a2457613a236139cd565b5b80604052505050565b6000613a3761399e565b9050613a4382826139fc565b919050565b600067ffffffffffffffff821115613a6357613a626139cd565b5b613a6c826139bc565b9050602081019050919050565b82818337600083830152505050565b6000613a9b613a9684613a48565b613a2d565b905082815260208101848484011115613ab757613ab66139b7565b5b613ac2848285613a79565b509392505050565b600082601f830112613adf57613ade6139b2565b5b8135613aef848260208601613a88565b91505092915050565b6000819050919050565b613b0b81613af8565b8114613b1657600080fd5b50565b600081359050613b2881613b02565b92915050565b600073ffffffffffffffffffffffffffffffffffffffff82169050919050565b6000613b5982613b2e565b9050919050565b613b6981613b4e565b8114613b7457600080fd5b50565b600081359050613b8681613b60565b92915050565b600080600080600080600080610100898b031215613bad57613bac6139a8565b5b600089013567ffffffffffffffff811115613bcb57613bca6139ad565b5b613bd78b828c01613aca565b985050602089013567ffffffffffffffff811115613bf857613bf76139ad565b5b613c048b828c01613aca565b975050604089013567ffffffffffffffff811115613c2557613c246139ad565b5b613c318b828c01613aca565b965050606089013567ffffffffffffffff811115613c5257613c516139ad565b5b613c5e8b828c01613aca565b9550506080613c6f8b828c01613b19565b94505060a089013567ffffffffffffffff811115613c9057613c8f6139ad565b5b613c9c8b828c01613aca565b93505060c089013567ffffffffffffffff811115613cbd57613cbc6139ad565b5b613cc98b828c01613aca565b92505060e0613cda8b828c01613b77565b9150509295985092959890939650565b60008115159050919050565b613cff81613cea565b82525050565b6000602082019050613d1a6000830184613cf6565b92915050565b600060208284031215613d3657613d356139a8565b5b6000613d4484828501613b19565b91505092915050565b613d5681613af8565b82525050565b6000602082019050613d716000830184613d4d565b92915050565b600081519050919050565b600082825260208201905092915050565b6000819050602082019050919050565b600081519050919050565b600082825260208201905092915050565b60005b83811015613ddd578082015181840152602081019050613dc2565b83811115613dec576000848401525b50505050565b6000613dfd82613da3565b613e078185613dae565b9350613e17818560208601613dbf565b613e20816139bc565b840191505092915050565b613e3481613af8565b82525050565b613e4381613cea565b82525050565b600060a0830160008301518482036000860152613e668282613df2565b9150506020830151613e7b6020860182613e2b565b506040830151613e8e6040860182613e3a565b506060830151613ea16060860182613e2b565b5060808301518482036080860152613eb98282613df2565b9150508091505092915050565b6000613ed28383613e49565b905092915050565b6000602082019050919050565b6000613ef282613d77565b613efc8185613d82565b935083602082028501613f0e85613d93565b8060005b85811015613f4a5784840389528151613f2b8582613ec6565b9450613f3683613eda565b925060208a01995050600181019050613f12565b50829750879550505050505092915050565b60006020820190508181036000830152613f768184613ee7565b905092915050565b606082016000820151613f946000850182613e2b565b506020820151613fa76020850182613e2b565b506040820151613fba6040850182613e2b565b50505050565b7f4e487b7100000000000000000000000000000000000000000000000000000000600052602160045260246000fd5b6006811061400057613fff613fc0565b5b50565b600081905061401182613fef565b919050565b600061402182614003565b9050919050565b61403181614016565b82525050565b6000610140830160008301516140506000860182613e2b565b5060208301516140636020860182613e2b565b506040830151848203604086015261407b8282613df2565b915050606083015184820360608601526140958282613df2565b91505060808301516140aa6080860182613f7e565b5060a08301516140bd60e0860182613e2b565b5060c08301516140d1610100860182613e2b565b5060e08301516140e5610120860182614028565b508091505092915050565b6000602082019050818103600083015261410a8184614037565b905092915050565b600081519050919050565b600082825260208201905092915050565b6000819050602082019050919050565b61414781613b4e565b82525050565b6000610140830160008301516141666000860182613e2b565b5060208301516141796020860182613e2b565b50604083015184820360408601526141918282613df2565b915050606083015184820360608601526141ab8282613df2565b91505060808301516141c06080860182613f7e565b5060a08301516141d360e0860182613e2b565b5060c08301516141e7610100860182613e2b565b5060e08301516141fb610120860182614028565b508091505092915050565b60006101c08301600083015161421f600086018261413e565b50602083015184820360208601526142378282613df2565b915050604083015184820360408601526142518282613df2565b91505060608301516142666060860182613e2b565b506080830151848203608086015261427e8282613df2565b91505060a083015184820360a08601526142988282613df2565b91505060c08301516142ad60c0860182613f7e565b5060e08301518482036101208601526142c68282613df2565b9150506101008301518482036101408601526142e2828261414d565b9150506101208301518482036101608601526142fe8282613df2565b91505061014083015161431561018086018261413e565b5061016083015161432a6101a0860182614028565b508091505092915050565b60006143418383614206565b905092915050565b6000602082019050919050565b600061436182614112565b61436b818561411d565b93508360208202850161437d8561412e565b8060005b858110156143b9578484038952815161439a8582614335565b94506143a583614349565b925060208a01995050600181019050614381565b50829750879550505050505092915050565b600060208201905081810360008301526143e58184614356565b905092915050565b6143f681614016565b82525050565b600060208201905061441160008301846143ed565b92915050565b60008060008060008060c08789031215614434576144336139a8565b5b600061444289828a01613b19565b965050602087013567ffffffffffffffff811115614463576144626139ad565b5b61446f89828a01613aca565b955050604087013567ffffffffffffffff8111156144905761448f6139ad565b5b61449c89828a01613aca565b94505060606144ad89828a01613b19565b93505060806144be89828a01613b19565b92505060a06144cf89828a01613b19565b9150509295509295509295565b600080600080608085870312156144f6576144f56139a8565b5b600085013567ffffffffffffffff811115614514576145136139ad565b5b61452087828801613aca565b945050602085013567ffffffffffffffff811115614541576145406139ad565b5b61454d87828801613aca565b935050604085013567ffffffffffffffff81111561456e5761456d6139ad565b5b61457a87828801613aca565b925050606085013567ffffffffffffffff81111561459b5761459a6139ad565b5b6145a787828801613aca565b91505092959194509250565b600082825260208201905092915050565b60006145cf82613da3565b6145d981856145b3565b93506145e9818560208601613dbf565b6145f2816139bc565b840191505092915050565b6000602082019050818103600083015261461781846145c4565b905092915050565b60008060008060808587031215614639576146386139a8565b5b600061464787828801613b77565b945050602061465887828801613b19565b935050604061466987828801613b19565b925050606085013567ffffffffffffffff81111561468a576146896139ad565b5b61469687828801613aca565b91505092959194509250565b6000806000606084860312156146bb576146ba6139a8565b5b60006146c986828701613b19565b93505060206146da86828701613b19565b925050604084013567ffffffffffffffff8111156146fb576146fa6139ad565b5b61470786828701613aca565b9150509250925092565b600081519050919050565b600082825260208201905092915050565b6000819050602082019050919050565b6000614749838361414d565b905092915050565b6000602082019050919050565b600061476982614711565b614773818561471c565b9350836020820285016147858561472d565b8060005b858110156147c157848403895281516147a2858261473d565b94506147ad83614751565b925060208a01995050600181019050614789565b50829750879550505050505092915050565b600060208201905081810360008301526147ed818461475e565b905092915050565b6006811061480257600080fd5b50565b600081359050614814816147f5565b92915050565b60008060408385031215614831576148306139a8565b5b600061483f85828601613b19565b925050602061485085828601614805565b9150509250929050565b60006101c083016000830151614873600086018261413e565b506020830151848203602086015261488b8282613df2565b915050604083015184820360408601526148a58282613df2565b91505060608301516148ba6060860182613e2b565b50608083015184820360808601526148d28282613df2565b91505060a083015184820360a08601526148ec8282613df2565b91505060c083015161490160c0860182613f7e565b5060e083015184820361012086015261491a8282613df2565b915050610100830151848203610140860152614936828261414d565b9150506101208301518482036101608601526149528282613df2565b91505061014083015161496961018086018261413e565b5061016083015161497e6101a0860182614028565b508091505092915050565b600060208201905081810360008301526149a3818461485a565b905092915050565b7f5461726765742066756e64732063616e2774206265207a65726f2e0000000000600082015250565b60006149e1601b836145b3565b91506149ec826149ab565b602082019050919050565b60006020820190508181036000830152614a10816149d4565b9050919050565b7f4e487b7100000000000000000000000000000000000000000000000000000000600052601160045260246000fd5b6000614a5182613af8565b91507fffffffffffffffffffffffffffffffffffffffffffffffffffffffffffffffff8203614a8357614a82614a17565b5b600182019050919050565b7f50726f6a65637420437265617465640000000000000000000000000000000000600082015250565b6000614ac4600f836145b3565b9150614acf82614a8e565b602082019050919050565b6000606082019050614aef6000830185613d4d565b8181036020830152614b0081614ab7565b9050614b0f6040830184613d4d565b9392505050565b7f4d6f64756c65206e6f7420666f756e642e000000000000000000000000000000600082015250565b6000614b4c6011836145b3565b9150614b5782614b16565b602082019050919050565b60006020820190508181036000830152614b7b81614b3f565b9050919050565b7f4e487b7100000000000000000000000000000000000000000000000000000000600052603260045260246000fd5b7f50726f6a656374206e6f7420666f756e642e0000000000000000000000000000600082015250565b6000614be76012836145b3565b9150614bf282614bb1565b602082019050919050565b60006020820190508181036000830152614c1681614bda565b9050919050565b7f4e487b7100000000000000000000000000000000000000000000000000000000600052602260045260246000fd5b60006002820490506001821680614c6457607f821691505b602082108103614c7757614c76614c1d565b5b50919050565b7f4d6f64756c652043726561746564000000000000000000000000000000000000600082015250565b6000614cb3600e836145b3565b9150614cbe82614c7d565b602082019050919050565b6000606082019050614cde6000830185613d4d565b8181036020830152614cef81614ca6565b9050614cfe6040830184613d4d565b9392505050565b600081905092915050565b6000614d1b82613da3565b614d258185614d05565b9350614d35818560208601613dbf565b80840191505092915050565b6000614d4d8287614d10565b9150614d598286614d10565b9150614d658285614d10565b9150614d718284614d10565b915081905095945050505050565b7f4d6f64756c652068617320616c726561647920636f6d706c657465642e000000600082015250565b6000614db5601d836145b3565b9150614dc082614d7f565b602082019050919050565b60006020820190508181036000830152614de481614da8565b9050919050565b7f4f6e6c7920637265617465722063616e2077697468647261772066756e64732e600082015250565b6000614e216020836145b3565b9150614e2c82614deb565b602082019050919050565b60006020820190508181036000830152614e5081614e14565b9050919050565b7f4e6f7420656e6f7567682062616c616e636520746f2077697468647261772e00600082015250565b6000614e8d601f836145b3565b9150614e9882614e57565b602082019050919050565b60006020820190508181036000830152614ebc81614e80565b9050919050565b6000614ece82613af8565b9150614ed983613af8565b925082821015614eec57614eeb614a17565b5b828203905092915050565b7f4d6f64756c6520436f6d706c6574656400000000000000000000000000000000600082015250565b6000614f2d6010836145b3565b9150614f3882614ef7565b602082019050919050565b6000606082019050614f586000830185613d4d565b8181036020830152614f6981614f20565b9050614f786040830184613d4d565b9392505050565b7f4574686572206d7573742062652067726561746572207468616e207a65726f2e600082015250565b6000614fb56020836145b3565b9150614fc082614f7f565b602082019050919050565b60006020820190508181036000830152614fe481614fa8565b9050919050565b7f5461726765742066756e6473206861732072616973656420666f72207468697360008201527f206d6f64756c652c20796f752063616e277420646f6e617465206e6f772e0000602082015250565b6000615047603e836145b3565b915061505282614feb565b604082019050919050565b600060208201905081810360008301526150768161503a565b9050919050565b600061508882613af8565b915061509383613af8565b9250827fffffffffffffffffffffffffffffffffffffffffffffffffffffffffffffffff038211156150c8576150c7614a17565b5b828201905092915050565b7f43616e277420646f6e617465207468697320616d6d6f756e742c20706c65617360008201527f652074727920616761696e2e0000000000000000000000000000000000000000602082015250565b600061512f602c836145b3565b915061513a826150d3565b604082019050919050565b6000602082019050818103600083015261515e81615122565b9050919050565b7f46756e647320446f6e6174656420666f72204d6f64756c650000000000000000600082015250565b600061519b6018836145b3565b91506151a682615165565b602082019050919050565b60006060820190506151c66000830185613d4d565b81810360208301526151d78161518e565b90506151e66040830184613d4d565b9392505050565b7f4d6f64756c652053746174757320557064617465640000000000000000000000600082015250565b60006152236015836145b3565b915061522e826151ed565b602082019050919050565b600060608201905061524e6000830185613d4d565b818103602083015261525f81615216565b905061526e6040830184613d4d565b9392505050565b7f50726f6a65637420537461747573205570646174656400000000000000000000600082015250565b60006152ab6016836145b3565b91506152b682615275565b602082019050919050565b60006060820190506152d66000830185613d4d565b81810360208301526152e78161529e565b90506152f66040830184613d4d565b939250505056fe2c20616e642066726f6d2069742773206d6f64756c65207469746c65642061732057697468647261772066756e64732066726f6d2070726f6a656374207469746c656420617320446f6e6174652066756e647320746f2070726f6a656374207469746c656420617320a2646970667358221220583eb8ebacc5a7a866fc2cee11b0feb45d82a774194626ad96eb970d96c2a21364736f6c634300080d0033",
  "immutableReferences": {},
  "source": "//SPDX-License-Identifier: MIT\npragma solidity ^0.8.7;\n\ncontract Project {\n    enum statusEnum {\n        NotStarted,\n        Ongoing,\n        Upcoming,\n        Paid,\n        Completed,\n        Issued\n    }\n\n    event Action(\n        uint256 id,\n        string actionType,\n        address indexed executor,\n        uint256 timestamp\n    );\n\n    struct userStatsStruct {\n        string userId;\n        uint contribution;\n        bool isFundsDonating;\n        uint timestamp;\n        string description;\n    }\n\n    struct projectStructre {\n        address creator;\n        string userId;\n        string categoryId;\n        uint256 projectId;\n        string title;\n        string description;\n        fundStruct projectFunds;\n        string imageURL;\n        moduleStructure moduleStruct;\n        string investerId;\n        address investerAddress;\n        statusEnum status;\n    }\n\n    struct fundStruct {\n        uint256 targetFunds;\n        uint256 raisedFunds;\n        uint256 remainingFunds;\n    }\n\n    address projectCreator;\n\n    uint projectsCount;\n    uint modulesCount;\n\n    projectStructre[] projects;\n    moduleStructure[] modules;\n    userStatsStruct[] userStats;\n\n    uint public contractBalance;\n\n    mapping(uint => bool) projectExist;\n    mapping(uint => bool) moduleExist;\n\n    mapping(address => projectStructre) projectsOf;\n    mapping(address => moduleStructure) modulesOf;\n\n    function createProject(\n        string memory userId,\n        string memory categoryId,\n        string memory title,\n        string memory description,\n        uint256 targetFunds,\n        string memory imageURL,\n        string memory investerId,\n        address investerAddress\n    ) public returns (bool) {\n        require(targetFunds > 0, \"Target funds can't be zero.\");\n\n        projectCreator = msg.sender;\n\n        projectStructre memory project;\n\n        project.creator = msg.sender;\n        project.userId = userId;\n        project.categoryId = categoryId;\n        project.projectId = projectsCount;\n        project.title = title;\n        project.description = description;\n        project.projectFunds.targetFunds = targetFunds;\n        project.projectFunds.raisedFunds = 0;\n        project.projectFunds.remainingFunds = targetFunds;\n        project.imageURL = imageURL;\n        project.investerId = investerId;\n        project.investerAddress = investerAddress;\n        project.status = statusEnum.NotStarted;\n\n        projects.push(project);\n        projectExist[projectsCount] = true;\n        projectsOf[address(this)] = project;\n\n        emit Action(\n            projectsCount++,\n            \"Project Created\",\n            msg.sender,\n            block.timestamp\n        );\n\n        return true;\n    }\n\n    struct moduleStructure {\n        uint256 projectId;\n        uint256 moduleId;\n        string title;\n        string description;\n        fundStruct moduleFunds;\n        uint256 startTime;\n        uint256 endTime;\n        statusEnum status;\n    }\n\n    function createProjectModule(\n        uint256 projectId,\n        string memory title,\n        string memory description,\n        uint256 targetFunds,\n        uint256 startTime,\n        uint256 endTime\n    ) public returns (bool) {\n        require(projectExist[projectId], \"Project not found.\");\n        require(targetFunds > 0, \"Target funds can't be zero.\");\n\n        moduleStructure memory module;\n\n        module.projectId = projectId;\n        module.moduleId = modulesCount;\n        module.title = title;\n        module.description = description;\n        module.moduleFunds.targetFunds = targetFunds;\n        module.moduleFunds.raisedFunds = 0;\n        module.moduleFunds.remainingFunds = targetFunds;\n        module.startTime = startTime;\n        module.endTime = endTime;\n        module.status = statusEnum.NotStarted;\n\n        modules.push(module);\n        moduleExist[modulesCount] = true;\n        modulesOf[address(this)] = module;\n\n        projects[projectId].moduleStruct = module;\n        projects[projectId].status = statusEnum.NotStarted;\n\n        emit Action(\n            modulesCount++,\n            \"Module Created\",\n            msg.sender,\n            block.timestamp\n        );\n        return true;\n    }\n\n    function getProject(uint id) public view returns (projectStructre memory) {\n        require(projectExist[id], \"Project not found.\");\n\n        return projects[id];\n    }\n\n    function getModule(uint id) public view returns (moduleStructure memory) {\n        require(moduleExist[id], \"Module not found.\");\n\n        return modules[id];\n    }\n\n    function getAllProjects() public view returns (projectStructre[] memory) {\n        return projects;\n    }\n\n    function getAllModules() public view returns (moduleStructure[] memory) {\n        return modules;\n    }\n\n    function getProjectRaisedFunds(uint id) public view returns (uint256) {\n        require(projectExist[id], \"Project not found.\");\n\n        return projects[id].projectFunds.raisedFunds;\n    }\n\n    function getProjectRemainingFunds(uint id) public view returns (uint256) {\n        require(projectExist[id], \"Project not found.\");\n\n        return projects[id].projectFunds.remainingFunds;\n    }\n\n    function getModuleRaisedFunds(uint id) public view returns (uint256) {\n        require(moduleExist[id], \"Module not found.\");\n\n        return modules[id].moduleFunds.raisedFunds;\n    }\n\n    function getModuleRemainingFunds(uint id) public view returns (uint256) {\n        require(moduleExist[id], \"Module not found.\");\n\n        return modules[id].moduleFunds.remainingFunds;\n    }\n\n    function updateProjectStatus(\n        uint projectId,\n        statusEnum status\n    ) public returns (bool) {\n        require(projectExist[projectId], \"Project not found.\");\n\n        projects[projectId].status = status;\n\n        emit Action(\n            projectId,\n            \"Project Status Updated\",\n            msg.sender,\n            block.timestamp\n        );\n        return true;\n    }\n\n    function getProjectStatus(uint id) public view returns (statusEnum) {\n        require(projectExist[id], \"Project not found.\");\n\n        return projects[id].status;\n    }\n\n    function updateModuleStatus(\n        uint moduleId,\n        statusEnum status\n    ) public returns (bool) {\n        require(moduleExist[moduleId], \"Module not found.\");\n\n        modules[moduleId].status = status;\n\n        emit Action(\n            moduleId,\n            \"Module Status Updated\",\n            msg.sender,\n            block.timestamp\n        );\n\n        return true;\n    }\n\n    function getModuleStatus(uint id) public view returns (statusEnum) {\n        require(moduleExist[id], \"Module not found.\");\n\n        return modules[id].status;\n    }\n\n    function getCurrentTimestamp() public view returns (uint) {\n        return block.timestamp;\n    }\n\n    function getCurrentTimestampWithDuration(\n        uint duration\n    ) public view returns (uint) {\n        return block.timestamp + duration;\n    }\n\n    function concatStrings(\n        string memory a,\n        string memory b,\n        string memory c,\n        string memory d\n    ) public pure returns (string memory) {\n        return string(abi.encodePacked(a, b, c, d));\n    }\n\n    function getUserStats() public view returns (userStatsStruct[] memory) {\n        return userStats;\n    }\n\n    function fundsToProjectModule(\n        uint projectId,\n        uint moduleId,\n        string memory userId\n    ) public payable returns (bool) {\n        require(projectExist[projectId], \"Project not found.\");\n        require(moduleExist[moduleId], \"Module not found.\");\n\n        require(msg.value > 0 ether, \"Ether must be greater than zero.\");\n\n        // require(modules[moduleId].startTime <= block.timestamp , \"Module not started, please wait.\");\n        // require(modules[moduleId].endTime <= block.timestamp, \"Deadline has passed for this module.\");\n\n        require(\n            modules[moduleId].moduleFunds.raisedFunds <=\n                modules[moduleId].moduleFunds.targetFunds,\n            \"Target funds has raised for this module, you can't donate now.\"\n        );\n\n        require(\n            modules[moduleId].moduleFunds.raisedFunds + msg.value <=\n                modules[moduleId].moduleFunds.targetFunds,\n            \"Can't donate this ammount, please try again.\"\n        );\n\n        userStats.push(\n            userStatsStruct(\n                userId,\n                msg.value,\n                true,\n                block.timestamp,\n                concatStrings(\n                    \"Donate funds to project titled as \",\n                    projects[projectId].title,\n                    \", to it's module titled as \",\n                    modules[moduleId].title\n                )\n            )\n        );\n\n        modules[moduleId].moduleFunds.raisedFunds += msg.value;\n        modules[moduleId].moduleFunds.remainingFunds -= msg.value;\n\n        projects[projectId].projectFunds.raisedFunds += msg.value;\n        projects[projectId].projectFunds.remainingFunds -= msg.value;\n\n        contractBalance += msg.value;\n\n        modules[moduleId].status = statusEnum.Paid;\n\n        emit Action(\n            moduleId,\n            \"Funds Donated for Module\",\n            msg.sender,\n            block.timestamp\n        );\n\n        return true;\n    }\n\n    function withdrawFunds(\n        address ownerAddress,\n        uint projectId,\n        uint moduleId,\n        string memory userId\n    ) public {\n        require(\n            modules[moduleId].status != statusEnum.Completed,\n            \"Module has already completed.\"\n        );\n        require(\n            ownerAddress == projectCreator,\n            \"Only creater can withdraw funds.\"\n        );\n        require(\n            modules[moduleId].moduleFunds.raisedFunds > 0,\n            \"Not enough balance to withdraw.\"\n        );\n\n        address payable owner = payable(ownerAddress);\n\n        owner.transfer(modules[moduleId].moduleFunds.raisedFunds);\n\n        userStats.push(\n            userStatsStruct(\n                userId,\n                modules[moduleId].moduleFunds.raisedFunds,\n                true,\n                block.timestamp,\n                concatStrings(\n                    \"Withdraw funds from project titled as \",\n                    projects[projectId].title,\n                    \", and from it's module titled as \",\n                    modules[moduleId].title\n                )\n            )\n        );\n\n        contractBalance -= modules[moduleId].moduleFunds.raisedFunds;\n\n        modules[moduleId].status = statusEnum.Completed;\n\n        emit Action(moduleId, \"Module Completed\", msg.sender, block.timestamp);\n    }\n}\n",
  "sourcePath": "/Users/ali/Projects/FYP/helping-hands-apis/contracts/Project.sol",
  "compiler": {
    "name": "solc",
    "version": "0.8.13+commit.abaa5c0e.Emscripten.clang"
  },
  "schemaVersion": "3.4.11",
  "updatedAt": "2023-05-12T22:14:31.696Z",
  "devdoc": {
    "kind": "dev",
    "methods": {},
    "version": 1
  },
  "userdoc": {
    "kind": "user",
    "methods": {},
    "version": 1
  }
}