{
  "contractName": "Project",
  "abi": [
    {
      "anonymous": false,
      "inputs": [
        {
          "indexed": false,
          "internalType": "uint256",
          "name": "id",
          "type": "uint256"
        },
        {
          "indexed": false,
          "internalType": "string",
          "name": "actionType",
          "type": "string"
        },
        {
          "indexed": true,
          "internalType": "address",
          "name": "executor",
          "type": "address"
        },
        {
          "indexed": false,
          "internalType": "uint256",
          "name": "timestamp",
          "type": "uint256"
        }
      ],
      "name": "Action",
      "type": "event"
    },
    {
      "inputs": [],
      "name": "contractBalance",
      "outputs": [
        {
          "internalType": "uint256",
          "name": "",
          "type": "uint256"
        }
      ],
      "stateMutability": "view",
      "type": "function"
    },
    {
      "inputs": [
        {
          "internalType": "string",
          "name": "userId",
          "type": "string"
        },
        {
          "internalType": "string",
          "name": "categoryId",
          "type": "string"
        },
        {
          "internalType": "string",
          "name": "title",
          "type": "string"
        },
        {
          "internalType": "string",
          "name": "description",
          "type": "string"
        },
        {
          "internalType": "uint256",
          "name": "targetFunds",
          "type": "uint256"
        },
        {
          "internalType": "string",
          "name": "imageURL",
          "type": "string"
        },
        {
          "internalType": "string",
          "name": "investerId",
          "type": "string"
        },
        {
          "internalType": "address",
          "name": "investerAddress",
          "type": "address"
        },
        {
          "internalType": "uint256",
          "name": "equity",
          "type": "uint256"
        }
      ],
      "name": "createProject",
      "outputs": [
        {
          "internalType": "bool",
          "name": "",
          "type": "bool"
        }
      ],
      "stateMutability": "nonpayable",
      "type": "function"
    },
    {
      "inputs": [
        {
          "internalType": "string",
          "name": "userId",
          "type": "string"
        },
        {
          "internalType": "uint256",
          "name": "projectId",
          "type": "uint256"
        },
        {
          "internalType": "uint256",
          "name": "targetFunds",
          "type": "uint256"
        },
        {
          "internalType": "string",
          "name": "investerId",
          "type": "string"
        },
        {
          "internalType": "address",
          "name": "investerAddress",
          "type": "address"
        },
        {
          "internalType": "uint256",
          "name": "equity",
          "type": "uint256"
        }
      ],
      "name": "startProject",
      "outputs": [
        {
          "internalType": "bool",
          "name": "",
          "type": "bool"
        }
      ],
      "stateMutability": "nonpayable",
      "type": "function"
    },
    {
      "inputs": [
        {
          "internalType": "string",
          "name": "userId",
          "type": "string"
        },
        {
          "internalType": "uint256",
          "name": "moduleId",
          "type": "uint256"
        },
        {
          "internalType": "uint256",
          "name": "projectId",
          "type": "uint256"
        },
        {
          "internalType": "enum Project.statusEnum",
          "name": "status",
          "type": "uint8"
        }
      ],
      "name": "updateModuleStatus",
      "outputs": [
        {
          "internalType": "bool",
          "name": "",
          "type": "bool"
        }
      ],
      "stateMutability": "nonpayable",
      "type": "function"
    },
    {
      "inputs": [
        {
          "internalType": "uint256",
          "name": "projectId",
          "type": "uint256"
        },
        {
          "internalType": "string",
          "name": "title",
          "type": "string"
        },
        {
          "internalType": "string",
          "name": "description",
          "type": "string"
        },
        {
          "internalType": "uint256",
          "name": "targetFunds",
          "type": "uint256"
        },
        {
          "internalType": "uint256",
          "name": "startTime",
          "type": "uint256"
        },
        {
          "internalType": "uint256",
          "name": "endTime",
          "type": "uint256"
        }
      ],
      "name": "createProjectModule",
      "outputs": [
        {
          "internalType": "bool",
          "name": "",
          "type": "bool"
        }
      ],
      "stateMutability": "nonpayable",
      "type": "function"
    },
    {
      "inputs": [
        {
          "internalType": "uint256",
          "name": "id",
          "type": "uint256"
        }
      ],
      "name": "getProject",
      "outputs": [
        {
          "components": [
            {
              "internalType": "address",
              "name": "creator",
              "type": "address"
            },
            {
              "internalType": "string",
              "name": "userId",
              "type": "string"
            },
            {
              "internalType": "string",
              "name": "categoryId",
              "type": "string"
            },
            {
              "internalType": "uint256",
              "name": "projectId",
              "type": "uint256"
            },
            {
              "internalType": "string",
              "name": "title",
              "type": "string"
            },
            {
              "internalType": "string",
              "name": "description",
              "type": "string"
            },
            {
              "components": [
                {
                  "internalType": "uint256",
                  "name": "targetFunds",
                  "type": "uint256"
                },
                {
                  "internalType": "uint256",
                  "name": "raisedFunds",
                  "type": "uint256"
                },
                {
                  "internalType": "uint256",
                  "name": "remainingFunds",
                  "type": "uint256"
                }
              ],
              "internalType": "struct Project.fundStruct",
              "name": "projectFunds",
              "type": "tuple"
            },
            {
              "internalType": "string",
              "name": "imageURL",
              "type": "string"
            },
            {
              "components": [
                {
                  "internalType": "uint256",
                  "name": "projectId",
                  "type": "uint256"
                },
                {
                  "internalType": "uint256",
                  "name": "moduleId",
                  "type": "uint256"
                },
                {
                  "internalType": "string",
                  "name": "title",
                  "type": "string"
                },
                {
                  "internalType": "string",
                  "name": "description",
                  "type": "string"
                },
                {
                  "components": [
                    {
                      "internalType": "uint256",
                      "name": "targetFunds",
                      "type": "uint256"
                    },
                    {
                      "internalType": "uint256",
                      "name": "raisedFunds",
                      "type": "uint256"
                    },
                    {
                      "internalType": "uint256",
                      "name": "remainingFunds",
                      "type": "uint256"
                    }
                  ],
                  "internalType": "struct Project.fundStruct",
                  "name": "moduleFunds",
                  "type": "tuple"
                },
                {
                  "internalType": "uint256",
                  "name": "startTime",
                  "type": "uint256"
                },
                {
                  "internalType": "uint256",
                  "name": "endTime",
                  "type": "uint256"
                },
                {
                  "internalType": "enum Project.statusEnum",
                  "name": "status",
                  "type": "uint8"
                }
              ],
              "internalType": "struct Project.moduleStructure",
              "name": "moduleStruct",
              "type": "tuple"
            },
            {
              "internalType": "string",
              "name": "investerId",
              "type": "string"
            },
            {
              "internalType": "address",
              "name": "investerAddress",
              "type": "address"
            },
            {
              "internalType": "uint256",
              "name": "equity",
              "type": "uint256"
            },
            {
              "internalType": "enum Project.statusEnum",
              "name": "status",
              "type": "uint8"
            }
          ],
          "internalType": "struct Project.projectStructre",
          "name": "",
          "type": "tuple"
        }
      ],
      "stateMutability": "nonpayable",
      "type": "function"
    },
    {
      "inputs": [],
      "name": "getAllProjects",
      "outputs": [
        {
          "components": [
            {
              "internalType": "address",
              "name": "creator",
              "type": "address"
            },
            {
              "internalType": "string",
              "name": "userId",
              "type": "string"
            },
            {
              "internalType": "string",
              "name": "categoryId",
              "type": "string"
            },
            {
              "internalType": "uint256",
              "name": "projectId",
              "type": "uint256"
            },
            {
              "internalType": "string",
              "name": "title",
              "type": "string"
            },
            {
              "internalType": "string",
              "name": "description",
              "type": "string"
            },
            {
              "components": [
                {
                  "internalType": "uint256",
                  "name": "targetFunds",
                  "type": "uint256"
                },
                {
                  "internalType": "uint256",
                  "name": "raisedFunds",
                  "type": "uint256"
                },
                {
                  "internalType": "uint256",
                  "name": "remainingFunds",
                  "type": "uint256"
                }
              ],
              "internalType": "struct Project.fundStruct",
              "name": "projectFunds",
              "type": "tuple"
            },
            {
              "internalType": "string",
              "name": "imageURL",
              "type": "string"
            },
            {
              "components": [
                {
                  "internalType": "uint256",
                  "name": "projectId",
                  "type": "uint256"
                },
                {
                  "internalType": "uint256",
                  "name": "moduleId",
                  "type": "uint256"
                },
                {
                  "internalType": "string",
                  "name": "title",
                  "type": "string"
                },
                {
                  "internalType": "string",
                  "name": "description",
                  "type": "string"
                },
                {
                  "components": [
                    {
                      "internalType": "uint256",
                      "name": "targetFunds",
                      "type": "uint256"
                    },
                    {
                      "internalType": "uint256",
                      "name": "raisedFunds",
                      "type": "uint256"
                    },
                    {
                      "internalType": "uint256",
                      "name": "remainingFunds",
                      "type": "uint256"
                    }
                  ],
                  "internalType": "struct Project.fundStruct",
                  "name": "moduleFunds",
                  "type": "tuple"
                },
                {
                  "internalType": "uint256",
                  "name": "startTime",
                  "type": "uint256"
                },
                {
                  "internalType": "uint256",
                  "name": "endTime",
                  "type": "uint256"
                },
                {
                  "internalType": "enum Project.statusEnum",
                  "name": "status",
                  "type": "uint8"
                }
              ],
              "internalType": "struct Project.moduleStructure",
              "name": "moduleStruct",
              "type": "tuple"
            },
            {
              "internalType": "string",
              "name": "investerId",
              "type": "string"
            },
            {
              "internalType": "address",
              "name": "investerAddress",
              "type": "address"
            },
            {
              "internalType": "uint256",
              "name": "equity",
              "type": "uint256"
            },
            {
              "internalType": "enum Project.statusEnum",
              "name": "status",
              "type": "uint8"
            }
          ],
          "internalType": "struct Project.projectStructre[]",
          "name": "",
          "type": "tuple[]"
        }
      ],
      "stateMutability": "nonpayable",
      "type": "function"
    },
    {
      "inputs": [
        {
          "internalType": "uint256",
          "name": "id",
          "type": "uint256"
        }
      ],
      "name": "getModule",
      "outputs": [
        {
          "components": [
            {
              "internalType": "uint256",
              "name": "projectId",
              "type": "uint256"
            },
            {
              "internalType": "uint256",
              "name": "moduleId",
              "type": "uint256"
            },
            {
              "internalType": "string",
              "name": "title",
              "type": "string"
            },
            {
              "internalType": "string",
              "name": "description",
              "type": "string"
            },
            {
              "components": [
                {
                  "internalType": "uint256",
                  "name": "targetFunds",
                  "type": "uint256"
                },
                {
                  "internalType": "uint256",
                  "name": "raisedFunds",
                  "type": "uint256"
                },
                {
                  "internalType": "uint256",
                  "name": "remainingFunds",
                  "type": "uint256"
                }
              ],
              "internalType": "struct Project.fundStruct",
              "name": "moduleFunds",
              "type": "tuple"
            },
            {
              "internalType": "uint256",
              "name": "startTime",
              "type": "uint256"
            },
            {
              "internalType": "uint256",
              "name": "endTime",
              "type": "uint256"
            },
            {
              "internalType": "enum Project.statusEnum",
              "name": "status",
              "type": "uint8"
            }
          ],
          "internalType": "struct Project.moduleStructure",
          "name": "",
          "type": "tuple"
        }
      ],
      "stateMutability": "nonpayable",
      "type": "function"
    },
    {
      "inputs": [],
      "name": "getAllModules",
      "outputs": [
        {
          "components": [
            {
              "internalType": "uint256",
              "name": "projectId",
              "type": "uint256"
            },
            {
              "internalType": "uint256",
              "name": "moduleId",
              "type": "uint256"
            },
            {
              "internalType": "string",
              "name": "title",
              "type": "string"
            },
            {
              "internalType": "string",
              "name": "description",
              "type": "string"
            },
            {
              "components": [
                {
                  "internalType": "uint256",
                  "name": "targetFunds",
                  "type": "uint256"
                },
                {
                  "internalType": "uint256",
                  "name": "raisedFunds",
                  "type": "uint256"
                },
                {
                  "internalType": "uint256",
                  "name": "remainingFunds",
                  "type": "uint256"
                }
              ],
              "internalType": "struct Project.fundStruct",
              "name": "moduleFunds",
              "type": "tuple"
            },
            {
              "internalType": "uint256",
              "name": "startTime",
              "type": "uint256"
            },
            {
              "internalType": "uint256",
              "name": "endTime",
              "type": "uint256"
            },
            {
              "internalType": "enum Project.statusEnum",
              "name": "status",
              "type": "uint8"
            }
          ],
          "internalType": "struct Project.moduleStructure[]",
          "name": "",
          "type": "tuple[]"
        }
      ],
      "stateMutability": "nonpayable",
      "type": "function"
    },
    {
      "inputs": [
        {
          "internalType": "uint256",
          "name": "id",
          "type": "uint256"
        }
      ],
      "name": "updateOneModuleStatus",
      "outputs": [],
      "stateMutability": "nonpayable",
      "type": "function"
    },
    {
      "inputs": [],
      "name": "updateAllModulesStatus",
      "outputs": [],
      "stateMutability": "nonpayable",
      "type": "function"
    },
    {
      "inputs": [
        {
          "internalType": "string",
          "name": "a",
          "type": "string"
        },
        {
          "internalType": "string",
          "name": "b",
          "type": "string"
        },
        {
          "internalType": "string",
          "name": "c",
          "type": "string"
        },
        {
          "internalType": "string",
          "name": "d",
          "type": "string"
        }
      ],
      "name": "concatStrings",
      "outputs": [
        {
          "internalType": "string",
          "name": "",
          "type": "string"
        }
      ],
      "stateMutability": "pure",
      "type": "function"
    },
    {
      "inputs": [],
      "name": "getUserStats",
      "outputs": [
        {
          "components": [
            {
              "internalType": "string",
              "name": "userId",
              "type": "string"
            },
            {
              "internalType": "uint256",
              "name": "contribution",
              "type": "uint256"
            },
            {
              "internalType": "bool",
              "name": "isFundsDonating",
              "type": "bool"
            },
            {
              "internalType": "uint256",
              "name": "timestamp",
              "type": "uint256"
            },
            {
              "internalType": "string",
              "name": "description",
              "type": "string"
            }
          ],
          "internalType": "struct Project.userStatsStruct[]",
          "name": "",
          "type": "tuple[]"
        }
      ],
      "stateMutability": "view",
      "type": "function"
    },
    {
      "inputs": [
        {
          "internalType": "uint256",
          "name": "projectId",
          "type": "uint256"
        },
        {
          "internalType": "uint256",
          "name": "moduleId",
          "type": "uint256"
        },
        {
          "internalType": "string",
          "name": "userId",
          "type": "string"
        }
      ],
      "name": "fundsToProjectModule",
      "outputs": [
        {
          "internalType": "bool",
          "name": "",
          "type": "bool"
        }
      ],
      "stateMutability": "payable",
      "type": "function"
    },
    {
      "inputs": [
        {
          "internalType": "address",
          "name": "ownerAddress",
          "type": "address"
        },
        {
          "internalType": "uint256",
          "name": "projectId",
          "type": "uint256"
        },
        {
          "internalType": "uint256",
          "name": "moduleId",
          "type": "uint256"
        },
        {
          "internalType": "string",
          "name": "userId",
          "type": "string"
        }
      ],
      "name": "withdrawFunds",
      "outputs": [],
      "stateMutability": "nonpayable",
      "type": "function"
    }
  ],
  "bytecode": "0x608060405234801561001057600080fd5b506159e180620000216000396000f3fe6080604052600436106100e85760003560e01c80639cf1d0761161008a578063c139813711610059578063c139813714610321578063d513a8971461034c578063f0f3f2c814610363578063faa69c73146103a0576100e8565b80639cf1d0761461024e5780639f91cd151461028b578063a307b914146102c8578063acd9324d146102f1576100e8565b806355f916b6116100c657806355f916b6146101925780636a814620146101cf57806380d03829146101f85780638b7afe2e14610223576100e8565b806349bc3a70146100ed5780634a84cdfe1461012a57806353f6ad3714610167575b600080fd5b3480156100f957600080fd5b50610114600480360381019061010f9190613e10565b6103dd565b6040516101219190613f9d565b60405180910390f35b34801561013657600080fd5b50610151600480360381019061014c9190613fdd565b610b42565b60405161015e9190613f9d565b60405180910390f35b34801561017357600080fd5b5061017c610d58565b6040516101899190614245565b60405180910390f35b34801561019e57600080fd5b506101b960048036038101906101b49190614267565b610f0a565b6040516101c69190614406565b60405180910390f35b3480156101db57600080fd5b506101f660048036038101906101f19190614267565b611169565b005b34801561020457600080fd5b5061020d6112de565b60405161021a91906146f6565b60405180910390f35b34801561022f57600080fd5b506102386119ad565b6040516102459190614727565b60405180910390f35b34801561025a57600080fd5b5061027560048036038101906102709190614742565b6119b3565b6040516102829190613f9d565b60405180910390f35b34801561029757600080fd5b506102b260048036038101906102ad9190614807565b611f93565b6040516102bf9190614928565b60405180910390f35b3480156102d457600080fd5b506102ef60048036038101906102ea919061494a565b611fc5565b005b61030b600480360381019061030691906149cd565b612457565b6040516103189190613f9d565b60405180910390f35b34801561032d57600080fd5b50610336612b44565b6040516103439190614afe565b60405180910390f35b34801561035857600080fd5b50610361612d65565b005b34801561036f57600080fd5b5061038a60048036038101906103859190614267565b612efd565b6040516103979190614c64565b60405180910390f35b3480156103ac57600080fd5b506103c760048036038101906103c29190614c86565b613609565b6040516103d49190613f9d565b60405180910390f35b6000808611610421576040517f08c379a000000000000000000000000000000000000000000000000000000000815260040161041890614d97565b60405180910390fd5b610429613a4f565b33816000019073ffffffffffffffffffffffffffffffffffffffff16908173ffffffffffffffffffffffffffffffffffffffff16815250508a8160200181905250898160400181905250600054816060018181525050888160800181905250878160a00181905250868160c00151600001818152505060008160c001516020018181525050868160c001516040018181525050858160e00181905250848161012001819052508381610140019073ffffffffffffffffffffffffffffffffffffffff16908173ffffffffffffffffffffffffffffffffffffffff168152505082816101600181815250506000816101800190600481111561052d5761052c6142d6565b5b90816004811115610541576105406142d6565b5b81525050600281908060018154018082558091505060019003906000526020600020906018020160009091909190915060008201518160000160006101000a81548173ffffffffffffffffffffffffffffffffffffffff021916908373ffffffffffffffffffffffffffffffffffffffff16021790555060208201518160010190805190602001906105d4929190613b01565b5060408201518160020190805190602001906105f1929190613b01565b50606082015181600301556080820151816004019080519060200190610618929190613b01565b5060a0820151816005019080519060200190610635929190613b01565b5060c082015181600601600082015181600001556020820151816001015560408201518160020155505060e082015181600901908051906020019061067b929190613b01565b5061010082015181600a01600082015181600001556020820151816001015560408201518160020190805190602001906106b6929190613b01565b5060608201518160030190805190602001906106d3929190613b01565b50608082015181600401600082015181600001556020820151816001015560408201518160020155505060a0820151816007015560c0820151816008015560e08201518160090160006101000a81548160ff0219169083600481111561073c5761073b6142d6565b5b02179055505050610120820151816014019080519060200190610760929190613b01565b506101408201518160150160006101000a81548173ffffffffffffffffffffffffffffffffffffffff021916908373ffffffffffffffffffffffffffffffffffffffff16021790555061016082015181601601556101808201518160170160006101000a81548160ff021916908360048111156107e0576107df6142d6565b5b021790555050506001600660008054815260200190815260200160002060006101000a81548160ff02191690831515021790555080600860003073ffffffffffffffffffffffffffffffffffffffff1673ffffffffffffffffffffffffffffffffffffffff16815260200190815260200160002060008201518160000160006101000a81548173ffffffffffffffffffffffffffffffffffffffff021916908373ffffffffffffffffffffffffffffffffffffffff16021790555060208201518160010190805190602001906108b7929190613b01565b5060408201518160020190805190602001906108d4929190613b01565b506060820151816003015560808201518160040190805190602001906108fb929190613b01565b5060a0820151816005019080519060200190610918929190613b01565b5060c082015181600601600082015181600001556020820151816001015560408201518160020155505060e082015181600901908051906020019061095e929190613b01565b5061010082015181600a0160008201518160000155602082015181600101556040820151816002019080519060200190610999929190613b01565b5060608201518160030190805190602001906109b6929190613b01565b50608082015181600401600082015181600001556020820151816001015560408201518160020155505060a0820151816007015560c0820151816008015560e08201518160090160006101000a81548160ff02191690836004811115610a1f57610a1e6142d6565b5b02179055505050610120820151816014019080519060200190610a43929190613b01565b506101408201518160150160006101000a81548173ffffffffffffffffffffffffffffffffffffffff021916908373ffffffffffffffffffffffffffffffffffffffff16021790555061016082015181601601556101808201518160170160006101000a81548160ff02191690836004811115610ac357610ac26142d6565b5b02179055509050503373ffffffffffffffffffffffffffffffffffffffff167faee8e5d3bbb2f71a951b5632cee20f7ac487b9f8ab4f66a236f7694b13af7c6a600080815480929190610b1590614de6565b9190505542604051610b28929190614e7a565b60405180910390a260019150509998505050505050505050565b60006007600085815260200190815260200160002060009054906101000a900460ff16610ba4576040517f08c379a0000000000000000000000000000000000000000000000000000000008152600401610b9b90614f02565b60405180910390fd5b610c5b60028481548110610bbb57610bba614f22565b5b90600052602060002090601802016001018054610bd790614f80565b80601f0160208091040260200160405190810160405280929190818152602001828054610c0390614f80565b8015610c505780601f10610c2557610100808354040283529160200191610c50565b820191906000526020600020905b815481529060010190602001808311610c3357829003601f168201915b5050505050866139f6565b610c9a576040517f08c379a0000000000000000000000000000000000000000000000000000000008152600401610c9190615023565b60405180910390fd5b8160038581548110610caf57610cae614f22565b5b90600052602060002090600a020160090160006101000a81548160ff02191690836004811115610ce257610ce16142d6565b5b02179055503373ffffffffffffffffffffffffffffffffffffffff167faee8e5d3bbb2f71a951b5632cee20f7ac487b9f8ab4f66a236f7694b13af7c6a600080815480929190610d3190614de6565b9190505542604051610d4492919061508f565b60405180910390a260019050949350505050565b60606004805480602002602001604051908101604052809291908181526020016000905b82821015610f0157838290600052602060002090600502016040518060a0016040529081600082018054610daf90614f80565b80601f0160208091040260200160405190810160405280929190818152602001828054610ddb90614f80565b8015610e285780601f10610dfd57610100808354040283529160200191610e28565b820191906000526020600020905b815481529060010190602001808311610e0b57829003601f168201915b50505050508152602001600182015481526020016002820160009054906101000a900460ff1615151515815260200160038201548152602001600482018054610e7090614f80565b80601f0160208091040260200160405190810160405280929190818152602001828054610e9c90614f80565b8015610ee95780601f10610ebe57610100808354040283529160200191610ee9565b820191906000526020600020905b815481529060010190602001808311610ecc57829003601f168201915b50505050508152505081526020019060010190610d7c565b50505050905090565b610f12613b87565b6007600083815260200190815260200160002060009054906101000a900460ff16610f72576040517f08c379a0000000000000000000000000000000000000000000000000000000008152600401610f6990614f02565b60405180910390fd5b610f7b82611169565b60038281548110610f8f57610f8e614f22565b5b90600052602060002090600a0201604051806101000160405290816000820154815260200160018201548152602001600282018054610fcd90614f80565b80601f0160208091040260200160405190810160405280929190818152602001828054610ff990614f80565b80156110465780601f1061101b57610100808354040283529160200191611046565b820191906000526020600020905b81548152906001019060200180831161102957829003601f168201915b5050505050815260200160038201805461105f90614f80565b80601f016020809104026020016040519081016040528092919081815260200182805461108b90614f80565b80156110d85780601f106110ad576101008083540402835291602001916110d8565b820191906000526020600020905b8154815290600101906020018083116110bb57829003601f168201915b50505050508152602001600482016040518060600160405290816000820154815260200160018201548152602001600282015481525050815260200160078201548152602001600882015481526020016009820160009054906101000a900460ff16600481111561114c5761114b6142d6565b5b600481111561115e5761115d6142d6565b5b815250509050919050565b426003828154811061117e5761117d614f22565b5b90600052602060002090600a02016007015411156111e5576001600382815481106111ac576111ab614f22565b5b90600052602060002090600a020160090160006101000a81548160ff021916908360048111156111df576111de6142d6565b5b02179055505b42600382815481106111fa576111f9614f22565b5b90600052602060002090600a020160070154116112605760026003828154811061122757611226614f22565b5b90600052602060002090600a020160090160006101000a81548160ff0219169083600481111561125a576112596142d6565b5b02179055505b426003828154811061127557611274614f22565b5b90600052602060002090600a02016008015410156112db5760038082815481106112a2576112a1614f22565b5b90600052602060002090600a020160090160006101000a81548160ff021916908360048111156112d5576112d46142d6565b5b02179055505b50565b60606112e8612d65565b6002805480602002602001604051908101604052809291908181526020016000905b828210156119a45783829060005260206000209060180201604051806101a00160405290816000820160009054906101000a900473ffffffffffffffffffffffffffffffffffffffff1673ffffffffffffffffffffffffffffffffffffffff1673ffffffffffffffffffffffffffffffffffffffff16815260200160018201805461139490614f80565b80601f01602080910402602001604051908101604052809291908181526020018280546113c090614f80565b801561140d5780601f106113e25761010080835404028352916020019161140d565b820191906000526020600020905b8154815290600101906020018083116113f057829003601f168201915b5050505050815260200160028201805461142690614f80565b80601f016020809104026020016040519081016040528092919081815260200182805461145290614f80565b801561149f5780601f106114745761010080835404028352916020019161149f565b820191906000526020600020905b81548152906001019060200180831161148257829003601f168201915b50505050508152602001600382015481526020016004820180546114c290614f80565b80601f01602080910402602001604051908101604052809291908181526020018280546114ee90614f80565b801561153b5780601f106115105761010080835404028352916020019161153b565b820191906000526020600020905b81548152906001019060200180831161151e57829003601f168201915b5050505050815260200160058201805461155490614f80565b80601f016020809104026020016040519081016040528092919081815260200182805461158090614f80565b80156115cd5780601f106115a2576101008083540402835291602001916115cd565b820191906000526020600020905b8154815290600101906020018083116115b057829003601f168201915b50505050508152602001600682016040518060600160405290816000820154815260200160018201548152602001600282015481525050815260200160098201805461161890614f80565b80601f016020809104026020016040519081016040528092919081815260200182805461164490614f80565b80156116915780601f1061166657610100808354040283529160200191611691565b820191906000526020600020905b81548152906001019060200180831161167457829003601f168201915b50505050508152602001600a82016040518061010001604052908160008201548152602001600182015481526020016002820180546116cf90614f80565b80601f01602080910402602001604051908101604052809291908181526020018280546116fb90614f80565b80156117485780601f1061171d57610100808354040283529160200191611748565b820191906000526020600020905b81548152906001019060200180831161172b57829003601f168201915b5050505050815260200160038201805461176190614f80565b80601f016020809104026020016040519081016040528092919081815260200182805461178d90614f80565b80156117da5780601f106117af576101008083540402835291602001916117da565b820191906000526020600020905b8154815290600101906020018083116117bd57829003601f168201915b50505050508152602001600482016040518060600160405290816000820154815260200160018201548152602001600282015481525050815260200160078201548152602001600882015481526020016009820160009054906101000a900460ff16600481111561184e5761184d6142d6565b5b60048111156118605761185f6142d6565b5b81525050815260200160148201805461187890614f80565b80601f01602080910402602001604051908101604052809291908181526020018280546118a490614f80565b80156118f15780601f106118c6576101008083540402835291602001916118f1565b820191906000526020600020905b8154815290600101906020018083116118d457829003601f168201915b505050505081526020016015820160009054906101000a900473ffffffffffffffffffffffffffffffffffffffff1673ffffffffffffffffffffffffffffffffffffffff1673ffffffffffffffffffffffffffffffffffffffff168152602001601682015481526020016017820160009054906101000a900460ff16600481111561197f5761197e6142d6565b5b6004811115611991576119906142d6565b5b815250508152602001906001019061130a565b50505050905090565b60055481565b60006006600088815260200190815260200160002060009054906101000a900460ff16611a15576040517f08c379a0000000000000000000000000000000000000000000000000000000008152600401611a0c90615117565b60405180910390fd5b60006004811115611a2957611a286142d6565b5b60028881548110611a3d57611a3c614f22565b5b906000526020600020906018020160170160009054906101000a900460ff166004811115611a6e57611a6d6142d6565b5b03611aae576040517f08c379a0000000000000000000000000000000000000000000000000000000008152600401611aa590615183565b60405180910390fd5b60008411611af1576040517f08c379a0000000000000000000000000000000000000000000000000000000008152600401611ae890614d97565b60405180910390fd5b611af9613b87565b8781600001818152505060015481602001818152505086816040018190525085816060018190525084816080015160000181815250506000816080015160200181815250508481608001516040018181525050838160a0018181525050828160c001818152505042841115611b9e5760018160e001906004811115611b8157611b806142d6565b5b90816004811115611b9557611b946142d6565b5b81525050611bd8565b428411611bd75760028160e001906004811115611bbe57611bbd6142d6565b5b90816004811115611bd257611bd16142d6565b5b815250505b5b60038190806001815401808255809150506001900390600052602060002090600a020160009091909190915060008201518160000155602082015181600101556040820151816002019080519060200190611c34929190613b01565b506060820151816003019080519060200190611c51929190613b01565b50608082015181600401600082015181600001556020820151816001015560408201518160020155505060a0820151816007015560c0820151816008015560e08201518160090160006101000a81548160ff02191690836004811115611cba57611cb96142d6565b5b02179055505050600160076000600154815260200190815260200160002060006101000a81548160ff02191690831515021790555080600960003073ffffffffffffffffffffffffffffffffffffffff1673ffffffffffffffffffffffffffffffffffffffff16815260200190815260200160002060008201518160000155602082015181600101556040820151816002019080519060200190611d5f929190613b01565b506060820151816003019080519060200190611d7c929190613b01565b50608082015181600401600082015181600001556020820151816001015560408201518160020155505060a0820151816007015560c0820151816008015560e08201518160090160006101000a81548160ff02191690836004811115611de557611de46142d6565b5b02179055509050508060028981548110611e0257611e01614f22565b5b9060005260206000209060180201600a0160008201518160000155602082015181600101556040820151816002019080519060200190611e43929190613b01565b506060820151816003019080519060200190611e60929190613b01565b50608082015181600401600082015181600001556020820151816001015560408201518160020155505060a0820151816007015560c0820151816008015560e08201518160090160006101000a81548160ff02191690836004811115611ec957611ec86142d6565b5b02179055509050506002808981548110611ee657611ee5614f22565b5b906000526020600020906018020160170160006101000a81548160ff02191690836004811115611f1957611f186142d6565b5b02179055503373ffffffffffffffffffffffffffffffffffffffff167faee8e5d3bbb2f71a951b5632cee20f7ac487b9f8ab4f66a236f7694b13af7c6a60016000815480929190611f6990614de6565b9190505542604051611f7c9291906151ef565b60405180910390a260019150509695505050505050565b606084848484604051602001611fac9493929190615267565b6040516020818303038152906040529050949350505050565b60036004811115611fd957611fd86142d6565b5b60038381548110611fed57611fec614f22565b5b90600052602060002090600a020160090160009054906101000a900460ff16600481111561201e5761201d6142d6565b5b0361205e576040517f08c379a0000000000000000000000000000000000000000000000000000000008152600401612055906152f1565b60405180910390fd5b60006003838154811061207457612073614f22565b5b90600052602060002090600a020160040160010154116120c9576040517f08c379a00000000000000000000000000000000000000000000000000000000081526004016120c09061535d565b60405180910390fd5b60008490508073ffffffffffffffffffffffffffffffffffffffff166108fc600385815481106120fc576120fb614f22565b5b90600052602060002090600a0201600401600101549081150290604051600060405180830381858888f1935050505015801561213c573d6000803e3d6000fd5b5060046040518060a001604052808481526020016003868154811061216457612163614f22565b5b90600052602060002090600a020160040160010154815260200160011515815260200142815260200161232360405180606001604052806026815260200161596460269139600289815481106121bd576121bc614f22565b5b906000526020600020906018020160040180546121d990614f80565b80601f016020809104026020016040519081016040528092919081815260200182805461220590614f80565b80156122525780601f1061222757610100808354040283529160200191612252565b820191906000526020600020905b81548152906001019060200180831161223557829003601f168201915b50505050506040518060600160405280602181526020016159436021913960038a8154811061228457612283614f22565b5b90600052602060002090600a020160020180546122a090614f80565b80601f01602080910402602001604051908101604052809291908181526020018280546122cc90614f80565b80156123195780601f106122ee57610100808354040283529160200191612319565b820191906000526020600020905b8154815290600101906020018083116122fc57829003601f168201915b5050505050611f93565b8152509080600181540180825580915050600190039060005260206000209060050201600090919091909150600082015181600001908051906020019061236b929190613b01565b506020820151816001015560408201518160020160006101000a81548160ff0219169083151502179055506060820151816003015560808201518160040190805190602001906123bc929190613b01565b505050600383815481106123d3576123d2614f22565b5b90600052602060002090600a020160040160010154600560008282546123f9919061537d565b925050819055503373ffffffffffffffffffffffffffffffffffffffff167faee8e5d3bbb2f71a951b5632cee20f7ac487b9f8ab4f66a236f7694b13af7c6a84426040516124489291906153fd565b60405180910390a25050505050565b60006006600085815260200190815260200160002060009054906101000a900460ff166124b9576040517f08c379a00000000000000000000000000000000000000000000000000000000081526004016124b090615117565b60405180910390fd5b6007600084815260200190815260200160002060009054906101000a900460ff16612519576040517f08c379a000000000000000000000000000000000000000000000000000000000815260040161251090614f02565b60405180910390fd5b6000341161255c576040517f08c379a000000000000000000000000000000000000000000000000000000000815260040161255390615485565b60405180910390fd5b600383815481106125705761256f614f22565b5b90600052602060002090600a0201600701544210156125c4576040517f08c379a00000000000000000000000000000000000000000000000000000000081526004016125bb906154f1565b60405180910390fd5b600383815481106125d8576125d7614f22565b5b90600052602060002090600a02016008015442111561262c576040517f08c379a000000000000000000000000000000000000000000000000000000000815260040161262390615583565b60405180910390fd5b600383815481106126405761263f614f22565b5b90600052602060002090600a0201600401600001546003848154811061266957612668614f22565b5b90600052602060002090600a02016004016001015411156126bf576040517f08c379a00000000000000000000000000000000000000000000000000000000081526004016126b690615615565b60405180910390fd5b600383815481106126d3576126d2614f22565b5b90600052602060002090600a02016004016000015434600385815481106126fd576126fc614f22565b5b90600052602060002090600a02016004016001015461271c9190615635565b111561275d576040517f08c379a0000000000000000000000000000000000000000000000000000000008152600401612754906156fd565b60405180910390fd5b60046040518060a0016040528084815260200134815260200160011515815260200142815260200161293860405180606001604052806022815260200161598a60229139600289815481106127b5576127b4614f22565b5b906000526020600020906018020160040180546127d190614f80565b80601f01602080910402602001604051908101604052809291908181526020018280546127fd90614f80565b801561284a5780601f1061281f5761010080835404028352916020019161284a565b820191906000526020600020905b81548152906001019060200180831161282d57829003601f168201915b50505050506040518060400160405280601b81526020017f2c20746f2069742773206d6f64756c65207469746c656420617320000000000081525060038a8154811061289957612898614f22565b5b90600052602060002090600a020160020180546128b590614f80565b80601f01602080910402602001604051908101604052809291908181526020018280546128e190614f80565b801561292e5780601f106129035761010080835404028352916020019161292e565b820191906000526020600020905b81548152906001019060200180831161291157829003601f168201915b5050505050611f93565b81525090806001815401808255809150506001900390600052602060002090600502016000909190919091506000820151816000019080519060200190612980929190613b01565b506020820151816001015560408201518160020160006101000a81548160ff0219169083151502179055506060820151816003015560808201518160040190805190602001906129d1929190613b01565b50505034600384815481106129e9576129e8614f22565b5b90600052602060002090600a02016004016001016000828254612a0c9190615635565b925050819055503460038481548110612a2857612a27614f22565b5b90600052602060002090600a02016004016002016000828254612a4b919061537d565b925050819055503460028581548110612a6757612a66614f22565b5b90600052602060002090601802016006016001016000828254612a8a9190615635565b925050819055503460028581548110612aa657612aa5614f22565b5b90600052602060002090601802016006016002016000828254612ac9919061537d565b925050819055503460056000828254612ae29190615635565b925050819055503373ffffffffffffffffffffffffffffffffffffffff167faee8e5d3bbb2f71a951b5632cee20f7ac487b9f8ab4f66a236f7694b13af7c6a8442604051612b31929190615769565b60405180910390a2600190509392505050565b6060612b4e612d65565b6003805480602002602001604051908101604052809291908181526020016000905b82821015612d5c57838290600052602060002090600a0201604051806101000160405290816000820154815260200160018201548152602001600282018054612bb890614f80565b80601f0160208091040260200160405190810160405280929190818152602001828054612be490614f80565b8015612c315780601f10612c0657610100808354040283529160200191612c31565b820191906000526020600020905b815481529060010190602001808311612c1457829003601f168201915b50505050508152602001600382018054612c4a90614f80565b80601f0160208091040260200160405190810160405280929190818152602001828054612c7690614f80565b8015612cc35780601f10612c9857610100808354040283529160200191612cc3565b820191906000526020600020905b815481529060010190602001808311612ca657829003601f168201915b50505050508152602001600482016040518060600160405290816000820154815260200160018201548152602001600282015481525050815260200160078201548152602001600882015481526020016009820160009054906101000a900460ff166004811115612d3757612d366142d6565b5b6004811115612d4957612d486142d6565b5b8152505081526020019060010190612b70565b50505050905090565b60005b600380549050811015612efa574260038281548110612d8a57612d89614f22565b5b90600052602060002090600a0201600701541115612df157600160038281548110612db857612db7614f22565b5b90600052602060002090600a020160090160006101000a81548160ff02191690836004811115612deb57612dea6142d6565b5b02179055505b4260038281548110612e0657612e05614f22565b5b90600052602060002090600a02016007015411612e6c57600260038281548110612e3357612e32614f22565b5b90600052602060002090600a020160090160006101000a81548160ff02191690836004811115612e6657612e656142d6565b5b02179055505b4260038281548110612e8157612e80614f22565b5b90600052602060002090600a0201600801541015612ee7576003808281548110612eae57612ead614f22565b5b90600052602060002090600a020160090160006101000a81548160ff02191690836004811115612ee157612ee06142d6565b5b02179055505b8080612ef290614de6565b915050612d68565b50565b612f05613a4f565b6006600083815260200190815260200160002060009054906101000a900460ff16612f65576040517f08c379a0000000000000000000000000000000000000000000000000000000008152600401612f5c90615117565b60405180910390fd5b612f6d612d65565b60028281548110612f8157612f80614f22565b5b9060005260206000209060180201604051806101a00160405290816000820160009054906101000a900473ffffffffffffffffffffffffffffffffffffffff1673ffffffffffffffffffffffffffffffffffffffff1673ffffffffffffffffffffffffffffffffffffffff16815260200160018201805461300190614f80565b80601f016020809104026020016040519081016040528092919081815260200182805461302d90614f80565b801561307a5780601f1061304f5761010080835404028352916020019161307a565b820191906000526020600020905b81548152906001019060200180831161305d57829003601f168201915b5050505050815260200160028201805461309390614f80565b80601f01602080910402602001604051908101604052809291908181526020018280546130bf90614f80565b801561310c5780601f106130e15761010080835404028352916020019161310c565b820191906000526020600020905b8154815290600101906020018083116130ef57829003601f168201915b505050505081526020016003820154815260200160048201805461312f90614f80565b80601f016020809104026020016040519081016040528092919081815260200182805461315b90614f80565b80156131a85780601f1061317d576101008083540402835291602001916131a8565b820191906000526020600020905b81548152906001019060200180831161318b57829003601f168201915b505050505081526020016005820180546131c190614f80565b80601f01602080910402602001604051908101604052809291908181526020018280546131ed90614f80565b801561323a5780601f1061320f5761010080835404028352916020019161323a565b820191906000526020600020905b81548152906001019060200180831161321d57829003601f168201915b50505050508152602001600682016040518060600160405290816000820154815260200160018201548152602001600282015481525050815260200160098201805461328590614f80565b80601f01602080910402602001604051908101604052809291908181526020018280546132b190614f80565b80156132fe5780601f106132d3576101008083540402835291602001916132fe565b820191906000526020600020905b8154815290600101906020018083116132e157829003601f168201915b50505050508152602001600a820160405180610100016040529081600082015481526020016001820154815260200160028201805461333c90614f80565b80601f016020809104026020016040519081016040528092919081815260200182805461336890614f80565b80156133b55780601f1061338a576101008083540402835291602001916133b5565b820191906000526020600020905b81548152906001019060200180831161339857829003601f168201915b505050505081526020016003820180546133ce90614f80565b80601f01602080910402602001604051908101604052809291908181526020018280546133fa90614f80565b80156134475780601f1061341c57610100808354040283529160200191613447565b820191906000526020600020905b81548152906001019060200180831161342a57829003601f168201915b50505050508152602001600482016040518060600160405290816000820154815260200160018201548152602001600282015481525050815260200160078201548152602001600882015481526020016009820160009054906101000a900460ff1660048111156134bb576134ba6142d6565b5b60048111156134cd576134cc6142d6565b5b8152505081526020016014820180546134e590614f80565b80601f016020809104026020016040519081016040528092919081815260200182805461351190614f80565b801561355e5780601f106135335761010080835404028352916020019161355e565b820191906000526020600020905b81548152906001019060200180831161354157829003601f168201915b505050505081526020016015820160009054906101000a900473ffffffffffffffffffffffffffffffffffffffff1673ffffffffffffffffffffffffffffffffffffffff1673ffffffffffffffffffffffffffffffffffffffff168152602001601682015481526020016017820160009054906101000a900460ff1660048111156135ec576135eb6142d6565b5b60048111156135fe576135fd6142d6565b5b815250509050919050565b60006006600087815260200190815260200160002060009054906101000a900460ff1661366b576040517f08c379a000000000000000000000000000000000000000000000000000000000815260040161366290615117565b60405180910390fd5b6137226002878154811061368257613681614f22565b5b9060005260206000209060180201600101805461369e90614f80565b80601f01602080910402602001604051908101604052809291908181526020018280546136ca90614f80565b80156137175780601f106136ec57610100808354040283529160200191613717565b820191906000526020600020905b8154815290600101906020018083116136fa57829003601f168201915b5050505050886139f6565b613761576040517f08c379a000000000000000000000000000000000000000000000000000000000815260040161375890615817565b60405180910390fd5b60006004811115613775576137746142d6565b5b6002878154811061378957613788614f22565b5b906000526020600020906018020160170160009054906101000a900460ff1660048111156137ba576137b96142d6565b5b146137fa576040517f08c379a00000000000000000000000000000000000000000000000000000000081526004016137f190615883565b60405180910390fd5b846002878154811061380f5761380e614f22565b5b90600052602060002090601802016006016000018190555060006002878154811061383d5761383c614f22565b5b906000526020600020906018020160060160010181905550846002878154811061386a57613869614f22565b5b906000526020600020906018020160060160020181905550836002878154811061389757613896614f22565b5b906000526020600020906018020160140190805190602001906138bb929190613b01565b5082600287815481106138d1576138d0614f22565b5b906000526020600020906018020160150160006101000a81548173ffffffffffffffffffffffffffffffffffffffff021916908373ffffffffffffffffffffffffffffffffffffffff160217905550816002878154811061393557613934614f22565b5b9060005260206000209060180201601601819055506001600287815481106139605761395f614f22565b5b906000526020600020906018020160170160006101000a81548160ff02191690836004811115613993576139926142d6565b5b02179055503373ffffffffffffffffffffffffffffffffffffffff167faee8e5d3bbb2f71a951b5632cee20f7ac487b9f8ab4f66a236f7694b13af7c6a87426040516139e09291906158ef565b60405180910390a2600190509695505050505050565b600081604051602001613a09919061592b565b6040516020818303038152906040528051906020012083604051602001613a30919061592b565b6040516020818303038152906040528051906020012014905092915050565b604051806101a00160405280600073ffffffffffffffffffffffffffffffffffffffff1681526020016060815260200160608152602001600081526020016060815260200160608152602001613aa3613be4565b815260200160608152602001613ab7613b87565b815260200160608152602001600073ffffffffffffffffffffffffffffffffffffffff1681526020016000815260200160006004811115613afb57613afa6142d6565b5b81525090565b828054613b0d90614f80565b90600052602060002090601f016020900481019282613b2f5760008555613b76565b82601f10613b4857805160ff1916838001178555613b76565b82800160010185558215613b76579182015b82811115613b75578251825591602001919060010190613b5a565b5b509050613b839190613c05565b5090565b60405180610100016040528060008152602001600081526020016060815260200160608152602001613bb7613be4565b8152602001600081526020016000815260200160006004811115613bde57613bdd6142d6565b5b81525090565b60405180606001604052806000815260200160008152602001600081525090565b5b80821115613c1e576000816000905550600101613c06565b5090565b6000604051905090565b600080fd5b600080fd5b600080fd5b600080fd5b6000601f19601f8301169050919050565b7f4e487b7100000000000000000000000000000000000000000000000000000000600052604160045260246000fd5b613c8982613c40565b810181811067ffffffffffffffff82111715613ca857613ca7613c51565b5b80604052505050565b6000613cbb613c22565b9050613cc78282613c80565b919050565b600067ffffffffffffffff821115613ce757613ce6613c51565b5b613cf082613c40565b9050602081019050919050565b82818337600083830152505050565b6000613d1f613d1a84613ccc565b613cb1565b905082815260208101848484011115613d3b57613d3a613c3b565b5b613d46848285613cfd565b509392505050565b600082601f830112613d6357613d62613c36565b5b8135613d73848260208601613d0c565b91505092915050565b6000819050919050565b613d8f81613d7c565b8114613d9a57600080fd5b50565b600081359050613dac81613d86565b92915050565b600073ffffffffffffffffffffffffffffffffffffffff82169050919050565b6000613ddd82613db2565b9050919050565b613ded81613dd2565b8114613df857600080fd5b50565b600081359050613e0a81613de4565b92915050565b60008060008060008060008060006101208a8c031215613e3357613e32613c2c565b5b60008a013567ffffffffffffffff811115613e5157613e50613c31565b5b613e5d8c828d01613d4e565b99505060208a013567ffffffffffffffff811115613e7e57613e7d613c31565b5b613e8a8c828d01613d4e565b98505060408a013567ffffffffffffffff811115613eab57613eaa613c31565b5b613eb78c828d01613d4e565b97505060608a013567ffffffffffffffff811115613ed857613ed7613c31565b5b613ee48c828d01613d4e565b9650506080613ef58c828d01613d9d565b95505060a08a013567ffffffffffffffff811115613f1657613f15613c31565b5b613f228c828d01613d4e565b94505060c08a013567ffffffffffffffff811115613f4357613f42613c31565b5b613f4f8c828d01613d4e565b93505060e0613f608c828d01613dfb565b925050610100613f728c828d01613d9d565b9150509295985092959850929598565b60008115159050919050565b613f9781613f82565b82525050565b6000602082019050613fb26000830184613f8e565b92915050565b60058110613fc557600080fd5b50565b600081359050613fd781613fb8565b92915050565b60008060008060808587031215613ff757613ff6613c2c565b5b600085013567ffffffffffffffff81111561401557614014613c31565b5b61402187828801613d4e565b945050602061403287828801613d9d565b935050604061404387828801613d9d565b925050606061405487828801613fc8565b91505092959194509250565b600081519050919050565b600082825260208201905092915050565b6000819050602082019050919050565b600081519050919050565b600082825260208201905092915050565b60005b838110156140c65780820151818401526020810190506140ab565b838111156140d5576000848401525b50505050565b60006140e68261408c565b6140f08185614097565b93506141008185602086016140a8565b61410981613c40565b840191505092915050565b61411d81613d7c565b82525050565b61412c81613f82565b82525050565b600060a083016000830151848203600086015261414f82826140db565b91505060208301516141646020860182614114565b5060408301516141776040860182614123565b50606083015161418a6060860182614114565b50608083015184820360808601526141a282826140db565b9150508091505092915050565b60006141bb8383614132565b905092915050565b6000602082019050919050565b60006141db82614060565b6141e5818561406b565b9350836020820285016141f78561407c565b8060005b85811015614233578484038952815161421485826141af565b945061421f836141c3565b925060208a019950506001810190506141fb565b50829750879550505050505092915050565b6000602082019050818103600083015261425f81846141d0565b905092915050565b60006020828403121561427d5761427c613c2c565b5b600061428b84828501613d9d565b91505092915050565b6060820160008201516142aa6000850182614114565b5060208201516142bd6020850182614114565b5060408201516142d06040850182614114565b50505050565b7f4e487b7100000000000000000000000000000000000000000000000000000000600052602160045260246000fd5b60058110614316576143156142d6565b5b50565b600081905061432782614305565b919050565b600061433782614319565b9050919050565b6143478161432c565b82525050565b6000610140830160008301516143666000860182614114565b5060208301516143796020860182614114565b506040830151848203604086015261439182826140db565b915050606083015184820360608601526143ab82826140db565b91505060808301516143c06080860182614294565b5060a08301516143d360e0860182614114565b5060c08301516143e7610100860182614114565b5060e08301516143fb61012086018261433e565b508091505092915050565b60006020820190508181036000830152614420818461434d565b905092915050565b600081519050919050565b600082825260208201905092915050565b6000819050602082019050919050565b61445d81613dd2565b82525050565b60006101408301600083015161447c6000860182614114565b50602083015161448f6020860182614114565b50604083015184820360408601526144a782826140db565b915050606083015184820360608601526144c182826140db565b91505060808301516144d66080860182614294565b5060a08301516144e960e0860182614114565b5060c08301516144fd610100860182614114565b5060e083015161451161012086018261433e565b508091505092915050565b60006101e0830160008301516145356000860182614454565b506020830151848203602086015261454d82826140db565b9150506040830151848203604086015261456782826140db565b915050606083015161457c6060860182614114565b506080830151848203608086015261459482826140db565b91505060a083015184820360a08601526145ae82826140db565b91505060c08301516145c360c0860182614294565b5060e08301518482036101208601526145dc82826140db565b9150506101008301518482036101408601526145f88282614463565b91505061012083015184820361016086015261461482826140db565b91505061014083015161462b610180860182614454565b506101608301516146406101a0860182614114565b506101808301516146556101c086018261433e565b508091505092915050565b600061466c838361451c565b905092915050565b6000602082019050919050565b600061468c82614428565b6146968185614433565b9350836020820285016146a885614444565b8060005b858110156146e457848403895281516146c58582614660565b94506146d083614674565b925060208a019950506001810190506146ac565b50829750879550505050505092915050565b600060208201905081810360008301526147108184614681565b905092915050565b61472181613d7c565b82525050565b600060208201905061473c6000830184614718565b92915050565b60008060008060008060c0878903121561475f5761475e613c2c565b5b600061476d89828a01613d9d565b965050602087013567ffffffffffffffff81111561478e5761478d613c31565b5b61479a89828a01613d4e565b955050604087013567ffffffffffffffff8111156147bb576147ba613c31565b5b6147c789828a01613d4e565b94505060606147d889828a01613d9d565b93505060806147e989828a01613d9d565b92505060a06147fa89828a01613d9d565b9150509295509295509295565b6000806000806080858703121561482157614820613c2c565b5b600085013567ffffffffffffffff81111561483f5761483e613c31565b5b61484b87828801613d4e565b945050602085013567ffffffffffffffff81111561486c5761486b613c31565b5b61487887828801613d4e565b935050604085013567ffffffffffffffff81111561489957614898613c31565b5b6148a587828801613d4e565b925050606085013567ffffffffffffffff8111156148c6576148c5613c31565b5b6148d287828801613d4e565b91505092959194509250565b600082825260208201905092915050565b60006148fa8261408c565b61490481856148de565b93506149148185602086016140a8565b61491d81613c40565b840191505092915050565b6000602082019050818103600083015261494281846148ef565b905092915050565b6000806000806080858703121561496457614963613c2c565b5b600061497287828801613dfb565b945050602061498387828801613d9d565b935050604061499487828801613d9d565b925050606085013567ffffffffffffffff8111156149b5576149b4613c31565b5b6149c187828801613d4e565b91505092959194509250565b6000806000606084860312156149e6576149e5613c2c565b5b60006149f486828701613d9d565b9350506020614a0586828701613d9d565b925050604084013567ffffffffffffffff811115614a2657614a25613c31565b5b614a3286828701613d4e565b9150509250925092565b600081519050919050565b600082825260208201905092915050565b6000819050602082019050919050565b6000614a748383614463565b905092915050565b6000602082019050919050565b6000614a9482614a3c565b614a9e8185614a47565b935083602082028501614ab085614a58565b8060005b85811015614aec5784840389528151614acd8582614a68565b9450614ad883614a7c565b925060208a01995050600181019050614ab4565b50829750879550505050505092915050565b60006020820190508181036000830152614b188184614a89565b905092915050565b60006101e083016000830151614b396000860182614454565b5060208301518482036020860152614b5182826140db565b91505060408301518482036040860152614b6b82826140db565b9150506060830151614b806060860182614114565b5060808301518482036080860152614b9882826140db565b91505060a083015184820360a0860152614bb282826140db565b91505060c0830151614bc760c0860182614294565b5060e0830151848203610120860152614be082826140db565b915050610100830151848203610140860152614bfc8282614463565b915050610120830151848203610160860152614c1882826140db565b915050610140830151614c2f610180860182614454565b50610160830151614c446101a0860182614114565b50610180830151614c596101c086018261433e565b508091505092915050565b60006020820190508181036000830152614c7e8184614b20565b905092915050565b60008060008060008060c08789031215614ca357614ca2613c2c565b5b600087013567ffffffffffffffff811115614cc157614cc0613c31565b5b614ccd89828a01613d4e565b9650506020614cde89828a01613d9d565b9550506040614cef89828a01613d9d565b945050606087013567ffffffffffffffff811115614d1057614d0f613c31565b5b614d1c89828a01613d4e565b9350506080614d2d89828a01613dfb565b92505060a0614d3e89828a01613d9d565b9150509295509295509295565b7f5461726765742066756e64732063616e2774206265207a65726f2e0000000000600082015250565b6000614d81601b836148de565b9150614d8c82614d4b565b602082019050919050565b60006020820190508181036000830152614db081614d74565b9050919050565b7f4e487b7100000000000000000000000000000000000000000000000000000000600052601160045260246000fd5b6000614df182613d7c565b91507fffffffffffffffffffffffffffffffffffffffffffffffffffffffffffffffff8203614e2357614e22614db7565b5b600182019050919050565b7f4964656120506974636865640000000000000000000000000000000000000000600082015250565b6000614e64600c836148de565b9150614e6f82614e2e565b602082019050919050565b6000606082019050614e8f6000830185614718565b8181036020830152614ea081614e57565b9050614eaf6040830184614718565b9392505050565b7f4d6f64756c65206e6f7420666f756e642e000000000000000000000000000000600082015250565b6000614eec6011836148de565b9150614ef782614eb6565b602082019050919050565b60006020820190508181036000830152614f1b81614edf565b9050919050565b7f4e487b7100000000000000000000000000000000000000000000000000000000600052603260045260246000fd5b7f4e487b7100000000000000000000000000000000000000000000000000000000600052602260045260246000fd5b60006002820490506001821680614f9857607f821691505b602082108103614fab57614faa614f51565b5b50919050565b7f4f6e6c79206f776e65722063616e206368616e676520737461747573206f662060008201527f746865206d6f64756c652e000000000000000000000000000000000000000000602082015250565b600061500d602b836148de565b915061501882614fb1565b604082019050919050565b6000602082019050818103600083015261503c81615000565b9050919050565b7f4d6f64756c6520537461747573204368616e6765642e00000000000000000000600082015250565b60006150796016836148de565b915061508482615043565b602082019050919050565b60006060820190506150a46000830185614718565b81810360208301526150b58161506c565b90506150c46040830184614718565b9392505050565b7f50726f6a656374206e6f7420666f756e642e0000000000000000000000000000600082015250565b60006151016012836148de565b915061510c826150cb565b602082019050919050565b60006020820190508181036000830152615130816150f4565b9050919050565b7f50726f6a656374206973206e6f742073746172746564207965742e0000000000600082015250565b600061516d601b836148de565b915061517882615137565b602082019050919050565b6000602082019050818103600083015261519c81615160565b9050919050565b7f4d6f64756c652043726561746564000000000000000000000000000000000000600082015250565b60006151d9600e836148de565b91506151e4826151a3565b602082019050919050565b60006060820190506152046000830185614718565b8181036020830152615215816151cc565b90506152246040830184614718565b9392505050565b600081905092915050565b60006152418261408c565b61524b818561522b565b935061525b8185602086016140a8565b80840191505092915050565b60006152738287615236565b915061527f8286615236565b915061528b8285615236565b91506152978284615236565b915081905095945050505050565b7f4d6f64756c652068617320616c726561647920636f6d706c657465642e000000600082015250565b60006152db601d836148de565b91506152e6826152a5565b602082019050919050565b6000602082019050818103600083015261530a816152ce565b9050919050565b7f4e6f7420656e6f7567682062616c616e636520746f2077697468647261772e00600082015250565b6000615347601f836148de565b915061535282615311565b602082019050919050565b600060208201905081810360008301526153768161533a565b9050919050565b600061538882613d7c565b915061539383613d7c565b9250828210156153a6576153a5614db7565b5b828203905092915050565b7f4d6f64756c652046756e64732057697468647261776e00000000000000000000600082015250565b60006153e76016836148de565b91506153f2826153b1565b602082019050919050565b60006060820190506154126000830185614718565b8181036020830152615423816153da565b90506154326040830184614718565b9392505050565b7f4574686572206d7573742062652067726561746572207468616e207a65726f2e600082015250565b600061546f6020836148de565b915061547a82615439565b602082019050919050565b6000602082019050818103600083015261549e81615462565b9050919050565b7f4d6f64756c65206e6f7420737461727465642c20706c6561736520776169742e600082015250565b60006154db6020836148de565b91506154e6826154a5565b602082019050919050565b6000602082019050818103600083015261550a816154ce565b9050919050565b7f446561646c696e65206861732070617373656420666f722074686973206d6f6460008201527f756c652e00000000000000000000000000000000000000000000000000000000602082015250565b600061556d6024836148de565b915061557882615511565b604082019050919050565b6000602082019050818103600083015261559c81615560565b9050919050565b7f5461726765742066756e6473206861732072616973656420666f72207468697360008201527f206d6f64756c652c20796f752063616e277420646f6e617465206e6f772e0000602082015250565b60006155ff603e836148de565b915061560a826155a3565b604082019050919050565b6000602082019050818103600083015261562e816155f2565b9050919050565b600061564082613d7c565b915061564b83613d7c565b9250827fffffffffffffffffffffffffffffffffffffffffffffffffffffffffffffffff038211156156805761567f614db7565b5b828201905092915050565b7f43616e277420646f6e617465207468697320616d6d6f756e742c20706c65617360008201527f652074727920616761696e2e0000000000000000000000000000000000000000602082015250565b60006156e7602c836148de565b91506156f28261568b565b604082019050919050565b60006020820190508181036000830152615716816156da565b9050919050565b7f46756e647320446f6e6174656420666f72204d6f64756c650000000000000000600082015250565b60006157536018836148de565b915061575e8261571d565b602082019050919050565b600060608201905061577e6000830185614718565b818103602083015261578f81615746565b905061579e6040830184614718565b9392505050565b7f4f6e6c79206f776e65722063616e207374617274207468652070726f6a65637460008201527f2e00000000000000000000000000000000000000000000000000000000000000602082015250565b60006158016021836148de565b915061580c826157a5565b604082019050919050565b60006020820190508181036000830152615830816157f4565b9050919050565b7f50726f6a65637420697320616c726561647920737461727465642e0000000000600082015250565b600061586d601b836148de565b915061587882615837565b602082019050919050565b6000602082019050818103600083015261589c81615860565b9050919050565b7f50726f6a656374205363686564756c6564000000000000000000000000000000600082015250565b60006158d96011836148de565b91506158e4826158a3565b602082019050919050565b60006060820190506159046000830185614718565b8181036020830152615915816158cc565b90506159246040830184614718565b9392505050565b60006159378284615236565b91508190509291505056fe2c20616e642066726f6d2069742773206d6f64756c65207469746c65642061732057697468647261772066756e64732066726f6d2070726f6a656374207469746c656420617320446f6e6174652066756e647320746f2070726f6a656374207469746c656420617320a26469706673582212205fe1dcf5ae0326d3c1f7b330b44c8121e27ea8671f07f65a61da6754351ac06e64736f6c634300080d0033",
  "immutableReferences": {},
  "source": "//SPDX-License-Identifier: MIT\npragma solidity ^0.8.7;\n\ncontract Project {\n    enum statusEnum {\n        Pitched,\n        Scheduled,\n        Ongoing,\n        Completed,\n        Closed\n    }\n\n    event Action(\n        uint256 id,\n        string actionType,\n        address indexed executor,\n        uint256 timestamp\n    );\n\n    struct userStatsStruct {\n        string userId;\n        uint contribution;\n        bool isFundsDonating;\n        uint timestamp;\n        string description;\n    }\n\n    struct projectStructre {\n        address creator;\n        string userId;\n        string categoryId;\n        uint256 projectId;\n        string title;\n        string description;\n        fundStruct projectFunds;\n        string imageURL;\n        moduleStructure moduleStruct;\n        string investerId;\n        address investerAddress;\n        uint256 equity;\n        statusEnum status;\n    }\n\n    struct fundStruct {\n        uint256 targetFunds;\n        uint256 raisedFunds;\n        uint256 remainingFunds;\n    }\n\n    uint projectsCount;\n    uint modulesCount;\n\n    projectStructre[] projects;\n    moduleStructure[] modules;\n    userStatsStruct[] userStats;\n\n    uint public contractBalance;\n\n    mapping(uint => bool) projectExist;\n    mapping(uint => bool) moduleExist;\n\n    mapping(address => projectStructre) projectsOf;\n    mapping(address => moduleStructure) modulesOf;\n\n    function createProject(\n        string memory userId,\n        string memory categoryId,\n        string memory title,\n        string memory description,\n        uint256 targetFunds,\n        string memory imageURL,\n        string memory investerId,\n        address investerAddress,\n        uint256 equity\n    ) public returns (bool) {\n        require(targetFunds > 0, \"Target funds can't be zero.\");\n\n        projectStructre memory project;\n\n        project.creator = msg.sender;\n        project.userId = userId;\n        project.categoryId = categoryId;\n        project.projectId = projectsCount;\n        project.title = title;\n        project.description = description;\n        project.projectFunds.targetFunds = targetFunds;\n        project.projectFunds.raisedFunds = 0;\n        project.projectFunds.remainingFunds = targetFunds;\n        project.imageURL = imageURL;\n        project.investerId = investerId;\n        project.investerAddress = investerAddress;\n        project.equity = equity;\n        project.status = statusEnum.Pitched;\n\n        projects.push(project);\n        projectExist[projectsCount] = true;\n        projectsOf[address(this)] = project;\n\n        emit Action(\n            projectsCount++,\n            \"Idea Pitched\",\n            msg.sender,\n            block.timestamp\n        );\n\n        return true;\n    }\n\n    function startProject(\n        string memory userId,\n        uint256 projectId,\n        uint256 targetFunds,\n        string memory investerId,\n        address investerAddress,\n        uint256 equity\n    ) public returns (bool) {\n        require(projectExist[projectId], \"Project not found.\");\n        require(\n            compareStrings(projects[projectId].userId, userId),\n            \"Only owner can start the project.\"\n        );\n        require(\n            projects[projectId].status == statusEnum.Pitched,\n            \"Project is already started.\"\n        );\n\n        projects[projectId].projectFunds.targetFunds = targetFunds;\n        projects[projectId].projectFunds.raisedFunds = 0;\n        projects[projectId].projectFunds.remainingFunds = targetFunds;\n        projects[projectId].investerId = investerId;\n        projects[projectId].investerAddress = investerAddress;\n        projects[projectId].equity = equity;\n        projects[projectId].status = statusEnum.Scheduled;\n\n        emit Action(\n            projectId,\n            \"Project Scheduled\",\n            msg.sender,\n            block.timestamp\n        );\n\n        return true;\n    }\n\n    // function updateProjectStatus(\n    //     string memory userId,\n    //     uint256 projectId,\n    //     statusEnum status\n    // ) public returns (bool) {\n    //     require(projectExist[projectId], \"Project not found.\");\n    //     require(\n    //         compareStrings(projects[projectId].userId, userId),\n    //         \"Only owner can change status of the project.\"\n    //     );\n\n    //     projects[projectId].status = status;\n\n    //     emit Action(\n    //         projectsCount++,\n    //         \"Project Status Changed.\",\n    //         msg.sender,\n    //         block.timestamp\n    //     );\n\n    //     return true;\n    // }\n\n    function updateModuleStatus(\n        string memory userId,\n        uint256 moduleId,\n        uint256 projectId,\n        statusEnum status\n    ) public returns (bool) {\n        require(moduleExist[moduleId], \"Module not found.\");\n        require(\n            compareStrings(projects[projectId].userId, userId),\n            \"Only owner can change status of the module.\"\n        );\n\n        modules[moduleId].status = status;\n\n        emit Action(\n            projectsCount++,\n            \"Module Status Changed.\",\n            msg.sender,\n            block.timestamp\n        );\n\n        return true;\n    }\n\n    struct moduleStructure {\n        uint256 projectId;\n        uint256 moduleId;\n        string title;\n        string description;\n        fundStruct moduleFunds;\n        uint256 startTime;\n        uint256 endTime;\n        statusEnum status;\n    }\n\n    function createProjectModule(\n        uint256 projectId,\n        string memory title,\n        string memory description,\n        uint256 targetFunds,\n        uint256 startTime,\n        uint256 endTime\n    ) public returns (bool) {\n        require(projectExist[projectId], \"Project not found.\");\n        require(\n            projects[projectId].status != statusEnum.Pitched,\n            \"Project is not started yet.\"\n        );\n        require(targetFunds > 0, \"Target funds can't be zero.\");\n\n        moduleStructure memory module;\n\n        module.projectId = projectId;\n        module.moduleId = modulesCount;\n        module.title = title;\n        module.description = description;\n        module.moduleFunds.targetFunds = targetFunds;\n        module.moduleFunds.raisedFunds = 0;\n        module.moduleFunds.remainingFunds = targetFunds;\n        module.startTime = startTime;\n        module.endTime = endTime;\n\n        if (startTime > block.timestamp) {\n            module.status = statusEnum.Scheduled;\n        } else if (startTime <= block.timestamp) {\n            module.status = statusEnum.Ongoing;\n        }\n\n        modules.push(module);\n        moduleExist[modulesCount] = true;\n        modulesOf[address(this)] = module;\n\n        projects[projectId].moduleStruct = module;\n        projects[projectId].status = statusEnum.Ongoing;\n\n        emit Action(\n            modulesCount++,\n            \"Module Created\",\n            msg.sender,\n            block.timestamp\n        );\n        return true;\n    }\n\n    function getProject(uint id) public returns (projectStructre memory) {\n        require(projectExist[id], \"Project not found.\");\n        updateAllModulesStatus();\n        return projects[id];\n    }\n\n    function getAllProjects() public returns (projectStructre[] memory) {\n        updateAllModulesStatus();\n        return projects;\n    }\n\n    function getModule(uint id) public returns (moduleStructure memory) {\n        require(moduleExist[id], \"Module not found.\");\n        updateOneModuleStatus(id);\n        return modules[id];\n    }\n\n    function getAllModules() public returns (moduleStructure[] memory) {\n        updateAllModulesStatus();\n\n        return modules;\n    }\n\n    function updateOneModuleStatus(uint id) public {\n        if (modules[id].startTime > block.timestamp) {\n            modules[id].status = statusEnum.Scheduled;\n        }\n        if (modules[id].startTime <= block.timestamp) {\n            modules[id].status = statusEnum.Ongoing;\n        }\n        if (modules[id].endTime < block.timestamp) {\n            modules[id].status = statusEnum.Completed;\n        }\n    }\n\n    function updateAllModulesStatus() public {\n        for (uint256 i = 0; i < modules.length; i++) {\n            if (modules[i].startTime > block.timestamp) {\n                modules[i].status = statusEnum.Scheduled;\n            }\n            if (modules[i].startTime <= block.timestamp) {\n                modules[i].status = statusEnum.Ongoing;\n            }\n            if (modules[i].endTime < block.timestamp) {\n                modules[i].status = statusEnum.Completed;\n            }\n        }\n    }\n\n    function concatStrings(\n        string memory a,\n        string memory b,\n        string memory c,\n        string memory d\n    ) public pure returns (string memory) {\n        return string(abi.encodePacked(a, b, c, d));\n    }\n\n    function getUserStats() public view returns (userStatsStruct[] memory) {\n        return userStats;\n    }\n\n    function fundsToProjectModule(\n        uint projectId,\n        uint moduleId,\n        string memory userId\n    ) public payable returns (bool) {\n        require(projectExist[projectId], \"Project not found.\");\n        require(moduleExist[moduleId], \"Module not found.\");\n\n        require(msg.value > 0 ether, \"Ether must be greater than zero.\");\n\n        require(\n            block.timestamp >= modules[moduleId].startTime,\n            \"Module not started, please wait.\"\n        );\n        require(\n            block.timestamp <= modules[moduleId].endTime,\n            \"Deadline has passed for this module.\"\n        );\n\n        require(\n            modules[moduleId].moduleFunds.raisedFunds <=\n                modules[moduleId].moduleFunds.targetFunds,\n            \"Target funds has raised for this module, you can't donate now.\"\n        );\n\n        require(\n            modules[moduleId].moduleFunds.raisedFunds + msg.value <=\n                modules[moduleId].moduleFunds.targetFunds,\n            \"Can't donate this ammount, please try again.\"\n        );\n\n        userStats.push(\n            userStatsStruct(\n                userId,\n                msg.value,\n                true,\n                block.timestamp,\n                concatStrings(\n                    \"Donate funds to project titled as \",\n                    projects[projectId].title,\n                    \", to it's module titled as \",\n                    modules[moduleId].title\n                )\n            )\n        );\n\n        modules[moduleId].moduleFunds.raisedFunds += msg.value;\n        modules[moduleId].moduleFunds.remainingFunds -= msg.value;\n\n        projects[projectId].projectFunds.raisedFunds += msg.value;\n        projects[projectId].projectFunds.remainingFunds -= msg.value;\n\n        contractBalance += msg.value;\n\n        // if (\n        //     modules[moduleId].moduleFunds.raisedFunds >=\n        //     modules[moduleId].moduleFunds.targetFunds\n        // ) {\n        //     modules[moduleId].status = statusEnum.Completed;\n        // } else {\n        //     modules[moduleId].status = statusEnum.Ongoing;\n        // }\n\n        // if (\n        //     projects[projectId].projectFunds.raisedFunds >=\n        //     projects[projectId].projectFunds.targetFunds\n        // ) {\n        //     projects[projectId].status = statusEnum.Completed;\n        // } else {\n        //     projects[projectId].status = statusEnum.Ongoing;\n        // }\n\n        emit Action(\n            moduleId,\n            \"Funds Donated for Module\",\n            msg.sender,\n            block.timestamp\n        );\n\n        return true;\n    }\n\n    function withdrawFunds(\n        address ownerAddress,\n        uint projectId,\n        uint moduleId,\n        string memory userId\n    ) public {\n        require(\n            modules[moduleId].status != statusEnum.Completed,\n            \"Module has already completed.\"\n        );\n        require(\n            modules[moduleId].moduleFunds.raisedFunds > 0,\n            \"Not enough balance to withdraw.\"\n        );\n\n        address payable owner = payable(ownerAddress);\n\n        owner.transfer(modules[moduleId].moduleFunds.raisedFunds);\n\n        userStats.push(\n            userStatsStruct(\n                userId,\n                modules[moduleId].moduleFunds.raisedFunds,\n                true,\n                block.timestamp,\n                concatStrings(\n                    \"Withdraw funds from project titled as \",\n                    projects[projectId].title,\n                    \", and from it's module titled as \",\n                    modules[moduleId].title\n                )\n            )\n        );\n\n        contractBalance -= modules[moduleId].moduleFunds.raisedFunds;\n\n        // if (\n        //     modules[moduleId].moduleFunds.raisedFunds >=\n        //     modules[moduleId].moduleFunds.targetFunds\n        // ) {\n        //     modules[moduleId].status = statusEnum.Completed;\n        // } else {\n        //     modules[moduleId].status = statusEnum.Ongoing;\n        // }\n\n        // if (\n        //     projects[projectId].projectFunds.raisedFunds >=\n        //     projects[projectId].projectFunds.targetFunds\n        // ) {\n        //     projects[projectId].status = statusEnum.Completed;\n        // } else {\n        //     projects[projectId].status = statusEnum.Ongoing;\n        // }\n\n        emit Action(\n            moduleId,\n            \"Module Funds Withdrawn\",\n            msg.sender,\n            block.timestamp\n        );\n    }\n\n    function compareStrings(\n        string memory a,\n        string memory b\n    ) private pure returns (bool) {\n        return keccak256(abi.encodePacked(a)) == keccak256(abi.encodePacked(b));\n    }\n}\n",
  "sourcePath": "/Users/ali/Projects/FYP/helping-hands-apis/contracts/Project.sol",
  "compiler": {
    "name": "solc",
    "version": "0.8.13+commit.abaa5c0e.Emscripten.clang"
  },
  "schemaVersion": "3.4.11",
  "updatedAt": "2023-05-18T11:13:12.214Z",
  "devdoc": {
    "kind": "dev",
    "methods": {},
    "version": 1
  },
  "userdoc": {
    "kind": "user",
    "methods": {},
    "version": 1
  }
}